{
	"contract/TokenFactory.sol": {
		"TokenFactory": {
			"abi": [
				{
					"anonymous": false,
					"inputs": [
						{
							"indexed": false,
							"internalType": "address",
							"name": "tokenAddress",
							"type": "address"
						}
					],
					"name": "TokenCreated",
					"type": "event"
				},
				{
					"inputs": [
						{
							"internalType": "string",
							"name": "name",
							"type": "string"
						},
						{
							"internalType": "string",
							"name": "symbol",
							"type": "string"
						},
						{
							"internalType": "uint256",
							"name": "initialSupply",
							"type": "uint256"
						}
					],
					"name": "createToken",
					"outputs": [],
					"stateMutability": "nonpayable",
					"type": "function"
				},
				{
					"inputs": [
						{
							"internalType": "uint256",
							"name": "",
							"type": "uint256"
						}
					],
					"name": "deployedTokens",
					"outputs": [
						{
							"internalType": "contract Token",
							"name": "",
							"type": "address"
						}
					],
					"stateMutability": "view",
					"type": "function"
				},
				{
					"inputs": [],
					"name": "getDeployedTokens",
					"outputs": [
						{
							"internalType": "contract Token[]",
							"name": "",
							"type": "address[]"
						}
					],
					"stateMutability": "view",
					"type": "function"
				}
			],
			"devdoc": {
				"kind": "dev",
				"methods": {},
				"version": 1
			},
			"evm": {
				"assembly": "    /* \"contract/TokenFactory.sol\":81:734  contract TokenFactory {... */\n  mstore(0x40, 0x80)\n  callvalue\n  dup1\n  iszero\n  tag_1\n  jumpi\n  0x00\n  dup1\n  revert\ntag_1:\n  pop\n  dataSize(sub_0)\n  dup1\n  dataOffset(sub_0)\n  0x00\n  codecopy\n  0x00\n  return\nstop\n\nsub_0: assembly {\n        /* \"contract/TokenFactory.sol\":81:734  contract TokenFactory {... */\n      mstore(0x40, 0x80)\n      callvalue\n      dup1\n      iszero\n      tag_1\n      jumpi\n      0x00\n      dup1\n      revert\n    tag_1:\n      pop\n      jumpi(tag_2, lt(calldatasize, 0x04))\n      shr(0xe0, calldataload(0x00))\n      dup1\n      0x5b060530\n      eq\n      tag_3\n      jumpi\n      dup1\n      0x622ae7aa\n      eq\n      tag_4\n      jumpi\n      dup1\n      0xec81aadb\n      eq\n      tag_5\n      jumpi\n    tag_2:\n      0x00\n      dup1\n      revert\n        /* \"contract/TokenFactory.sol\":329:579  function createToken(string memory name, string memory symbol, uint256 initialSupply) public {... */\n    tag_3:\n      tag_6\n      0x04\n      dup1\n      calldatasize\n      sub\n      dup2\n      add\n      swap1\n      tag_7\n      swap2\n      swap1\n      tag_8\n      jump\t// in\n    tag_7:\n      tag_9\n      jump\t// in\n    tag_6:\n      stop\n        /* \"contract/TokenFactory.sol\":628:732  function getDeployedTokens() public view returns (Token[] memory) {... */\n    tag_4:\n      tag_10\n      tag_11\n      jump\t// in\n    tag_10:\n      mload(0x40)\n      tag_12\n      swap2\n      swap1\n      tag_13\n      jump\t// in\n    tag_12:\n      mload(0x40)\n      dup1\n      swap2\n      sub\n      swap1\n      return\n        /* \"contract/TokenFactory.sol\":159:188  Token[] public deployedTokens */\n    tag_5:\n      tag_14\n      0x04\n      dup1\n      calldatasize\n      sub\n      dup2\n      add\n      swap1\n      tag_15\n      swap2\n      swap1\n      tag_16\n      jump\t// in\n    tag_15:\n      tag_17\n      jump\t// in\n    tag_14:\n      mload(0x40)\n      tag_18\n      swap2\n      swap1\n      tag_19\n      jump\t// in\n    tag_18:\n      mload(0x40)\n      dup1\n      swap2\n      sub\n      swap1\n      return\n        /* \"contract/TokenFactory.sol\":329:579  function createToken(string memory name, string memory symbol, uint256 initialSupply) public {... */\n    tag_9:\n        /* \"contract/TokenFactory.sol\":432:446  Token newToken */\n      0x00\n        /* \"contract/TokenFactory.sol\":459:463  name */\n      dup4\n        /* \"contract/TokenFactory.sol\":465:471  symbol */\n      dup4\n        /* \"contract/TokenFactory.sol\":473:486  initialSupply */\n      dup4\n        /* \"contract/TokenFactory.sol\":449:487  new Token(name, symbol, initialSupply) */\n      mload(0x40)\n      tag_21\n      swap1\n      tag_22\n      jump\t// in\n    tag_21:\n      tag_23\n      swap4\n      swap3\n      swap2\n      swap1\n      tag_24\n      jump\t// in\n    tag_23:\n      mload(0x40)\n      dup1\n      swap2\n      sub\n      swap1\n      0x00\n      create\n      dup1\n      iszero\n      dup1\n      iszero\n      tag_25\n      jumpi\n      returndatasize\n      0x00\n      dup1\n      returndatacopy\n      revert(0x00, returndatasize)\n    tag_25:\n      pop\n        /* \"contract/TokenFactory.sol\":432:487  Token newToken = new Token(name, symbol, initialSupply) */\n      swap1\n      pop\n        /* \"contract/TokenFactory.sol\":497:511  deployedTokens */\n      0x00\n        /* \"contract/TokenFactory.sol\":517:525  newToken */\n      dup2\n        /* \"contract/TokenFactory.sol\":497:526  deployedTokens.push(newToken) */\n      swap1\n      dup1\n      0x01\n      dup2\n      sload\n      add\n      dup1\n      dup3\n      sstore\n      dup1\n      swap2\n      pop\n      pop\n      0x01\n      swap1\n      sub\n      swap1\n      0x00\n      mstore\n      keccak256(0x00, 0x20)\n      add\n      0x00\n      swap1\n      swap2\n      swap1\n      swap2\n      swap1\n      swap2\n      0x0100\n      exp\n      dup2\n      sload\n      dup2\n      0xffffffffffffffffffffffffffffffffffffffff\n      mul\n      not\n      and\n      swap1\n      dup4\n      0xffffffffffffffffffffffffffffffffffffffff\n      and\n      mul\n      or\n      swap1\n      sstore\n      pop\n        /* \"contract/TokenFactory.sol\":541:572  TokenCreated(address(newToken)) */\n      0x2e2b3f61b70d2d131b2a807371103cc98d51adcaa5e9a8f9c32658ad8426e74e\n        /* \"contract/TokenFactory.sol\":562:570  newToken */\n      dup2\n        /* \"contract/TokenFactory.sol\":541:572  TokenCreated(address(newToken)) */\n      mload(0x40)\n      tag_27\n      swap2\n      swap1\n      tag_28\n      jump\t// in\n    tag_27:\n      mload(0x40)\n      dup1\n      swap2\n      sub\n      swap1\n      log1\n        /* \"contract/TokenFactory.sol\":422:579  {... */\n      pop\n        /* \"contract/TokenFactory.sol\":329:579  function createToken(string memory name, string memory symbol, uint256 initialSupply) public {... */\n      pop\n      pop\n      pop\n      jump\t// out\n        /* \"contract/TokenFactory.sol\":628:732  function getDeployedTokens() public view returns (Token[] memory) {... */\n    tag_11:\n        /* \"contract/TokenFactory.sol\":678:692  Token[] memory */\n      0x60\n        /* \"contract/TokenFactory.sol\":711:725  deployedTokens */\n      0x00\n        /* \"contract/TokenFactory.sol\":704:725  return deployedTokens */\n      dup1\n      sload\n      dup1\n      0x20\n      mul\n      0x20\n      add\n      mload(0x40)\n      swap1\n      dup2\n      add\n      0x40\n      mstore\n      dup1\n      swap3\n      swap2\n      swap1\n      dup2\n      dup2\n      mstore\n      0x20\n      add\n      dup3\n      dup1\n      sload\n      dup1\n      iszero\n      tag_30\n      jumpi\n      0x20\n      mul\n      dup3\n      add\n      swap2\n      swap1\n      0x00\n      mstore\n      keccak256(0x00, 0x20)\n      swap1\n    tag_31:\n      dup2\n      0x00\n      swap1\n      sload\n      swap1\n      0x0100\n      exp\n      swap1\n      div\n      0xffffffffffffffffffffffffffffffffffffffff\n      and\n      0xffffffffffffffffffffffffffffffffffffffff\n      and\n      dup2\n      mstore\n      0x20\n      add\n      swap1\n      0x01\n      add\n      swap1\n      dup1\n      dup4\n      gt\n      tag_31\n      jumpi\n    tag_30:\n      pop\n      pop\n      pop\n      pop\n      pop\n      swap1\n      pop\n        /* \"contract/TokenFactory.sol\":628:732  function getDeployedTokens() public view returns (Token[] memory) {... */\n      swap1\n      jump\t// out\n        /* \"contract/TokenFactory.sol\":159:188  Token[] public deployedTokens */\n    tag_17:\n      0x00\n      dup2\n      dup2\n      sload\n      dup2\n      lt\n      tag_32\n      jumpi\n      0x00\n      dup1\n      revert\n    tag_32:\n      swap1\n      0x00\n      mstore\n      keccak256(0x00, 0x20)\n      add\n      0x00\n      swap2\n      pop\n      sload\n      swap1\n      0x0100\n      exp\n      swap1\n      div\n      0xffffffffffffffffffffffffffffffffffffffff\n      and\n      dup2\n      jump\t// out\n    tag_22:\n      dataSize(sub_0)\n      dup1\n      dataOffset(sub_0)\n      dup4\n      codecopy\n      add\n      swap1\n      jump\t// out\n        /* \"#utility.yul\":7:82   */\n    tag_34:\n        /* \"#utility.yul\":40:46   */\n      0x00\n        /* \"#utility.yul\":73:75   */\n      0x40\n        /* \"#utility.yul\":67:76   */\n      mload\n        /* \"#utility.yul\":57:76   */\n      swap1\n      pop\n        /* \"#utility.yul\":7:82   */\n      swap1\n      jump\t// out\n        /* \"#utility.yul\":88:205   */\n    tag_35:\n        /* \"#utility.yul\":197:198   */\n      0x00\n        /* \"#utility.yul\":194:195   */\n      dup1\n        /* \"#utility.yul\":187:199   */\n      revert\n        /* \"#utility.yul\":211:328   */\n    tag_36:\n        /* \"#utility.yul\":320:321   */\n      0x00\n        /* \"#utility.yul\":317:318   */\n      dup1\n        /* \"#utility.yul\":310:322   */\n      revert\n        /* \"#utility.yul\":334:451   */\n    tag_37:\n        /* \"#utility.yul\":443:444   */\n      0x00\n        /* \"#utility.yul\":440:441   */\n      dup1\n        /* \"#utility.yul\":433:445   */\n      revert\n        /* \"#utility.yul\":457:574   */\n    tag_38:\n        /* \"#utility.yul\":566:567   */\n      0x00\n        /* \"#utility.yul\":563:564   */\n      dup1\n        /* \"#utility.yul\":556:568   */\n      revert\n        /* \"#utility.yul\":580:682   */\n    tag_39:\n        /* \"#utility.yul\":621:627   */\n      0x00\n        /* \"#utility.yul\":672:674   */\n      0x1f\n        /* \"#utility.yul\":668:675   */\n      not\n        /* \"#utility.yul\":663:665   */\n      0x1f\n        /* \"#utility.yul\":656:661   */\n      dup4\n        /* \"#utility.yul\":652:666   */\n      add\n        /* \"#utility.yul\":648:676   */\n      and\n        /* \"#utility.yul\":638:676   */\n      swap1\n      pop\n        /* \"#utility.yul\":580:682   */\n      swap2\n      swap1\n      pop\n      jump\t// out\n        /* \"#utility.yul\":688:868   */\n    tag_40:\n        /* \"#utility.yul\":736:813   */\n      0x4e487b7100000000000000000000000000000000000000000000000000000000\n        /* \"#utility.yul\":733:734   */\n      0x00\n        /* \"#utility.yul\":726:814   */\n      mstore\n        /* \"#utility.yul\":833:837   */\n      0x41\n        /* \"#utility.yul\":830:831   */\n      0x04\n        /* \"#utility.yul\":823:838   */\n      mstore\n        /* \"#utility.yul\":857:861   */\n      0x24\n        /* \"#utility.yul\":854:855   */\n      0x00\n        /* \"#utility.yul\":847:862   */\n      revert\n        /* \"#utility.yul\":874:1155   */\n    tag_41:\n        /* \"#utility.yul\":957:984   */\n      tag_79\n        /* \"#utility.yul\":979:983   */\n      dup3\n        /* \"#utility.yul\":957:984   */\n      tag_39\n      jump\t// in\n    tag_79:\n        /* \"#utility.yul\":949:955   */\n      dup2\n        /* \"#utility.yul\":945:985   */\n      add\n        /* \"#utility.yul\":1087:1093   */\n      dup2\n        /* \"#utility.yul\":1075:1085   */\n      dup2\n        /* \"#utility.yul\":1072:1094   */\n      lt\n        /* \"#utility.yul\":1051:1069   */\n      0xffffffffffffffff\n        /* \"#utility.yul\":1039:1049   */\n      dup3\n        /* \"#utility.yul\":1036:1070   */\n      gt\n        /* \"#utility.yul\":1033:1095   */\n      or\n        /* \"#utility.yul\":1030:1118   */\n      iszero\n      tag_80\n      jumpi\n        /* \"#utility.yul\":1098:1116   */\n      tag_81\n      tag_40\n      jump\t// in\n    tag_81:\n        /* \"#utility.yul\":1030:1118   */\n    tag_80:\n        /* \"#utility.yul\":1138:1148   */\n      dup1\n        /* \"#utility.yul\":1134:1136   */\n      0x40\n        /* \"#utility.yul\":1127:1149   */\n      mstore\n        /* \"#utility.yul\":917:1155   */\n      pop\n        /* \"#utility.yul\":874:1155   */\n      pop\n      pop\n      jump\t// out\n        /* \"#utility.yul\":1161:1290   */\n    tag_42:\n        /* \"#utility.yul\":1195:1201   */\n      0x00\n        /* \"#utility.yul\":1222:1242   */\n      tag_83\n      tag_34\n      jump\t// in\n    tag_83:\n        /* \"#utility.yul\":1212:1242   */\n      swap1\n      pop\n        /* \"#utility.yul\":1251:1284   */\n      tag_84\n        /* \"#utility.yul\":1279:1283   */\n      dup3\n        /* \"#utility.yul\":1271:1277   */\n      dup3\n        /* \"#utility.yul\":1251:1284   */\n      tag_41\n      jump\t// in\n    tag_84:\n        /* \"#utility.yul\":1161:1290   */\n      swap2\n      swap1\n      pop\n      jump\t// out\n        /* \"#utility.yul\":1296:1604   */\n    tag_43:\n        /* \"#utility.yul\":1358:1362   */\n      0x00\n        /* \"#utility.yul\":1448:1466   */\n      0xffffffffffffffff\n        /* \"#utility.yul\":1440:1446   */\n      dup3\n        /* \"#utility.yul\":1437:1467   */\n      gt\n        /* \"#utility.yul\":1434:1490   */\n      iszero\n      tag_86\n      jumpi\n        /* \"#utility.yul\":1470:1488   */\n      tag_87\n      tag_40\n      jump\t// in\n    tag_87:\n        /* \"#utility.yul\":1434:1490   */\n    tag_86:\n        /* \"#utility.yul\":1508:1537   */\n      tag_88\n        /* \"#utility.yul\":1530:1536   */\n      dup3\n        /* \"#utility.yul\":1508:1537   */\n      tag_39\n      jump\t// in\n    tag_88:\n        /* \"#utility.yul\":1500:1537   */\n      swap1\n      pop\n        /* \"#utility.yul\":1592:1596   */\n      0x20\n        /* \"#utility.yul\":1586:1590   */\n      dup2\n        /* \"#utility.yul\":1582:1597   */\n      add\n        /* \"#utility.yul\":1574:1597   */\n      swap1\n      pop\n        /* \"#utility.yul\":1296:1604   */\n      swap2\n      swap1\n      pop\n      jump\t// out\n        /* \"#utility.yul\":1610:1756   */\n    tag_44:\n        /* \"#utility.yul\":1707:1713   */\n      dup3\n        /* \"#utility.yul\":1702:1705   */\n      dup2\n        /* \"#utility.yul\":1697:1700   */\n      dup4\n        /* \"#utility.yul\":1684:1714   */\n      calldatacopy\n        /* \"#utility.yul\":1748:1749   */\n      0x00\n        /* \"#utility.yul\":1739:1745   */\n      dup4\n        /* \"#utility.yul\":1734:1737   */\n      dup4\n        /* \"#utility.yul\":1730:1746   */\n      add\n        /* \"#utility.yul\":1723:1750   */\n      mstore\n        /* \"#utility.yul\":1610:1756   */\n      pop\n      pop\n      pop\n      jump\t// out\n        /* \"#utility.yul\":1762:2187   */\n    tag_45:\n        /* \"#utility.yul\":1840:1845   */\n      0x00\n        /* \"#utility.yul\":1865:1931   */\n      tag_91\n        /* \"#utility.yul\":1881:1930   */\n      tag_92\n        /* \"#utility.yul\":1923:1929   */\n      dup5\n        /* \"#utility.yul\":1881:1930   */\n      tag_43\n      jump\t// in\n    tag_92:\n        /* \"#utility.yul\":1865:1931   */\n      tag_42\n      jump\t// in\n    tag_91:\n        /* \"#utility.yul\":1856:1931   */\n      swap1\n      pop\n        /* \"#utility.yul\":1954:1960   */\n      dup3\n        /* \"#utility.yul\":1947:1952   */\n      dup2\n        /* \"#utility.yul\":1940:1961   */\n      mstore\n        /* \"#utility.yul\":1992:1996   */\n      0x20\n        /* \"#utility.yul\":1985:1990   */\n      dup2\n        /* \"#utility.yul\":1981:1997   */\n      add\n        /* \"#utility.yul\":2030:2033   */\n      dup5\n        /* \"#utility.yul\":2021:2027   */\n      dup5\n        /* \"#utility.yul\":2016:2019   */\n      dup5\n        /* \"#utility.yul\":2012:2028   */\n      add\n        /* \"#utility.yul\":2009:2034   */\n      gt\n        /* \"#utility.yul\":2006:2118   */\n      iszero\n      tag_93\n      jumpi\n        /* \"#utility.yul\":2037:2116   */\n      tag_94\n      tag_38\n      jump\t// in\n    tag_94:\n        /* \"#utility.yul\":2006:2118   */\n    tag_93:\n        /* \"#utility.yul\":2127:2181   */\n      tag_95\n        /* \"#utility.yul\":2174:2180   */\n      dup5\n        /* \"#utility.yul\":2169:2172   */\n      dup3\n        /* \"#utility.yul\":2164:2167   */\n      dup6\n        /* \"#utility.yul\":2127:2181   */\n      tag_44\n      jump\t// in\n    tag_95:\n        /* \"#utility.yul\":1846:2187   */\n      pop\n        /* \"#utility.yul\":1762:2187   */\n      swap4\n      swap3\n      pop\n      pop\n      pop\n      jump\t// out\n        /* \"#utility.yul\":2207:2547   */\n    tag_46:\n        /* \"#utility.yul\":2263:2268   */\n      0x00\n        /* \"#utility.yul\":2312:2315   */\n      dup3\n        /* \"#utility.yul\":2305:2309   */\n      0x1f\n        /* \"#utility.yul\":2297:2303   */\n      dup4\n        /* \"#utility.yul\":2293:2310   */\n      add\n        /* \"#utility.yul\":2289:2316   */\n      slt\n        /* \"#utility.yul\":2279:2401   */\n      tag_97\n      jumpi\n        /* \"#utility.yul\":2320:2399   */\n      tag_98\n      tag_37\n      jump\t// in\n    tag_98:\n        /* \"#utility.yul\":2279:2401   */\n    tag_97:\n        /* \"#utility.yul\":2437:2443   */\n      dup2\n        /* \"#utility.yul\":2424:2444   */\n      calldataload\n        /* \"#utility.yul\":2462:2541   */\n      tag_99\n        /* \"#utility.yul\":2537:2540   */\n      dup5\n        /* \"#utility.yul\":2529:2535   */\n      dup3\n        /* \"#utility.yul\":2522:2526   */\n      0x20\n        /* \"#utility.yul\":2514:2520   */\n      dup7\n        /* \"#utility.yul\":2510:2527   */\n      add\n        /* \"#utility.yul\":2462:2541   */\n      tag_45\n      jump\t// in\n    tag_99:\n        /* \"#utility.yul\":2453:2541   */\n      swap2\n      pop\n        /* \"#utility.yul\":2269:2547   */\n      pop\n        /* \"#utility.yul\":2207:2547   */\n      swap3\n      swap2\n      pop\n      pop\n      jump\t// out\n        /* \"#utility.yul\":2553:2630   */\n    tag_47:\n        /* \"#utility.yul\":2590:2597   */\n      0x00\n        /* \"#utility.yul\":2619:2624   */\n      dup2\n        /* \"#utility.yul\":2608:2624   */\n      swap1\n      pop\n        /* \"#utility.yul\":2553:2630   */\n      swap2\n      swap1\n      pop\n      jump\t// out\n        /* \"#utility.yul\":2636:2758   */\n    tag_48:\n        /* \"#utility.yul\":2709:2733   */\n      tag_102\n        /* \"#utility.yul\":2727:2732   */\n      dup2\n        /* \"#utility.yul\":2709:2733   */\n      tag_47\n      jump\t// in\n    tag_102:\n        /* \"#utility.yul\":2702:2707   */\n      dup2\n        /* \"#utility.yul\":2699:2734   */\n      eq\n        /* \"#utility.yul\":2689:2752   */\n      tag_103\n      jumpi\n        /* \"#utility.yul\":2748:2749   */\n      0x00\n        /* \"#utility.yul\":2745:2746   */\n      dup1\n        /* \"#utility.yul\":2738:2750   */\n      revert\n        /* \"#utility.yul\":2689:2752   */\n    tag_103:\n        /* \"#utility.yul\":2636:2758   */\n      pop\n      jump\t// out\n        /* \"#utility.yul\":2764:2903   */\n    tag_49:\n        /* \"#utility.yul\":2810:2815   */\n      0x00\n        /* \"#utility.yul\":2848:2854   */\n      dup2\n        /* \"#utility.yul\":2835:2855   */\n      calldataload\n        /* \"#utility.yul\":2826:2855   */\n      swap1\n      pop\n        /* \"#utility.yul\":2864:2897   */\n      tag_105\n        /* \"#utility.yul\":2891:2896   */\n      dup2\n        /* \"#utility.yul\":2864:2897   */\n      tag_48\n      jump\t// in\n    tag_105:\n        /* \"#utility.yul\":2764:2903   */\n      swap3\n      swap2\n      pop\n      pop\n      jump\t// out\n        /* \"#utility.yul\":2909:3888   */\n    tag_8:\n        /* \"#utility.yul\":3006:3012   */\n      0x00\n        /* \"#utility.yul\":3014:3020   */\n      dup1\n        /* \"#utility.yul\":3022:3028   */\n      0x00\n        /* \"#utility.yul\":3071:3073   */\n      0x60\n        /* \"#utility.yul\":3059:3068   */\n      dup5\n        /* \"#utility.yul\":3050:3057   */\n      dup7\n        /* \"#utility.yul\":3046:3069   */\n      sub\n        /* \"#utility.yul\":3042:3074   */\n      slt\n        /* \"#utility.yul\":3039:3158   */\n      iszero\n      tag_107\n      jumpi\n        /* \"#utility.yul\":3077:3156   */\n      tag_108\n      tag_35\n      jump\t// in\n    tag_108:\n        /* \"#utility.yul\":3039:3158   */\n    tag_107:\n        /* \"#utility.yul\":3225:3226   */\n      0x00\n        /* \"#utility.yul\":3214:3223   */\n      dup5\n        /* \"#utility.yul\":3210:3227   */\n      add\n        /* \"#utility.yul\":3197:3228   */\n      calldataload\n        /* \"#utility.yul\":3255:3273   */\n      0xffffffffffffffff\n        /* \"#utility.yul\":3247:3253   */\n      dup2\n        /* \"#utility.yul\":3244:3274   */\n      gt\n        /* \"#utility.yul\":3241:3358   */\n      iszero\n      tag_109\n      jumpi\n        /* \"#utility.yul\":3277:3356   */\n      tag_110\n      tag_36\n      jump\t// in\n    tag_110:\n        /* \"#utility.yul\":3241:3358   */\n    tag_109:\n        /* \"#utility.yul\":3382:3445   */\n      tag_111\n        /* \"#utility.yul\":3437:3444   */\n      dup7\n        /* \"#utility.yul\":3428:3434   */\n      dup3\n        /* \"#utility.yul\":3417:3426   */\n      dup8\n        /* \"#utility.yul\":3413:3435   */\n      add\n        /* \"#utility.yul\":3382:3445   */\n      tag_46\n      jump\t// in\n    tag_111:\n        /* \"#utility.yul\":3372:3445   */\n      swap4\n      pop\n        /* \"#utility.yul\":3168:3455   */\n      pop\n        /* \"#utility.yul\":3522:3524   */\n      0x20\n        /* \"#utility.yul\":3511:3520   */\n      dup5\n        /* \"#utility.yul\":3507:3525   */\n      add\n        /* \"#utility.yul\":3494:3526   */\n      calldataload\n        /* \"#utility.yul\":3553:3571   */\n      0xffffffffffffffff\n        /* \"#utility.yul\":3545:3551   */\n      dup2\n        /* \"#utility.yul\":3542:3572   */\n      gt\n        /* \"#utility.yul\":3539:3656   */\n      iszero\n      tag_112\n      jumpi\n        /* \"#utility.yul\":3575:3654   */\n      tag_113\n      tag_36\n      jump\t// in\n    tag_113:\n        /* \"#utility.yul\":3539:3656   */\n    tag_112:\n        /* \"#utility.yul\":3680:3743   */\n      tag_114\n        /* \"#utility.yul\":3735:3742   */\n      dup7\n        /* \"#utility.yul\":3726:3732   */\n      dup3\n        /* \"#utility.yul\":3715:3724   */\n      dup8\n        /* \"#utility.yul\":3711:3733   */\n      add\n        /* \"#utility.yul\":3680:3743   */\n      tag_46\n      jump\t// in\n    tag_114:\n        /* \"#utility.yul\":3670:3743   */\n      swap3\n      pop\n        /* \"#utility.yul\":3465:3753   */\n      pop\n        /* \"#utility.yul\":3792:3794   */\n      0x40\n        /* \"#utility.yul\":3818:3871   */\n      tag_115\n        /* \"#utility.yul\":3863:3870   */\n      dup7\n        /* \"#utility.yul\":3854:3860   */\n      dup3\n        /* \"#utility.yul\":3843:3852   */\n      dup8\n        /* \"#utility.yul\":3839:3861   */\n      add\n        /* \"#utility.yul\":3818:3871   */\n      tag_49\n      jump\t// in\n    tag_115:\n        /* \"#utility.yul\":3808:3871   */\n      swap2\n      pop\n        /* \"#utility.yul\":3763:3881   */\n      pop\n        /* \"#utility.yul\":2909:3888   */\n      swap3\n      pop\n      swap3\n      pop\n      swap3\n      jump\t// out\n        /* \"#utility.yul\":3894:4021   */\n    tag_50:\n        /* \"#utility.yul\":3974:3980   */\n      0x00\n        /* \"#utility.yul\":4008:4013   */\n      dup2\n        /* \"#utility.yul\":4002:4014   */\n      mload\n        /* \"#utility.yul\":3992:4014   */\n      swap1\n      pop\n        /* \"#utility.yul\":3894:4021   */\n      swap2\n      swap1\n      pop\n      jump\t// out\n        /* \"#utility.yul\":4027:4211   */\n    tag_51:\n        /* \"#utility.yul\":4126:4137   */\n      0x00\n        /* \"#utility.yul\":4160:4166   */\n      dup3\n        /* \"#utility.yul\":4155:4158   */\n      dup3\n        /* \"#utility.yul\":4148:4167   */\n      mstore\n        /* \"#utility.yul\":4200:4204   */\n      0x20\n        /* \"#utility.yul\":4195:4198   */\n      dup3\n        /* \"#utility.yul\":4191:4205   */\n      add\n        /* \"#utility.yul\":4176:4205   */\n      swap1\n      pop\n        /* \"#utility.yul\":4027:4211   */\n      swap3\n      swap2\n      pop\n      pop\n      jump\t// out\n        /* \"#utility.yul\":4217:4362   */\n    tag_52:\n        /* \"#utility.yul\":4297:4301   */\n      0x00\n        /* \"#utility.yul\":4320:4323   */\n      dup2\n        /* \"#utility.yul\":4312:4323   */\n      swap1\n      pop\n        /* \"#utility.yul\":4350:4354   */\n      0x20\n        /* \"#utility.yul\":4345:4348   */\n      dup3\n        /* \"#utility.yul\":4341:4355   */\n      add\n        /* \"#utility.yul\":4333:4355   */\n      swap1\n      pop\n        /* \"#utility.yul\":4217:4362   */\n      swap2\n      swap1\n      pop\n      jump\t// out\n        /* \"#utility.yul\":4368:4494   */\n    tag_53:\n        /* \"#utility.yul\":4405:4412   */\n      0x00\n        /* \"#utility.yul\":4445:4487   */\n      0xffffffffffffffffffffffffffffffffffffffff\n        /* \"#utility.yul\":4438:4443   */\n      dup3\n        /* \"#utility.yul\":4434:4488   */\n      and\n        /* \"#utility.yul\":4423:4488   */\n      swap1\n      pop\n        /* \"#utility.yul\":4368:4494   */\n      swap2\n      swap1\n      pop\n      jump\t// out\n        /* \"#utility.yul\":4500:4560   */\n    tag_54:\n        /* \"#utility.yul\":4528:4531   */\n      0x00\n        /* \"#utility.yul\":4549:4554   */\n      dup2\n        /* \"#utility.yul\":4542:4554   */\n      swap1\n      pop\n        /* \"#utility.yul\":4500:4560   */\n      swap2\n      swap1\n      pop\n      jump\t// out\n        /* \"#utility.yul\":4566:4708   */\n    tag_55:\n        /* \"#utility.yul\":4616:4625   */\n      0x00\n        /* \"#utility.yul\":4649:4702   */\n      tag_122\n        /* \"#utility.yul\":4667:4701   */\n      tag_123\n        /* \"#utility.yul\":4676:4700   */\n      tag_124\n        /* \"#utility.yul\":4694:4699   */\n      dup5\n        /* \"#utility.yul\":4676:4700   */\n      tag_53\n      jump\t// in\n    tag_124:\n        /* \"#utility.yul\":4667:4701   */\n      tag_54\n      jump\t// in\n    tag_123:\n        /* \"#utility.yul\":4649:4702   */\n      tag_53\n      jump\t// in\n    tag_122:\n        /* \"#utility.yul\":4636:4702   */\n      swap1\n      pop\n        /* \"#utility.yul\":4566:4708   */\n      swap2\n      swap1\n      pop\n      jump\t// out\n        /* \"#utility.yul\":4714:4840   */\n    tag_56:\n        /* \"#utility.yul\":4764:4773   */\n      0x00\n        /* \"#utility.yul\":4797:4834   */\n      tag_126\n        /* \"#utility.yul\":4828:4833   */\n      dup3\n        /* \"#utility.yul\":4797:4834   */\n      tag_55\n      jump\t// in\n    tag_126:\n        /* \"#utility.yul\":4784:4834   */\n      swap1\n      pop\n        /* \"#utility.yul\":4714:4840   */\n      swap2\n      swap1\n      pop\n      jump\t// out\n        /* \"#utility.yul\":4846:4985   */\n    tag_57:\n        /* \"#utility.yul\":4909:4918   */\n      0x00\n        /* \"#utility.yul\":4942:4979   */\n      tag_128\n        /* \"#utility.yul\":4973:4978   */\n      dup3\n        /* \"#utility.yul\":4942:4979   */\n      tag_56\n      jump\t// in\n    tag_128:\n        /* \"#utility.yul\":4929:4979   */\n      swap1\n      pop\n        /* \"#utility.yul\":4846:4985   */\n      swap2\n      swap1\n      pop\n      jump\t// out\n        /* \"#utility.yul\":4991:5138   */\n    tag_58:\n        /* \"#utility.yul\":5081:5131   */\n      tag_130\n        /* \"#utility.yul\":5125:5130   */\n      dup2\n        /* \"#utility.yul\":5081:5131   */\n      tag_57\n      jump\t// in\n    tag_130:\n        /* \"#utility.yul\":5076:5079   */\n      dup3\n        /* \"#utility.yul\":5069:5132   */\n      mstore\n        /* \"#utility.yul\":4991:5138   */\n      pop\n      pop\n      jump\t// out\n        /* \"#utility.yul\":5144:5349   */\n    tag_59:\n        /* \"#utility.yul\":5226:5236   */\n      0x00\n        /* \"#utility.yul\":5247:5306   */\n      tag_132\n        /* \"#utility.yul\":5302:5305   */\n      dup4\n        /* \"#utility.yul\":5294:5300   */\n      dup4\n        /* \"#utility.yul\":5247:5306   */\n      tag_58\n      jump\t// in\n    tag_132:\n        /* \"#utility.yul\":5338:5342   */\n      0x20\n        /* \"#utility.yul\":5333:5336   */\n      dup4\n        /* \"#utility.yul\":5329:5343   */\n      add\n        /* \"#utility.yul\":5315:5343   */\n      swap1\n      pop\n        /* \"#utility.yul\":5144:5349   */\n      swap3\n      swap2\n      pop\n      pop\n      jump\t// out\n        /* \"#utility.yul\":5355:5481   */\n    tag_60:\n        /* \"#utility.yul\":5438:5442   */\n      0x00\n        /* \"#utility.yul\":5470:5474   */\n      0x20\n        /* \"#utility.yul\":5465:5468   */\n      dup3\n        /* \"#utility.yul\":5461:5475   */\n      add\n        /* \"#utility.yul\":5453:5475   */\n      swap1\n      pop\n        /* \"#utility.yul\":5355:5481   */\n      swap2\n      swap1\n      pop\n      jump\t// out\n        /* \"#utility.yul\":5524:6321   */\n    tag_61:\n        /* \"#utility.yul\":5656:5659   */\n      0x00\n        /* \"#utility.yul\":5685:5752   */\n      tag_135\n        /* \"#utility.yul\":5746:5751   */\n      dup3\n        /* \"#utility.yul\":5685:5752   */\n      tag_50\n      jump\t// in\n    tag_135:\n        /* \"#utility.yul\":5768:5854   */\n      tag_136\n        /* \"#utility.yul\":5847:5853   */\n      dup2\n        /* \"#utility.yul\":5842:5845   */\n      dup6\n        /* \"#utility.yul\":5768:5854   */\n      tag_51\n      jump\t// in\n    tag_136:\n        /* \"#utility.yul\":5761:5854   */\n      swap4\n      pop\n        /* \"#utility.yul\":5878:5947   */\n      tag_137\n        /* \"#utility.yul\":5941:5946   */\n      dup4\n        /* \"#utility.yul\":5878:5947   */\n      tag_52\n      jump\t// in\n    tag_137:\n        /* \"#utility.yul\":5970:5977   */\n      dup1\n        /* \"#utility.yul\":6001:6002   */\n      0x00\n        /* \"#utility.yul\":5986:6296   */\n    tag_138:\n        /* \"#utility.yul\":6011:6017   */\n      dup4\n        /* \"#utility.yul\":6008:6009   */\n      dup2\n        /* \"#utility.yul\":6005:6018   */\n      lt\n        /* \"#utility.yul\":5986:6296   */\n      iszero\n      tag_140\n      jumpi\n        /* \"#utility.yul\":6087:6093   */\n      dup2\n        /* \"#utility.yul\":6081:6094   */\n      mload\n        /* \"#utility.yul\":6114:6190   */\n      tag_141\n        /* \"#utility.yul\":6186:6189   */\n      dup9\n        /* \"#utility.yul\":6171:6184   */\n      dup3\n        /* \"#utility.yul\":6114:6190   */\n      tag_59\n      jump\t// in\n    tag_141:\n        /* \"#utility.yul\":6107:6190   */\n      swap8\n      pop\n        /* \"#utility.yul\":6213:6286   */\n      tag_142\n        /* \"#utility.yul\":6279:6285   */\n      dup4\n        /* \"#utility.yul\":6213:6286   */\n      tag_60\n      jump\t// in\n    tag_142:\n        /* \"#utility.yul\":6203:6286   */\n      swap3\n      pop\n        /* \"#utility.yul\":6046:6296   */\n      pop\n        /* \"#utility.yul\":6033:6034   */\n      0x01\n        /* \"#utility.yul\":6030:6031   */\n      dup2\n        /* \"#utility.yul\":6026:6035   */\n      add\n        /* \"#utility.yul\":6021:6035   */\n      swap1\n      pop\n        /* \"#utility.yul\":5986:6296   */\n      jump(tag_138)\n    tag_140:\n        /* \"#utility.yul\":5990:6004   */\n      pop\n        /* \"#utility.yul\":6312:6315   */\n      dup6\n        /* \"#utility.yul\":6305:6315   */\n      swap4\n      pop\n        /* \"#utility.yul\":5661:6321   */\n      pop\n      pop\n      pop\n        /* \"#utility.yul\":5524:6321   */\n      swap3\n      swap2\n      pop\n      pop\n      jump\t// out\n        /* \"#utility.yul\":6327:6726   */\n    tag_13:\n        /* \"#utility.yul\":6483:6487   */\n      0x00\n        /* \"#utility.yul\":6521:6523   */\n      0x20\n        /* \"#utility.yul\":6510:6519   */\n      dup3\n        /* \"#utility.yul\":6506:6524   */\n      add\n        /* \"#utility.yul\":6498:6524   */\n      swap1\n      pop\n        /* \"#utility.yul\":6570:6579   */\n      dup2\n        /* \"#utility.yul\":6564:6568   */\n      dup2\n        /* \"#utility.yul\":6560:6580   */\n      sub\n        /* \"#utility.yul\":6556:6557   */\n      0x00\n        /* \"#utility.yul\":6545:6554   */\n      dup4\n        /* \"#utility.yul\":6541:6558   */\n      add\n        /* \"#utility.yul\":6534:6581   */\n      mstore\n        /* \"#utility.yul\":6598:6719   */\n      tag_144\n        /* \"#utility.yul\":6714:6718   */\n      dup2\n        /* \"#utility.yul\":6705:6711   */\n      dup5\n        /* \"#utility.yul\":6598:6719   */\n      tag_61\n      jump\t// in\n    tag_144:\n        /* \"#utility.yul\":6590:6719   */\n      swap1\n      pop\n        /* \"#utility.yul\":6327:6726   */\n      swap3\n      swap2\n      pop\n      pop\n      jump\t// out\n        /* \"#utility.yul\":6732:7061   */\n    tag_16:\n        /* \"#utility.yul\":6791:6797   */\n      0x00\n        /* \"#utility.yul\":6840:6842   */\n      0x20\n        /* \"#utility.yul\":6828:6837   */\n      dup3\n        /* \"#utility.yul\":6819:6826   */\n      dup5\n        /* \"#utility.yul\":6815:6838   */\n      sub\n        /* \"#utility.yul\":6811:6843   */\n      slt\n        /* \"#utility.yul\":6808:6927   */\n      iszero\n      tag_146\n      jumpi\n        /* \"#utility.yul\":6846:6925   */\n      tag_147\n      tag_35\n      jump\t// in\n    tag_147:\n        /* \"#utility.yul\":6808:6927   */\n    tag_146:\n        /* \"#utility.yul\":6966:6967   */\n      0x00\n        /* \"#utility.yul\":6991:7044   */\n      tag_148\n        /* \"#utility.yul\":7036:7043   */\n      dup5\n        /* \"#utility.yul\":7027:7033   */\n      dup3\n        /* \"#utility.yul\":7016:7025   */\n      dup6\n        /* \"#utility.yul\":7012:7034   */\n      add\n        /* \"#utility.yul\":6991:7044   */\n      tag_49\n      jump\t// in\n    tag_148:\n        /* \"#utility.yul\":6981:7044   */\n      swap2\n      pop\n        /* \"#utility.yul\":6937:7054   */\n      pop\n        /* \"#utility.yul\":6732:7061   */\n      swap3\n      swap2\n      pop\n      pop\n      jump\t// out\n        /* \"#utility.yul\":7067:7224   */\n    tag_62:\n        /* \"#utility.yul\":7167:7217   */\n      tag_150\n        /* \"#utility.yul\":7211:7216   */\n      dup2\n        /* \"#utility.yul\":7167:7217   */\n      tag_57\n      jump\t// in\n    tag_150:\n        /* \"#utility.yul\":7162:7165   */\n      dup3\n        /* \"#utility.yul\":7155:7218   */\n      mstore\n        /* \"#utility.yul\":7067:7224   */\n      pop\n      pop\n      jump\t// out\n        /* \"#utility.yul\":7230:7478   */\n    tag_19:\n        /* \"#utility.yul\":7336:7340   */\n      0x00\n        /* \"#utility.yul\":7374:7376   */\n      0x20\n        /* \"#utility.yul\":7363:7372   */\n      dup3\n        /* \"#utility.yul\":7359:7377   */\n      add\n        /* \"#utility.yul\":7351:7377   */\n      swap1\n      pop\n        /* \"#utility.yul\":7387:7471   */\n      tag_152\n        /* \"#utility.yul\":7468:7469   */\n      0x00\n        /* \"#utility.yul\":7457:7466   */\n      dup4\n        /* \"#utility.yul\":7453:7470   */\n      add\n        /* \"#utility.yul\":7444:7450   */\n      dup5\n        /* \"#utility.yul\":7387:7471   */\n      tag_62\n      jump\t// in\n    tag_152:\n        /* \"#utility.yul\":7230:7478   */\n      swap3\n      swap2\n      pop\n      pop\n      jump\t// out\n        /* \"#utility.yul\":7484:7583   */\n    tag_63:\n        /* \"#utility.yul\":7536:7542   */\n      0x00\n        /* \"#utility.yul\":7570:7575   */\n      dup2\n        /* \"#utility.yul\":7564:7576   */\n      mload\n        /* \"#utility.yul\":7554:7576   */\n      swap1\n      pop\n        /* \"#utility.yul\":7484:7583   */\n      swap2\n      swap1\n      pop\n      jump\t// out\n        /* \"#utility.yul\":7589:7758   */\n    tag_64:\n        /* \"#utility.yul\":7673:7684   */\n      0x00\n        /* \"#utility.yul\":7707:7713   */\n      dup3\n        /* \"#utility.yul\":7702:7705   */\n      dup3\n        /* \"#utility.yul\":7695:7714   */\n      mstore\n        /* \"#utility.yul\":7747:7751   */\n      0x20\n        /* \"#utility.yul\":7742:7745   */\n      dup3\n        /* \"#utility.yul\":7738:7752   */\n      add\n        /* \"#utility.yul\":7723:7752   */\n      swap1\n      pop\n        /* \"#utility.yul\":7589:7758   */\n      swap3\n      swap2\n      pop\n      pop\n      jump\t// out\n        /* \"#utility.yul\":7764:8010   */\n    tag_65:\n        /* \"#utility.yul\":7845:7846   */\n      0x00\n        /* \"#utility.yul\":7855:7968   */\n    tag_156:\n        /* \"#utility.yul\":7869:7875   */\n      dup4\n        /* \"#utility.yul\":7866:7867   */\n      dup2\n        /* \"#utility.yul\":7863:7876   */\n      lt\n        /* \"#utility.yul\":7855:7968   */\n      iszero\n      tag_158\n      jumpi\n        /* \"#utility.yul\":7954:7955   */\n      dup1\n        /* \"#utility.yul\":7949:7952   */\n      dup3\n        /* \"#utility.yul\":7945:7956   */\n      add\n        /* \"#utility.yul\":7939:7957   */\n      mload\n        /* \"#utility.yul\":7935:7936   */\n      dup2\n        /* \"#utility.yul\":7930:7933   */\n      dup5\n        /* \"#utility.yul\":7926:7937   */\n      add\n        /* \"#utility.yul\":7919:7958   */\n      mstore\n        /* \"#utility.yul\":7891:7893   */\n      0x20\n        /* \"#utility.yul\":7888:7889   */\n      dup2\n        /* \"#utility.yul\":7884:7894   */\n      add\n        /* \"#utility.yul\":7879:7894   */\n      swap1\n      pop\n        /* \"#utility.yul\":7855:7968   */\n      jump(tag_156)\n    tag_158:\n        /* \"#utility.yul\":8002:8003   */\n      0x00\n        /* \"#utility.yul\":7993:7999   */\n      dup5\n        /* \"#utility.yul\":7988:7991   */\n      dup5\n        /* \"#utility.yul\":7984:8000   */\n      add\n        /* \"#utility.yul\":7977:8004   */\n      mstore\n        /* \"#utility.yul\":7826:8010   */\n      pop\n        /* \"#utility.yul\":7764:8010   */\n      pop\n      pop\n      pop\n      jump\t// out\n        /* \"#utility.yul\":8016:8393   */\n    tag_66:\n        /* \"#utility.yul\":8104:8107   */\n      0x00\n        /* \"#utility.yul\":8132:8171   */\n      tag_160\n        /* \"#utility.yul\":8165:8170   */\n      dup3\n        /* \"#utility.yul\":8132:8171   */\n      tag_63\n      jump\t// in\n    tag_160:\n        /* \"#utility.yul\":8187:8258   */\n      tag_161\n        /* \"#utility.yul\":8251:8257   */\n      dup2\n        /* \"#utility.yul\":8246:8249   */\n      dup6\n        /* \"#utility.yul\":8187:8258   */\n      tag_64\n      jump\t// in\n    tag_161:\n        /* \"#utility.yul\":8180:8258   */\n      swap4\n      pop\n        /* \"#utility.yul\":8267:8332   */\n      tag_162\n        /* \"#utility.yul\":8325:8331   */\n      dup2\n        /* \"#utility.yul\":8320:8323   */\n      dup6\n        /* \"#utility.yul\":8313:8317   */\n      0x20\n        /* \"#utility.yul\":8306:8311   */\n      dup7\n        /* \"#utility.yul\":8302:8318   */\n      add\n        /* \"#utility.yul\":8267:8332   */\n      tag_65\n      jump\t// in\n    tag_162:\n        /* \"#utility.yul\":8357:8386   */\n      tag_163\n        /* \"#utility.yul\":8379:8385   */\n      dup2\n        /* \"#utility.yul\":8357:8386   */\n      tag_39\n      jump\t// in\n    tag_163:\n        /* \"#utility.yul\":8352:8355   */\n      dup5\n        /* \"#utility.yul\":8348:8387   */\n      add\n        /* \"#utility.yul\":8341:8387   */\n      swap2\n      pop\n        /* \"#utility.yul\":8108:8393   */\n      pop\n        /* \"#utility.yul\":8016:8393   */\n      swap3\n      swap2\n      pop\n      pop\n      jump\t// out\n        /* \"#utility.yul\":8399:8517   */\n    tag_67:\n        /* \"#utility.yul\":8486:8510   */\n      tag_165\n        /* \"#utility.yul\":8504:8509   */\n      dup2\n        /* \"#utility.yul\":8486:8510   */\n      tag_47\n      jump\t// in\n    tag_165:\n        /* \"#utility.yul\":8481:8484   */\n      dup3\n        /* \"#utility.yul\":8474:8511   */\n      mstore\n        /* \"#utility.yul\":8399:8517   */\n      pop\n      pop\n      jump\t// out\n        /* \"#utility.yul\":8523:9147   */\n    tag_24:\n        /* \"#utility.yul\":8712:8716   */\n      0x00\n        /* \"#utility.yul\":8750:8752   */\n      0x60\n        /* \"#utility.yul\":8739:8748   */\n      dup3\n        /* \"#utility.yul\":8735:8753   */\n      add\n        /* \"#utility.yul\":8727:8753   */\n      swap1\n      pop\n        /* \"#utility.yul\":8799:8808   */\n      dup2\n        /* \"#utility.yul\":8793:8797   */\n      dup2\n        /* \"#utility.yul\":8789:8809   */\n      sub\n        /* \"#utility.yul\":8785:8786   */\n      0x00\n        /* \"#utility.yul\":8774:8783   */\n      dup4\n        /* \"#utility.yul\":8770:8787   */\n      add\n        /* \"#utility.yul\":8763:8810   */\n      mstore\n        /* \"#utility.yul\":8827:8905   */\n      tag_167\n        /* \"#utility.yul\":8900:8904   */\n      dup2\n        /* \"#utility.yul\":8891:8897   */\n      dup7\n        /* \"#utility.yul\":8827:8905   */\n      tag_66\n      jump\t// in\n    tag_167:\n        /* \"#utility.yul\":8819:8905   */\n      swap1\n      pop\n        /* \"#utility.yul\":8952:8961   */\n      dup2\n        /* \"#utility.yul\":8946:8950   */\n      dup2\n        /* \"#utility.yul\":8942:8962   */\n      sub\n        /* \"#utility.yul\":8937:8939   */\n      0x20\n        /* \"#utility.yul\":8926:8935   */\n      dup4\n        /* \"#utility.yul\":8922:8940   */\n      add\n        /* \"#utility.yul\":8915:8963   */\n      mstore\n        /* \"#utility.yul\":8980:9058   */\n      tag_168\n        /* \"#utility.yul\":9053:9057   */\n      dup2\n        /* \"#utility.yul\":9044:9050   */\n      dup6\n        /* \"#utility.yul\":8980:9058   */\n      tag_66\n      jump\t// in\n    tag_168:\n        /* \"#utility.yul\":8972:9058   */\n      swap1\n      pop\n        /* \"#utility.yul\":9068:9140   */\n      tag_169\n        /* \"#utility.yul\":9136:9138   */\n      0x40\n        /* \"#utility.yul\":9125:9134   */\n      dup4\n        /* \"#utility.yul\":9121:9139   */\n      add\n        /* \"#utility.yul\":9112:9118   */\n      dup5\n        /* \"#utility.yul\":9068:9140   */\n      tag_67\n      jump\t// in\n    tag_169:\n        /* \"#utility.yul\":8523:9147   */\n      swap5\n      swap4\n      pop\n      pop\n      pop\n      pop\n      jump\t// out\n        /* \"#utility.yul\":9153:9249   */\n    tag_68:\n        /* \"#utility.yul\":9190:9197   */\n      0x00\n        /* \"#utility.yul\":9219:9243   */\n      tag_171\n        /* \"#utility.yul\":9237:9242   */\n      dup3\n        /* \"#utility.yul\":9219:9243   */\n      tag_53\n      jump\t// in\n    tag_171:\n        /* \"#utility.yul\":9208:9243   */\n      swap1\n      pop\n        /* \"#utility.yul\":9153:9249   */\n      swap2\n      swap1\n      pop\n      jump\t// out\n        /* \"#utility.yul\":9255:9373   */\n    tag_69:\n        /* \"#utility.yul\":9342:9366   */\n      tag_173\n        /* \"#utility.yul\":9360:9365   */\n      dup2\n        /* \"#utility.yul\":9342:9366   */\n      tag_68\n      jump\t// in\n    tag_173:\n        /* \"#utility.yul\":9337:9340   */\n      dup3\n        /* \"#utility.yul\":9330:9367   */\n      mstore\n        /* \"#utility.yul\":9255:9373   */\n      pop\n      pop\n      jump\t// out\n        /* \"#utility.yul\":9379:9601   */\n    tag_28:\n        /* \"#utility.yul\":9472:9476   */\n      0x00\n        /* \"#utility.yul\":9510:9512   */\n      0x20\n        /* \"#utility.yul\":9499:9508   */\n      dup3\n        /* \"#utility.yul\":9495:9513   */\n      add\n        /* \"#utility.yul\":9487:9513   */\n      swap1\n      pop\n        /* \"#utility.yul\":9523:9594   */\n      tag_175\n        /* \"#utility.yul\":9591:9592   */\n      0x00\n        /* \"#utility.yul\":9580:9589   */\n      dup4\n        /* \"#utility.yul\":9576:9593   */\n      add\n        /* \"#utility.yul\":9567:9573   */\n      dup5\n        /* \"#utility.yul\":9523:9594   */\n      tag_69\n      jump\t// in\n    tag_175:\n        /* \"#utility.yul\":9379:9601   */\n      swap3\n      swap2\n      pop\n      pop\n      jump\t// out\n    stop\n\n    sub_0: assembly {\n            /* \"contract/Token.sol\":115:293  contract Token is ERC20 {... */\n          mstore(0x40, 0x80)\n            /* \"contract/Token.sol\":145:291  constructor(string memory name, string memory symbol, uint256 initialSupply) ERC20(name, symbol) {... */\n          callvalue\n          dup1\n          iszero\n          tag_1\n          jumpi\n          0x00\n          dup1\n          revert\n        tag_1:\n          pop\n          mload(0x40)\n          sub(codesize, bytecodeSize)\n          dup1\n          bytecodeSize\n          dup4\n          codecopy\n          dup2\n          dup2\n          add\n          0x40\n          mstore\n          dup2\n          add\n          swap1\n          tag_2\n          swap2\n          swap1\n          tag_3\n          jump\t// in\n        tag_2:\n            /* \"contract/Token.sol\":228:232  name */\n          dup3\n            /* \"contract/Token.sol\":234:240  symbol */\n          dup3\n            /* \"@openzeppelin/contracts/token/ERC20/ERC20.sol\":1970:1975  name_ */\n          dup2\n            /* \"@openzeppelin/contracts/token/ERC20/ERC20.sol\":1962:1967  _name */\n          0x03\n            /* \"@openzeppelin/contracts/token/ERC20/ERC20.sol\":1962:1975  _name = name_ */\n          swap1\n          dup2\n          tag_7\n          swap2\n          swap1\n          tag_8\n          jump\t// in\n        tag_7:\n          pop\n            /* \"@openzeppelin/contracts/token/ERC20/ERC20.sol\":1995:2002  symbol_ */\n          dup1\n            /* \"@openzeppelin/contracts/token/ERC20/ERC20.sol\":1985:1992  _symbol */\n          0x04\n            /* \"@openzeppelin/contracts/token/ERC20/ERC20.sol\":1985:2002  _symbol = symbol_ */\n          swap1\n          dup2\n          tag_9\n          swap2\n          swap1\n          tag_8\n          jump\t// in\n        tag_9:\n          pop\n            /* \"@openzeppelin/contracts/token/ERC20/ERC20.sol\":1896:2009  constructor(string memory name_, string memory symbol_) {... */\n          pop\n          pop\n            /* \"contract/Token.sol\":252:284  _mint(msg.sender, initialSupply) */\n          tag_11\n            /* \"contract/Token.sol\":258:268  msg.sender */\n          caller\n            /* \"contract/Token.sol\":270:283  initialSupply */\n          dup3\n            /* \"contract/Token.sol\":252:257  _mint */\n          shl(0x20, tag_12)\n            /* \"contract/Token.sol\":252:284  _mint(msg.sender, initialSupply) */\n          0x20\n          shr\n          jump\t// in\n        tag_11:\n            /* \"contract/Token.sol\":145:291  constructor(string memory name, string memory symbol, uint256 initialSupply) ERC20(name, symbol) {... */\n          pop\n          pop\n          pop\n            /* \"contract/Token.sol\":115:293  contract Token is ERC20 {... */\n          jump(tag_13)\n            /* \"@openzeppelin/contracts/token/ERC20/ERC20.sol\":7721:7929  function _mint(address account, uint256 value) internal {... */\n        tag_12:\n            /* \"@openzeppelin/contracts/token/ERC20/ERC20.sol\":7810:7811  0 */\n          0x00\n            /* \"@openzeppelin/contracts/token/ERC20/ERC20.sol\":7791:7812  account == address(0) */\n          0xffffffffffffffffffffffffffffffffffffffff\n          and\n            /* \"@openzeppelin/contracts/token/ERC20/ERC20.sol\":7791:7798  account */\n          dup3\n            /* \"@openzeppelin/contracts/token/ERC20/ERC20.sol\":7791:7812  account == address(0) */\n          0xffffffffffffffffffffffffffffffffffffffff\n          and\n          sub\n            /* \"@openzeppelin/contracts/token/ERC20/ERC20.sol\":7787:7878  if (account == address(0)) {... */\n          tag_15\n          jumpi\n            /* \"@openzeppelin/contracts/token/ERC20/ERC20.sol\":7864:7865  0 */\n          0x00\n            /* \"@openzeppelin/contracts/token/ERC20/ERC20.sol\":7835:7867  ERC20InvalidReceiver(address(0)) */\n          mload(0x40)\n          0xec442f0500000000000000000000000000000000000000000000000000000000\n          dup2\n          mstore\n          0x04\n          add\n          tag_16\n          swap2\n          swap1\n          tag_17\n          jump\t// in\n        tag_16:\n          mload(0x40)\n          dup1\n          swap2\n          sub\n          swap1\n          revert\n            /* \"@openzeppelin/contracts/token/ERC20/ERC20.sol\":7787:7878  if (account == address(0)) {... */\n        tag_15:\n            /* \"@openzeppelin/contracts/token/ERC20/ERC20.sol\":7887:7922  _update(address(0), account, value) */\n          tag_18\n            /* \"@openzeppelin/contracts/token/ERC20/ERC20.sol\":7903:7904  0 */\n          0x00\n            /* \"@openzeppelin/contracts/token/ERC20/ERC20.sol\":7907:7914  account */\n          dup4\n            /* \"@openzeppelin/contracts/token/ERC20/ERC20.sol\":7916:7921  value */\n          dup4\n            /* \"@openzeppelin/contracts/token/ERC20/ERC20.sol\":7887:7894  _update */\n          shl(0x20, tag_19)\n            /* \"@openzeppelin/contracts/token/ERC20/ERC20.sol\":7887:7922  _update(address(0), account, value) */\n          0x20\n          shr\n          jump\t// in\n        tag_18:\n            /* \"@openzeppelin/contracts/token/ERC20/ERC20.sol\":7721:7929  function _mint(address account, uint256 value) internal {... */\n          pop\n          pop\n          jump\t// out\n            /* \"@openzeppelin/contracts/token/ERC20/ERC20.sol\":6271:7378  function _update(address from, address to, uint256 value) internal virtual {... */\n        tag_19:\n            /* \"@openzeppelin/contracts/token/ERC20/ERC20.sol\":6376:6377  0 */\n          0x00\n            /* \"@openzeppelin/contracts/token/ERC20/ERC20.sol\":6360:6378  from == address(0) */\n          0xffffffffffffffffffffffffffffffffffffffff\n          and\n            /* \"@openzeppelin/contracts/token/ERC20/ERC20.sol\":6360:6364  from */\n          dup4\n            /* \"@openzeppelin/contracts/token/ERC20/ERC20.sol\":6360:6378  from == address(0) */\n          0xffffffffffffffffffffffffffffffffffffffff\n          and\n          sub\n            /* \"@openzeppelin/contracts/token/ERC20/ERC20.sol\":6356:6896  if (from == address(0)) {... */\n          tag_21\n          jumpi\n            /* \"@openzeppelin/contracts/token/ERC20/ERC20.sol\":6512:6517  value */\n          dup1\n            /* \"@openzeppelin/contracts/token/ERC20/ERC20.sol\":6496:6508  _totalSupply */\n          0x02\n          0x00\n            /* \"@openzeppelin/contracts/token/ERC20/ERC20.sol\":6496:6517  _totalSupply += value */\n          dup3\n          dup3\n          sload\n          tag_22\n          swap2\n          swap1\n          tag_23\n          jump\t// in\n        tag_22:\n          swap3\n          pop\n          pop\n          dup2\n          swap1\n          sstore\n          pop\n            /* \"@openzeppelin/contracts/token/ERC20/ERC20.sol\":6356:6896  if (from == address(0)) {... */\n          jump(tag_24)\n        tag_21:\n            /* \"@openzeppelin/contracts/token/ERC20/ERC20.sol\":6548:6567  uint256 fromBalance */\n          0x00\n            /* \"@openzeppelin/contracts/token/ERC20/ERC20.sol\":6570:6579  _balances */\n          dup1\n            /* \"@openzeppelin/contracts/token/ERC20/ERC20.sol\":6570:6585  _balances[from] */\n          0x00\n            /* \"@openzeppelin/contracts/token/ERC20/ERC20.sol\":6580:6584  from */\n          dup6\n            /* \"@openzeppelin/contracts/token/ERC20/ERC20.sol\":6570:6585  _balances[from] */\n          0xffffffffffffffffffffffffffffffffffffffff\n          and\n          0xffffffffffffffffffffffffffffffffffffffff\n          and\n          dup2\n          mstore\n          0x20\n          add\n          swap1\n          dup2\n          mstore\n          0x20\n          add\n          0x00\n          keccak256\n          sload\n            /* \"@openzeppelin/contracts/token/ERC20/ERC20.sol\":6548:6585  uint256 fromBalance = _balances[from] */\n          swap1\n          pop\n            /* \"@openzeppelin/contracts/token/ERC20/ERC20.sol\":6617:6622  value */\n          dup2\n            /* \"@openzeppelin/contracts/token/ERC20/ERC20.sol\":6603:6614  fromBalance */\n          dup2\n            /* \"@openzeppelin/contracts/token/ERC20/ERC20.sol\":6603:6622  fromBalance < value */\n          lt\n            /* \"@openzeppelin/contracts/token/ERC20/ERC20.sol\":6599:6714  if (fromBalance < value) {... */\n          iszero\n          tag_25\n          jumpi\n            /* \"@openzeppelin/contracts/token/ERC20/ERC20.sol\":6674:6678  from */\n          dup4\n            /* \"@openzeppelin/contracts/token/ERC20/ERC20.sol\":6680:6691  fromBalance */\n          dup2\n            /* \"@openzeppelin/contracts/token/ERC20/ERC20.sol\":6693:6698  value */\n          dup4\n            /* \"@openzeppelin/contracts/token/ERC20/ERC20.sol\":6649:6699  ERC20InsufficientBalance(from, fromBalance, value) */\n          mload(0x40)\n          0xe450d38c00000000000000000000000000000000000000000000000000000000\n          dup2\n          mstore\n          0x04\n          add\n          tag_26\n          swap4\n          swap3\n          swap2\n          swap1\n          tag_27\n          jump\t// in\n        tag_26:\n          mload(0x40)\n          dup1\n          swap2\n          sub\n          swap1\n          revert\n            /* \"@openzeppelin/contracts/token/ERC20/ERC20.sol\":6599:6714  if (fromBalance < value) {... */\n        tag_25:\n            /* \"@openzeppelin/contracts/token/ERC20/ERC20.sol\":6866:6871  value */\n          dup2\n            /* \"@openzeppelin/contracts/token/ERC20/ERC20.sol\":6852:6863  fromBalance */\n          dup2\n            /* \"@openzeppelin/contracts/token/ERC20/ERC20.sol\":6852:6871  fromBalance - value */\n          sub\n            /* \"@openzeppelin/contracts/token/ERC20/ERC20.sol\":6834:6843  _balances */\n          0x00\n            /* \"@openzeppelin/contracts/token/ERC20/ERC20.sol\":6834:6849  _balances[from] */\n          dup1\n            /* \"@openzeppelin/contracts/token/ERC20/ERC20.sol\":6844:6848  from */\n          dup7\n            /* \"@openzeppelin/contracts/token/ERC20/ERC20.sol\":6834:6849  _balances[from] */\n          0xffffffffffffffffffffffffffffffffffffffff\n          and\n          0xffffffffffffffffffffffffffffffffffffffff\n          and\n          dup2\n          mstore\n          0x20\n          add\n          swap1\n          dup2\n          mstore\n          0x20\n          add\n          0x00\n          keccak256\n            /* \"@openzeppelin/contracts/token/ERC20/ERC20.sol\":6834:6871  _balances[from] = fromBalance - value */\n          dup2\n          swap1\n          sstore\n          pop\n            /* \"@openzeppelin/contracts/token/ERC20/ERC20.sol\":6534:6896  {... */\n          pop\n            /* \"@openzeppelin/contracts/token/ERC20/ERC20.sol\":6356:6896  if (from == address(0)) {... */\n        tag_24:\n            /* \"@openzeppelin/contracts/token/ERC20/ERC20.sol\":6924:6925  0 */\n          0x00\n            /* \"@openzeppelin/contracts/token/ERC20/ERC20.sol\":6910:6926  to == address(0) */\n          0xffffffffffffffffffffffffffffffffffffffff\n          and\n            /* \"@openzeppelin/contracts/token/ERC20/ERC20.sol\":6910:6912  to */\n          dup3\n            /* \"@openzeppelin/contracts/token/ERC20/ERC20.sol\":6910:6926  to == address(0) */\n          0xffffffffffffffffffffffffffffffffffffffff\n          and\n          sub\n            /* \"@openzeppelin/contracts/token/ERC20/ERC20.sol\":6906:7331  if (to == address(0)) {... */\n          tag_28\n          jumpi\n            /* \"@openzeppelin/contracts/token/ERC20/ERC20.sol\":7089:7094  value */\n          dup1\n            /* \"@openzeppelin/contracts/token/ERC20/ERC20.sol\":7073:7085  _totalSupply */\n          0x02\n          0x00\n            /* \"@openzeppelin/contracts/token/ERC20/ERC20.sol\":7073:7094  _totalSupply -= value */\n          dup3\n          dup3\n          sload\n          sub\n          swap3\n          pop\n          pop\n          dup2\n          swap1\n          sstore\n          pop\n            /* \"@openzeppelin/contracts/token/ERC20/ERC20.sol\":6906:7331  if (to == address(0)) {... */\n          jump(tag_29)\n        tag_28:\n            /* \"@openzeppelin/contracts/token/ERC20/ERC20.sol\":7301:7306  value */\n          dup1\n            /* \"@openzeppelin/contracts/token/ERC20/ERC20.sol\":7284:7293  _balances */\n          0x00\n            /* \"@openzeppelin/contracts/token/ERC20/ERC20.sol\":7284:7297  _balances[to] */\n          dup1\n            /* \"@openzeppelin/contracts/token/ERC20/ERC20.sol\":7294:7296  to */\n          dup5\n            /* \"@openzeppelin/contracts/token/ERC20/ERC20.sol\":7284:7297  _balances[to] */\n          0xffffffffffffffffffffffffffffffffffffffff\n          and\n          0xffffffffffffffffffffffffffffffffffffffff\n          and\n          dup2\n          mstore\n          0x20\n          add\n          swap1\n          dup2\n          mstore\n          0x20\n          add\n          0x00\n          keccak256\n          0x00\n            /* \"@openzeppelin/contracts/token/ERC20/ERC20.sol\":7284:7306  _balances[to] += value */\n          dup3\n          dup3\n          sload\n          add\n          swap3\n          pop\n          pop\n          dup2\n          swap1\n          sstore\n          pop\n            /* \"@openzeppelin/contracts/token/ERC20/ERC20.sol\":6906:7331  if (to == address(0)) {... */\n        tag_29:\n            /* \"@openzeppelin/contracts/token/ERC20/ERC20.sol\":7361:7363  to */\n          dup2\n            /* \"@openzeppelin/contracts/token/ERC20/ERC20.sol\":7346:7371  Transfer(from, to, value) */\n          0xffffffffffffffffffffffffffffffffffffffff\n          and\n            /* \"@openzeppelin/contracts/token/ERC20/ERC20.sol\":7355:7359  from */\n          dup4\n            /* \"@openzeppelin/contracts/token/ERC20/ERC20.sol\":7346:7371  Transfer(from, to, value) */\n          0xffffffffffffffffffffffffffffffffffffffff\n          and\n          0xddf252ad1be2c89b69c2b068fc378daa952ba7f163c4a11628f55a4df523b3ef\n            /* \"@openzeppelin/contracts/token/ERC20/ERC20.sol\":7365:7370  value */\n          dup4\n            /* \"@openzeppelin/contracts/token/ERC20/ERC20.sol\":7346:7371  Transfer(from, to, value) */\n          mload(0x40)\n          tag_30\n          swap2\n          swap1\n          tag_31\n          jump\t// in\n        tag_30:\n          mload(0x40)\n          dup1\n          swap2\n          sub\n          swap1\n          log3\n            /* \"@openzeppelin/contracts/token/ERC20/ERC20.sol\":6271:7378  function _update(address from, address to, uint256 value) internal virtual {... */\n          pop\n          pop\n          pop\n          jump\t// out\n            /* \"#utility.yul\":7:82   */\n        tag_32:\n            /* \"#utility.yul\":40:46   */\n          0x00\n            /* \"#utility.yul\":73:75   */\n          0x40\n            /* \"#utility.yul\":67:76   */\n          mload\n            /* \"#utility.yul\":57:76   */\n          swap1\n          pop\n            /* \"#utility.yul\":7:82   */\n          swap1\n          jump\t// out\n            /* \"#utility.yul\":88:205   */\n        tag_33:\n            /* \"#utility.yul\":197:198   */\n          0x00\n            /* \"#utility.yul\":194:195   */\n          dup1\n            /* \"#utility.yul\":187:199   */\n          revert\n            /* \"#utility.yul\":211:328   */\n        tag_34:\n            /* \"#utility.yul\":320:321   */\n          0x00\n            /* \"#utility.yul\":317:318   */\n          dup1\n            /* \"#utility.yul\":310:322   */\n          revert\n            /* \"#utility.yul\":334:451   */\n        tag_35:\n            /* \"#utility.yul\":443:444   */\n          0x00\n            /* \"#utility.yul\":440:441   */\n          dup1\n            /* \"#utility.yul\":433:445   */\n          revert\n            /* \"#utility.yul\":457:574   */\n        tag_36:\n            /* \"#utility.yul\":566:567   */\n          0x00\n            /* \"#utility.yul\":563:564   */\n          dup1\n            /* \"#utility.yul\":556:568   */\n          revert\n            /* \"#utility.yul\":580:682   */\n        tag_37:\n            /* \"#utility.yul\":621:627   */\n          0x00\n            /* \"#utility.yul\":672:674   */\n          0x1f\n            /* \"#utility.yul\":668:675   */\n          not\n            /* \"#utility.yul\":663:665   */\n          0x1f\n            /* \"#utility.yul\":656:661   */\n          dup4\n            /* \"#utility.yul\":652:666   */\n          add\n            /* \"#utility.yul\":648:676   */\n          and\n            /* \"#utility.yul\":638:676   */\n          swap1\n          pop\n            /* \"#utility.yul\":580:682   */\n          swap2\n          swap1\n          pop\n          jump\t// out\n            /* \"#utility.yul\":688:868   */\n        tag_38:\n            /* \"#utility.yul\":736:813   */\n          0x4e487b7100000000000000000000000000000000000000000000000000000000\n            /* \"#utility.yul\":733:734   */\n          0x00\n            /* \"#utility.yul\":726:814   */\n          mstore\n            /* \"#utility.yul\":833:837   */\n          0x41\n            /* \"#utility.yul\":830:831   */\n          0x04\n            /* \"#utility.yul\":823:838   */\n          mstore\n            /* \"#utility.yul\":857:861   */\n          0x24\n            /* \"#utility.yul\":854:855   */\n          0x00\n            /* \"#utility.yul\":847:862   */\n          revert\n            /* \"#utility.yul\":874:1155   */\n        tag_39:\n            /* \"#utility.yul\":957:984   */\n          tag_80\n            /* \"#utility.yul\":979:983   */\n          dup3\n            /* \"#utility.yul\":957:984   */\n          tag_37\n          jump\t// in\n        tag_80:\n            /* \"#utility.yul\":949:955   */\n          dup2\n            /* \"#utility.yul\":945:985   */\n          add\n            /* \"#utility.yul\":1087:1093   */\n          dup2\n            /* \"#utility.yul\":1075:1085   */\n          dup2\n            /* \"#utility.yul\":1072:1094   */\n          lt\n            /* \"#utility.yul\":1051:1069   */\n          0xffffffffffffffff\n            /* \"#utility.yul\":1039:1049   */\n          dup3\n            /* \"#utility.yul\":1036:1070   */\n          gt\n            /* \"#utility.yul\":1033:1095   */\n          or\n            /* \"#utility.yul\":1030:1118   */\n          iszero\n          tag_81\n          jumpi\n            /* \"#utility.yul\":1098:1116   */\n          tag_82\n          tag_38\n          jump\t// in\n        tag_82:\n            /* \"#utility.yul\":1030:1118   */\n        tag_81:\n            /* \"#utility.yul\":1138:1148   */\n          dup1\n            /* \"#utility.yul\":1134:1136   */\n          0x40\n            /* \"#utility.yul\":1127:1149   */\n          mstore\n            /* \"#utility.yul\":917:1155   */\n          pop\n            /* \"#utility.yul\":874:1155   */\n          pop\n          pop\n          jump\t// out\n            /* \"#utility.yul\":1161:1290   */\n        tag_40:\n            /* \"#utility.yul\":1195:1201   */\n          0x00\n            /* \"#utility.yul\":1222:1242   */\n          tag_84\n          tag_32\n          jump\t// in\n        tag_84:\n            /* \"#utility.yul\":1212:1242   */\n          swap1\n          pop\n            /* \"#utility.yul\":1251:1284   */\n          tag_85\n            /* \"#utility.yul\":1279:1283   */\n          dup3\n            /* \"#utility.yul\":1271:1277   */\n          dup3\n            /* \"#utility.yul\":1251:1284   */\n          tag_39\n          jump\t// in\n        tag_85:\n            /* \"#utility.yul\":1161:1290   */\n          swap2\n          swap1\n          pop\n          jump\t// out\n            /* \"#utility.yul\":1296:1604   */\n        tag_41:\n            /* \"#utility.yul\":1358:1362   */\n          0x00\n            /* \"#utility.yul\":1448:1466   */\n          0xffffffffffffffff\n            /* \"#utility.yul\":1440:1446   */\n          dup3\n            /* \"#utility.yul\":1437:1467   */\n          gt\n            /* \"#utility.yul\":1434:1490   */\n          iszero\n          tag_87\n          jumpi\n            /* \"#utility.yul\":1470:1488   */\n          tag_88\n          tag_38\n          jump\t// in\n        tag_88:\n            /* \"#utility.yul\":1434:1490   */\n        tag_87:\n            /* \"#utility.yul\":1508:1537   */\n          tag_89\n            /* \"#utility.yul\":1530:1536   */\n          dup3\n            /* \"#utility.yul\":1508:1537   */\n          tag_37\n          jump\t// in\n        tag_89:\n            /* \"#utility.yul\":1500:1537   */\n          swap1\n          pop\n            /* \"#utility.yul\":1592:1596   */\n          0x20\n            /* \"#utility.yul\":1586:1590   */\n          dup2\n            /* \"#utility.yul\":1582:1597   */\n          add\n            /* \"#utility.yul\":1574:1597   */\n          swap1\n          pop\n            /* \"#utility.yul\":1296:1604   */\n          swap2\n          swap1\n          pop\n          jump\t// out\n            /* \"#utility.yul\":1610:1856   */\n        tag_42:\n            /* \"#utility.yul\":1691:1692   */\n          0x00\n            /* \"#utility.yul\":1701:1814   */\n        tag_91:\n            /* \"#utility.yul\":1715:1721   */\n          dup4\n            /* \"#utility.yul\":1712:1713   */\n          dup2\n            /* \"#utility.yul\":1709:1722   */\n          lt\n            /* \"#utility.yul\":1701:1814   */\n          iszero\n          tag_93\n          jumpi\n            /* \"#utility.yul\":1800:1801   */\n          dup1\n            /* \"#utility.yul\":1795:1798   */\n          dup3\n            /* \"#utility.yul\":1791:1802   */\n          add\n            /* \"#utility.yul\":1785:1803   */\n          mload\n            /* \"#utility.yul\":1781:1782   */\n          dup2\n            /* \"#utility.yul\":1776:1779   */\n          dup5\n            /* \"#utility.yul\":1772:1783   */\n          add\n            /* \"#utility.yul\":1765:1804   */\n          mstore\n            /* \"#utility.yul\":1737:1739   */\n          0x20\n            /* \"#utility.yul\":1734:1735   */\n          dup2\n            /* \"#utility.yul\":1730:1740   */\n          add\n            /* \"#utility.yul\":1725:1740   */\n          swap1\n          pop\n            /* \"#utility.yul\":1701:1814   */\n          jump(tag_91)\n        tag_93:\n            /* \"#utility.yul\":1848:1849   */\n          0x00\n            /* \"#utility.yul\":1839:1845   */\n          dup5\n            /* \"#utility.yul\":1834:1837   */\n          dup5\n            /* \"#utility.yul\":1830:1846   */\n          add\n            /* \"#utility.yul\":1823:1850   */\n          mstore\n            /* \"#utility.yul\":1672:1856   */\n          pop\n            /* \"#utility.yul\":1610:1856   */\n          pop\n          pop\n          pop\n          jump\t// out\n            /* \"#utility.yul\":1862:2296   */\n        tag_43:\n            /* \"#utility.yul\":1951:1956   */\n          0x00\n            /* \"#utility.yul\":1976:2042   */\n          tag_95\n            /* \"#utility.yul\":1992:2041   */\n          tag_96\n            /* \"#utility.yul\":2034:2040   */\n          dup5\n            /* \"#utility.yul\":1992:2041   */\n          tag_41\n          jump\t// in\n        tag_96:\n            /* \"#utility.yul\":1976:2042   */\n          tag_40\n          jump\t// in\n        tag_95:\n            /* \"#utility.yul\":1967:2042   */\n          swap1\n          pop\n            /* \"#utility.yul\":2065:2071   */\n          dup3\n            /* \"#utility.yul\":2058:2063   */\n          dup2\n            /* \"#utility.yul\":2051:2072   */\n          mstore\n            /* \"#utility.yul\":2103:2107   */\n          0x20\n            /* \"#utility.yul\":2096:2101   */\n          dup2\n            /* \"#utility.yul\":2092:2108   */\n          add\n            /* \"#utility.yul\":2141:2144   */\n          dup5\n            /* \"#utility.yul\":2132:2138   */\n          dup5\n            /* \"#utility.yul\":2127:2130   */\n          dup5\n            /* \"#utility.yul\":2123:2139   */\n          add\n            /* \"#utility.yul\":2120:2145   */\n          gt\n            /* \"#utility.yul\":2117:2229   */\n          iszero\n          tag_97\n          jumpi\n            /* \"#utility.yul\":2148:2227   */\n          tag_98\n          tag_36\n          jump\t// in\n        tag_98:\n            /* \"#utility.yul\":2117:2229   */\n        tag_97:\n            /* \"#utility.yul\":2238:2290   */\n          tag_99\n            /* \"#utility.yul\":2283:2289   */\n          dup5\n            /* \"#utility.yul\":2278:2281   */\n          dup3\n            /* \"#utility.yul\":2273:2276   */\n          dup6\n            /* \"#utility.yul\":2238:2290   */\n          tag_42\n          jump\t// in\n        tag_99:\n            /* \"#utility.yul\":1957:2296   */\n          pop\n            /* \"#utility.yul\":1862:2296   */\n          swap4\n          swap3\n          pop\n          pop\n          pop\n          jump\t// out\n            /* \"#utility.yul\":2316:2671   */\n        tag_44:\n            /* \"#utility.yul\":2383:2388   */\n          0x00\n            /* \"#utility.yul\":2432:2435   */\n          dup3\n            /* \"#utility.yul\":2425:2429   */\n          0x1f\n            /* \"#utility.yul\":2417:2423   */\n          dup4\n            /* \"#utility.yul\":2413:2430   */\n          add\n            /* \"#utility.yul\":2409:2436   */\n          slt\n            /* \"#utility.yul\":2399:2521   */\n          tag_101\n          jumpi\n            /* \"#utility.yul\":2440:2519   */\n          tag_102\n          tag_35\n          jump\t// in\n        tag_102:\n            /* \"#utility.yul\":2399:2521   */\n        tag_101:\n            /* \"#utility.yul\":2550:2556   */\n          dup2\n            /* \"#utility.yul\":2544:2557   */\n          mload\n            /* \"#utility.yul\":2575:2665   */\n          tag_103\n            /* \"#utility.yul\":2661:2664   */\n          dup5\n            /* \"#utility.yul\":2653:2659   */\n          dup3\n            /* \"#utility.yul\":2646:2650   */\n          0x20\n            /* \"#utility.yul\":2638:2644   */\n          dup7\n            /* \"#utility.yul\":2634:2651   */\n          add\n            /* \"#utility.yul\":2575:2665   */\n          tag_43\n          jump\t// in\n        tag_103:\n            /* \"#utility.yul\":2566:2665   */\n          swap2\n          pop\n            /* \"#utility.yul\":2389:2671   */\n          pop\n            /* \"#utility.yul\":2316:2671   */\n          swap3\n          swap2\n          pop\n          pop\n          jump\t// out\n            /* \"#utility.yul\":2677:2754   */\n        tag_45:\n            /* \"#utility.yul\":2714:2721   */\n          0x00\n            /* \"#utility.yul\":2743:2748   */\n          dup2\n            /* \"#utility.yul\":2732:2748   */\n          swap1\n          pop\n            /* \"#utility.yul\":2677:2754   */\n          swap2\n          swap1\n          pop\n          jump\t// out\n            /* \"#utility.yul\":2760:2882   */\n        tag_46:\n            /* \"#utility.yul\":2833:2857   */\n          tag_106\n            /* \"#utility.yul\":2851:2856   */\n          dup2\n            /* \"#utility.yul\":2833:2857   */\n          tag_45\n          jump\t// in\n        tag_106:\n            /* \"#utility.yul\":2826:2831   */\n          dup2\n            /* \"#utility.yul\":2823:2858   */\n          eq\n            /* \"#utility.yul\":2813:2876   */\n          tag_107\n          jumpi\n            /* \"#utility.yul\":2872:2873   */\n          0x00\n            /* \"#utility.yul\":2869:2870   */\n          dup1\n            /* \"#utility.yul\":2862:2874   */\n          revert\n            /* \"#utility.yul\":2813:2876   */\n        tag_107:\n            /* \"#utility.yul\":2760:2882   */\n          pop\n          jump\t// out\n            /* \"#utility.yul\":2888:3031   */\n        tag_47:\n            /* \"#utility.yul\":2945:2950   */\n          0x00\n            /* \"#utility.yul\":2976:2982   */\n          dup2\n            /* \"#utility.yul\":2970:2983   */\n          mload\n            /* \"#utility.yul\":2961:2983   */\n          swap1\n          pop\n            /* \"#utility.yul\":2992:3025   */\n          tag_109\n            /* \"#utility.yul\":3019:3024   */\n          dup2\n            /* \"#utility.yul\":2992:3025   */\n          tag_46\n          jump\t// in\n        tag_109:\n            /* \"#utility.yul\":2888:3031   */\n          swap3\n          swap2\n          pop\n          pop\n          jump\t// out\n            /* \"#utility.yul\":3037:4046   */\n        tag_3:\n            /* \"#utility.yul\":3145:3151   */\n          0x00\n            /* \"#utility.yul\":3153:3159   */\n          dup1\n            /* \"#utility.yul\":3161:3167   */\n          0x00\n            /* \"#utility.yul\":3210:3212   */\n          0x60\n            /* \"#utility.yul\":3198:3207   */\n          dup5\n            /* \"#utility.yul\":3189:3196   */\n          dup7\n            /* \"#utility.yul\":3185:3208   */\n          sub\n            /* \"#utility.yul\":3181:3213   */\n          slt\n            /* \"#utility.yul\":3178:3297   */\n          iszero\n          tag_111\n          jumpi\n            /* \"#utility.yul\":3216:3295   */\n          tag_112\n          tag_33\n          jump\t// in\n        tag_112:\n            /* \"#utility.yul\":3178:3297   */\n        tag_111:\n            /* \"#utility.yul\":3357:3358   */\n          0x00\n            /* \"#utility.yul\":3346:3355   */\n          dup5\n            /* \"#utility.yul\":3342:3359   */\n          add\n            /* \"#utility.yul\":3336:3360   */\n          mload\n            /* \"#utility.yul\":3387:3405   */\n          0xffffffffffffffff\n            /* \"#utility.yul\":3379:3385   */\n          dup2\n            /* \"#utility.yul\":3376:3406   */\n          gt\n            /* \"#utility.yul\":3373:3490   */\n          iszero\n          tag_113\n          jumpi\n            /* \"#utility.yul\":3409:3488   */\n          tag_114\n          tag_34\n          jump\t// in\n        tag_114:\n            /* \"#utility.yul\":3373:3490   */\n        tag_113:\n            /* \"#utility.yul\":3514:3588   */\n          tag_115\n            /* \"#utility.yul\":3580:3587   */\n          dup7\n            /* \"#utility.yul\":3571:3577   */\n          dup3\n            /* \"#utility.yul\":3560:3569   */\n          dup8\n            /* \"#utility.yul\":3556:3578   */\n          add\n            /* \"#utility.yul\":3514:3588   */\n          tag_44\n          jump\t// in\n        tag_115:\n            /* \"#utility.yul\":3504:3588   */\n          swap4\n          pop\n            /* \"#utility.yul\":3307:3598   */\n          pop\n            /* \"#utility.yul\":3658:3660   */\n          0x20\n            /* \"#utility.yul\":3647:3656   */\n          dup5\n            /* \"#utility.yul\":3643:3661   */\n          add\n            /* \"#utility.yul\":3637:3662   */\n          mload\n            /* \"#utility.yul\":3689:3707   */\n          0xffffffffffffffff\n            /* \"#utility.yul\":3681:3687   */\n          dup2\n            /* \"#utility.yul\":3678:3708   */\n          gt\n            /* \"#utility.yul\":3675:3792   */\n          iszero\n          tag_116\n          jumpi\n            /* \"#utility.yul\":3711:3790   */\n          tag_117\n          tag_34\n          jump\t// in\n        tag_117:\n            /* \"#utility.yul\":3675:3792   */\n        tag_116:\n            /* \"#utility.yul\":3816:3890   */\n          tag_118\n            /* \"#utility.yul\":3882:3889   */\n          dup7\n            /* \"#utility.yul\":3873:3879   */\n          dup3\n            /* \"#utility.yul\":3862:3871   */\n          dup8\n            /* \"#utility.yul\":3858:3880   */\n          add\n            /* \"#utility.yul\":3816:3890   */\n          tag_44\n          jump\t// in\n        tag_118:\n            /* \"#utility.yul\":3806:3890   */\n          swap3\n          pop\n            /* \"#utility.yul\":3608:3900   */\n          pop\n            /* \"#utility.yul\":3939:3941   */\n          0x40\n            /* \"#utility.yul\":3965:4029   */\n          tag_119\n            /* \"#utility.yul\":4021:4028   */\n          dup7\n            /* \"#utility.yul\":4012:4018   */\n          dup3\n            /* \"#utility.yul\":4001:4010   */\n          dup8\n            /* \"#utility.yul\":3997:4019   */\n          add\n            /* \"#utility.yul\":3965:4029   */\n          tag_47\n          jump\t// in\n        tag_119:\n            /* \"#utility.yul\":3955:4029   */\n          swap2\n          pop\n            /* \"#utility.yul\":3910:4039   */\n          pop\n            /* \"#utility.yul\":3037:4046   */\n          swap3\n          pop\n          swap3\n          pop\n          swap3\n          jump\t// out\n            /* \"#utility.yul\":4052:4151   */\n        tag_48:\n            /* \"#utility.yul\":4104:4110   */\n          0x00\n            /* \"#utility.yul\":4138:4143   */\n          dup2\n            /* \"#utility.yul\":4132:4144   */\n          mload\n            /* \"#utility.yul\":4122:4144   */\n          swap1\n          pop\n            /* \"#utility.yul\":4052:4151   */\n          swap2\n          swap1\n          pop\n          jump\t// out\n            /* \"#utility.yul\":4157:4337   */\n        tag_49:\n            /* \"#utility.yul\":4205:4282   */\n          0x4e487b7100000000000000000000000000000000000000000000000000000000\n            /* \"#utility.yul\":4202:4203   */\n          0x00\n            /* \"#utility.yul\":4195:4283   */\n          mstore\n            /* \"#utility.yul\":4302:4306   */\n          0x22\n            /* \"#utility.yul\":4299:4300   */\n          0x04\n            /* \"#utility.yul\":4292:4307   */\n          mstore\n            /* \"#utility.yul\":4326:4330   */\n          0x24\n            /* \"#utility.yul\":4323:4324   */\n          0x00\n            /* \"#utility.yul\":4316:4331   */\n          revert\n            /* \"#utility.yul\":4343:4663   */\n        tag_50:\n            /* \"#utility.yul\":4387:4393   */\n          0x00\n            /* \"#utility.yul\":4424:4425   */\n          0x02\n            /* \"#utility.yul\":4418:4422   */\n          dup3\n            /* \"#utility.yul\":4414:4426   */\n          div\n            /* \"#utility.yul\":4404:4426   */\n          swap1\n          pop\n            /* \"#utility.yul\":4471:4472   */\n          0x01\n            /* \"#utility.yul\":4465:4469   */\n          dup3\n            /* \"#utility.yul\":4461:4473   */\n          and\n            /* \"#utility.yul\":4492:4510   */\n          dup1\n            /* \"#utility.yul\":4482:4563   */\n          tag_123\n          jumpi\n            /* \"#utility.yul\":4548:4552   */\n          0x7f\n            /* \"#utility.yul\":4540:4546   */\n          dup3\n            /* \"#utility.yul\":4536:4553   */\n          and\n            /* \"#utility.yul\":4526:4553   */\n          swap2\n          pop\n            /* \"#utility.yul\":4482:4563   */\n        tag_123:\n            /* \"#utility.yul\":4610:4612   */\n          0x20\n            /* \"#utility.yul\":4602:4608   */\n          dup3\n            /* \"#utility.yul\":4599:4613   */\n          lt\n            /* \"#utility.yul\":4579:4597   */\n          dup2\n            /* \"#utility.yul\":4576:4614   */\n          sub\n            /* \"#utility.yul\":4573:4657   */\n          tag_124\n          jumpi\n            /* \"#utility.yul\":4629:4647   */\n          tag_125\n          tag_49\n          jump\t// in\n        tag_125:\n            /* \"#utility.yul\":4573:4657   */\n        tag_124:\n            /* \"#utility.yul\":4394:4663   */\n          pop\n            /* \"#utility.yul\":4343:4663   */\n          swap2\n          swap1\n          pop\n          jump\t// out\n            /* \"#utility.yul\":4669:4810   */\n        tag_51:\n            /* \"#utility.yul\":4718:4722   */\n          0x00\n            /* \"#utility.yul\":4741:4744   */\n          dup2\n            /* \"#utility.yul\":4733:4744   */\n          swap1\n          pop\n            /* \"#utility.yul\":4764:4767   */\n          dup2\n            /* \"#utility.yul\":4761:4762   */\n          0x00\n            /* \"#utility.yul\":4754:4768   */\n          mstore\n            /* \"#utility.yul\":4798:4802   */\n          0x20\n            /* \"#utility.yul\":4795:4796   */\n          0x00\n            /* \"#utility.yul\":4785:4803   */\n          keccak256\n            /* \"#utility.yul\":4777:4803   */\n          swap1\n          pop\n            /* \"#utility.yul\":4669:4810   */\n          swap2\n          swap1\n          pop\n          jump\t// out\n            /* \"#utility.yul\":4816:4909   */\n        tag_52:\n            /* \"#utility.yul\":4853:4859   */\n          0x00\n            /* \"#utility.yul\":4900:4902   */\n          0x20\n            /* \"#utility.yul\":4895:4897   */\n          0x1f\n            /* \"#utility.yul\":4888:4893   */\n          dup4\n            /* \"#utility.yul\":4884:4898   */\n          add\n            /* \"#utility.yul\":4880:4903   */\n          div\n            /* \"#utility.yul\":4870:4903   */\n          swap1\n          pop\n            /* \"#utility.yul\":4816:4909   */\n          swap2\n          swap1\n          pop\n          jump\t// out\n            /* \"#utility.yul\":4915:5022   */\n        tag_53:\n            /* \"#utility.yul\":4959:4967   */\n          0x00\n            /* \"#utility.yul\":5009:5014   */\n          dup3\n            /* \"#utility.yul\":5003:5007   */\n          dup3\n            /* \"#utility.yul\":4999:5015   */\n          shl\n            /* \"#utility.yul\":4978:5015   */\n          swap1\n          pop\n            /* \"#utility.yul\":4915:5022   */\n          swap3\n          swap2\n          pop\n          pop\n          jump\t// out\n            /* \"#utility.yul\":5028:5421   */\n        tag_54:\n            /* \"#utility.yul\":5097:5103   */\n          0x00\n            /* \"#utility.yul\":5147:5148   */\n          0x08\n            /* \"#utility.yul\":5135:5145   */\n          dup4\n            /* \"#utility.yul\":5131:5149   */\n          mul\n            /* \"#utility.yul\":5170:5267   */\n          tag_130\n            /* \"#utility.yul\":5200:5266   */\n          0xffffffffffffffffffffffffffffffffffffffffffffffffffffffffffffffff\n            /* \"#utility.yul\":5189:5198   */\n          dup3\n            /* \"#utility.yul\":5170:5267   */\n          tag_53\n          jump\t// in\n        tag_130:\n            /* \"#utility.yul\":5288:5327   */\n          tag_131\n            /* \"#utility.yul\":5318:5326   */\n          dup7\n            /* \"#utility.yul\":5307:5316   */\n          dup4\n            /* \"#utility.yul\":5288:5327   */\n          tag_53\n          jump\t// in\n        tag_131:\n            /* \"#utility.yul\":5276:5327   */\n          swap6\n          pop\n            /* \"#utility.yul\":5360:5364   */\n          dup1\n            /* \"#utility.yul\":5356:5365   */\n          not\n            /* \"#utility.yul\":5349:5354   */\n          dup5\n            /* \"#utility.yul\":5345:5366   */\n          and\n            /* \"#utility.yul\":5336:5366   */\n          swap4\n          pop\n            /* \"#utility.yul\":5409:5413   */\n          dup1\n            /* \"#utility.yul\":5399:5407   */\n          dup7\n            /* \"#utility.yul\":5395:5414   */\n          and\n            /* \"#utility.yul\":5388:5393   */\n          dup5\n            /* \"#utility.yul\":5385:5415   */\n          or\n            /* \"#utility.yul\":5375:5415   */\n          swap3\n          pop\n            /* \"#utility.yul\":5104:5421   */\n          pop\n          pop\n            /* \"#utility.yul\":5028:5421   */\n          swap4\n          swap3\n          pop\n          pop\n          pop\n          jump\t// out\n            /* \"#utility.yul\":5427:5487   */\n        tag_55:\n            /* \"#utility.yul\":5455:5458   */\n          0x00\n            /* \"#utility.yul\":5476:5481   */\n          dup2\n            /* \"#utility.yul\":5469:5481   */\n          swap1\n          pop\n            /* \"#utility.yul\":5427:5487   */\n          swap2\n          swap1\n          pop\n          jump\t// out\n            /* \"#utility.yul\":5493:5635   */\n        tag_56:\n            /* \"#utility.yul\":5543:5552   */\n          0x00\n            /* \"#utility.yul\":5576:5629   */\n          tag_134\n            /* \"#utility.yul\":5594:5628   */\n          tag_135\n            /* \"#utility.yul\":5603:5627   */\n          tag_136\n            /* \"#utility.yul\":5621:5626   */\n          dup5\n            /* \"#utility.yul\":5603:5627   */\n          tag_45\n          jump\t// in\n        tag_136:\n            /* \"#utility.yul\":5594:5628   */\n          tag_55\n          jump\t// in\n        tag_135:\n            /* \"#utility.yul\":5576:5629   */\n          tag_45\n          jump\t// in\n        tag_134:\n            /* \"#utility.yul\":5563:5629   */\n          swap1\n          pop\n            /* \"#utility.yul\":5493:5635   */\n          swap2\n          swap1\n          pop\n          jump\t// out\n            /* \"#utility.yul\":5641:5716   */\n        tag_57:\n            /* \"#utility.yul\":5684:5687   */\n          0x00\n            /* \"#utility.yul\":5705:5710   */\n          dup2\n            /* \"#utility.yul\":5698:5710   */\n          swap1\n          pop\n            /* \"#utility.yul\":5641:5716   */\n          swap2\n          swap1\n          pop\n          jump\t// out\n            /* \"#utility.yul\":5722:5991   */\n        tag_58:\n            /* \"#utility.yul\":5832:5871   */\n          tag_139\n            /* \"#utility.yul\":5863:5870   */\n          dup4\n            /* \"#utility.yul\":5832:5871   */\n          tag_56\n          jump\t// in\n        tag_139:\n            /* \"#utility.yul\":5893:5984   */\n          tag_140\n            /* \"#utility.yul\":5942:5983   */\n          tag_141\n            /* \"#utility.yul\":5966:5982   */\n          dup3\n            /* \"#utility.yul\":5942:5983   */\n          tag_57\n          jump\t// in\n        tag_141:\n            /* \"#utility.yul\":5934:5940   */\n          dup5\n            /* \"#utility.yul\":5927:5931   */\n          dup5\n            /* \"#utility.yul\":5921:5932   */\n          sload\n            /* \"#utility.yul\":5893:5984   */\n          tag_54\n          jump\t// in\n        tag_140:\n            /* \"#utility.yul\":5887:5891   */\n          dup3\n            /* \"#utility.yul\":5880:5985   */\n          sstore\n            /* \"#utility.yul\":5798:5991   */\n          pop\n            /* \"#utility.yul\":5722:5991   */\n          pop\n          pop\n          pop\n          jump\t// out\n            /* \"#utility.yul\":5997:6070   */\n        tag_59:\n            /* \"#utility.yul\":6042:6045   */\n          0x00\n            /* \"#utility.yul\":5997:6070   */\n          swap1\n          jump\t// out\n            /* \"#utility.yul\":6076:6265   */\n        tag_60:\n            /* \"#utility.yul\":6153:6185   */\n          tag_144\n          tag_59\n          jump\t// in\n        tag_144:\n            /* \"#utility.yul\":6194:6259   */\n          tag_145\n            /* \"#utility.yul\":6252:6258   */\n          dup2\n            /* \"#utility.yul\":6244:6250   */\n          dup5\n            /* \"#utility.yul\":6238:6242   */\n          dup5\n            /* \"#utility.yul\":6194:6259   */\n          tag_58\n          jump\t// in\n        tag_145:\n            /* \"#utility.yul\":6129:6265   */\n          pop\n            /* \"#utility.yul\":6076:6265   */\n          pop\n          pop\n          jump\t// out\n            /* \"#utility.yul\":6271:6457   */\n        tag_61:\n            /* \"#utility.yul\":6331:6451   */\n        tag_147:\n            /* \"#utility.yul\":6348:6351   */\n          dup2\n            /* \"#utility.yul\":6341:6346   */\n          dup2\n            /* \"#utility.yul\":6338:6352   */\n          lt\n            /* \"#utility.yul\":6331:6451   */\n          iszero\n          tag_149\n          jumpi\n            /* \"#utility.yul\":6402:6441   */\n          tag_150\n            /* \"#utility.yul\":6439:6440   */\n          0x00\n            /* \"#utility.yul\":6432:6437   */\n          dup3\n            /* \"#utility.yul\":6402:6441   */\n          tag_60\n          jump\t// in\n        tag_150:\n            /* \"#utility.yul\":6375:6376   */\n          0x01\n            /* \"#utility.yul\":6368:6373   */\n          dup2\n            /* \"#utility.yul\":6364:6377   */\n          add\n            /* \"#utility.yul\":6355:6377   */\n          swap1\n          pop\n            /* \"#utility.yul\":6331:6451   */\n          jump(tag_147)\n        tag_149:\n            /* \"#utility.yul\":6271:6457   */\n          pop\n          pop\n          jump\t// out\n            /* \"#utility.yul\":6463:7006   */\n        tag_62:\n            /* \"#utility.yul\":6564:6566   */\n          0x1f\n            /* \"#utility.yul\":6559:6562   */\n          dup3\n            /* \"#utility.yul\":6556:6567   */\n          gt\n            /* \"#utility.yul\":6553:6999   */\n          iszero\n          tag_152\n          jumpi\n            /* \"#utility.yul\":6598:6636   */\n          tag_153\n            /* \"#utility.yul\":6630:6635   */\n          dup2\n            /* \"#utility.yul\":6598:6636   */\n          tag_51\n          jump\t// in\n        tag_153:\n            /* \"#utility.yul\":6682:6711   */\n          tag_154\n            /* \"#utility.yul\":6700:6710   */\n          dup5\n            /* \"#utility.yul\":6682:6711   */\n          tag_52\n          jump\t// in\n        tag_154:\n            /* \"#utility.yul\":6672:6680   */\n          dup2\n            /* \"#utility.yul\":6668:6712   */\n          add\n            /* \"#utility.yul\":6865:6867   */\n          0x20\n            /* \"#utility.yul\":6853:6863   */\n          dup6\n            /* \"#utility.yul\":6850:6868   */\n          lt\n            /* \"#utility.yul\":6847:6896   */\n          iszero\n          tag_155\n          jumpi\n            /* \"#utility.yul\":6886:6894   */\n          dup2\n            /* \"#utility.yul\":6871:6894   */\n          swap1\n          pop\n            /* \"#utility.yul\":6847:6896   */\n        tag_155:\n            /* \"#utility.yul\":6909:6989   */\n          tag_156\n            /* \"#utility.yul\":6965:6987   */\n          tag_157\n            /* \"#utility.yul\":6983:6986   */\n          dup6\n            /* \"#utility.yul\":6965:6987   */\n          tag_52\n          jump\t// in\n        tag_157:\n            /* \"#utility.yul\":6955:6963   */\n          dup4\n            /* \"#utility.yul\":6951:6988   */\n          add\n            /* \"#utility.yul\":6938:6949   */\n          dup3\n            /* \"#utility.yul\":6909:6989   */\n          tag_61\n          jump\t// in\n        tag_156:\n            /* \"#utility.yul\":6568:6999   */\n          pop\n          pop\n            /* \"#utility.yul\":6553:6999   */\n        tag_152:\n            /* \"#utility.yul\":6463:7006   */\n          pop\n          pop\n          pop\n          jump\t// out\n            /* \"#utility.yul\":7012:7129   */\n        tag_63:\n            /* \"#utility.yul\":7066:7074   */\n          0x00\n            /* \"#utility.yul\":7116:7121   */\n          dup3\n            /* \"#utility.yul\":7110:7114   */\n          dup3\n            /* \"#utility.yul\":7106:7122   */\n          shr\n            /* \"#utility.yul\":7085:7122   */\n          swap1\n          pop\n            /* \"#utility.yul\":7012:7129   */\n          swap3\n          swap2\n          pop\n          pop\n          jump\t// out\n            /* \"#utility.yul\":7135:7304   */\n        tag_64:\n            /* \"#utility.yul\":7179:7185   */\n          0x00\n            /* \"#utility.yul\":7212:7263   */\n          tag_160\n            /* \"#utility.yul\":7260:7261   */\n          0x00\n            /* \"#utility.yul\":7256:7262   */\n          not\n            /* \"#utility.yul\":7248:7253   */\n          dup5\n            /* \"#utility.yul\":7245:7246   */\n          0x08\n            /* \"#utility.yul\":7241:7254   */\n          mul\n            /* \"#utility.yul\":7212:7263   */\n          tag_63\n          jump\t// in\n        tag_160:\n            /* \"#utility.yul\":7208:7264   */\n          not\n            /* \"#utility.yul\":7293:7297   */\n          dup1\n            /* \"#utility.yul\":7287:7291   */\n          dup4\n            /* \"#utility.yul\":7283:7298   */\n          and\n            /* \"#utility.yul\":7273:7298   */\n          swap2\n          pop\n            /* \"#utility.yul\":7186:7304   */\n          pop\n            /* \"#utility.yul\":7135:7304   */\n          swap3\n          swap2\n          pop\n          pop\n          jump\t// out\n            /* \"#utility.yul\":7309:7604   */\n        tag_65:\n            /* \"#utility.yul\":7385:7389   */\n          0x00\n            /* \"#utility.yul\":7531:7560   */\n          tag_162\n            /* \"#utility.yul\":7556:7559   */\n          dup4\n            /* \"#utility.yul\":7550:7554   */\n          dup4\n            /* \"#utility.yul\":7531:7560   */\n          tag_64\n          jump\t// in\n        tag_162:\n            /* \"#utility.yul\":7523:7560   */\n          swap2\n          pop\n            /* \"#utility.yul\":7593:7596   */\n          dup3\n            /* \"#utility.yul\":7590:7591   */\n          0x02\n            /* \"#utility.yul\":7586:7597   */\n          mul\n            /* \"#utility.yul\":7580:7584   */\n          dup3\n            /* \"#utility.yul\":7577:7598   */\n          or\n            /* \"#utility.yul\":7569:7598   */\n          swap1\n          pop\n            /* \"#utility.yul\":7309:7604   */\n          swap3\n          swap2\n          pop\n          pop\n          jump\t// out\n            /* \"#utility.yul\":7609:9004   */\n        tag_8:\n            /* \"#utility.yul\":7726:7763   */\n          tag_164\n            /* \"#utility.yul\":7759:7762   */\n          dup3\n            /* \"#utility.yul\":7726:7763   */\n          tag_48\n          jump\t// in\n        tag_164:\n            /* \"#utility.yul\":7828:7846   */\n          0xffffffffffffffff\n            /* \"#utility.yul\":7820:7826   */\n          dup2\n            /* \"#utility.yul\":7817:7847   */\n          gt\n            /* \"#utility.yul\":7814:7870   */\n          iszero\n          tag_165\n          jumpi\n            /* \"#utility.yul\":7850:7868   */\n          tag_166\n          tag_38\n          jump\t// in\n        tag_166:\n            /* \"#utility.yul\":7814:7870   */\n        tag_165:\n            /* \"#utility.yul\":7894:7932   */\n          tag_167\n            /* \"#utility.yul\":7926:7930   */\n          dup3\n            /* \"#utility.yul\":7920:7931   */\n          sload\n            /* \"#utility.yul\":7894:7932   */\n          tag_50\n          jump\t// in\n        tag_167:\n            /* \"#utility.yul\":7979:8046   */\n          tag_168\n            /* \"#utility.yul\":8039:8045   */\n          dup3\n            /* \"#utility.yul\":8031:8037   */\n          dup3\n            /* \"#utility.yul\":8025:8029   */\n          dup6\n            /* \"#utility.yul\":7979:8046   */\n          tag_62\n          jump\t// in\n        tag_168:\n            /* \"#utility.yul\":8073:8074   */\n          0x00\n            /* \"#utility.yul\":8097:8101   */\n          0x20\n            /* \"#utility.yul\":8084:8101   */\n          swap1\n          pop\n            /* \"#utility.yul\":8129:8131   */\n          0x1f\n            /* \"#utility.yul\":8121:8127   */\n          dup4\n            /* \"#utility.yul\":8118:8132   */\n          gt\n            /* \"#utility.yul\":8146:8147   */\n          0x01\n            /* \"#utility.yul\":8141:8759   */\n          dup2\n          eq\n          tag_170\n          jumpi\n            /* \"#utility.yul\":8803:8804   */\n          0x00\n            /* \"#utility.yul\":8820:8826   */\n          dup5\n            /* \"#utility.yul\":8817:8894   */\n          iszero\n          tag_171\n          jumpi\n            /* \"#utility.yul\":8869:8878   */\n          dup3\n            /* \"#utility.yul\":8864:8867   */\n          dup8\n            /* \"#utility.yul\":8860:8879   */\n          add\n            /* \"#utility.yul\":8854:8880   */\n          mload\n            /* \"#utility.yul\":8845:8880   */\n          swap1\n          pop\n            /* \"#utility.yul\":8817:8894   */\n        tag_171:\n            /* \"#utility.yul\":8920:8987   */\n          tag_172\n            /* \"#utility.yul\":8980:8986   */\n          dup6\n            /* \"#utility.yul\":8973:8978   */\n          dup3\n            /* \"#utility.yul\":8920:8987   */\n          tag_65\n          jump\t// in\n        tag_172:\n            /* \"#utility.yul\":8914:8918   */\n          dup7\n            /* \"#utility.yul\":8907:8988   */\n          sstore\n            /* \"#utility.yul\":8776:8998   */\n          pop\n            /* \"#utility.yul\":8111:8998   */\n          jump(tag_169)\n            /* \"#utility.yul\":8141:8759   */\n        tag_170:\n            /* \"#utility.yul\":8193:8197   */\n          0x1f\n            /* \"#utility.yul\":8189:8198   */\n          not\n            /* \"#utility.yul\":8181:8187   */\n          dup5\n            /* \"#utility.yul\":8177:8199   */\n          and\n            /* \"#utility.yul\":8227:8264   */\n          tag_173\n            /* \"#utility.yul\":8259:8263   */\n          dup7\n            /* \"#utility.yul\":8227:8264   */\n          tag_51\n          jump\t// in\n        tag_173:\n            /* \"#utility.yul\":8286:8287   */\n          0x00\n            /* \"#utility.yul\":8300:8508   */\n        tag_174:\n            /* \"#utility.yul\":8314:8321   */\n          dup3\n            /* \"#utility.yul\":8311:8312   */\n          dup2\n            /* \"#utility.yul\":8308:8322   */\n          lt\n            /* \"#utility.yul\":8300:8508   */\n          iszero\n          tag_176\n          jumpi\n            /* \"#utility.yul\":8393:8402   */\n          dup5\n            /* \"#utility.yul\":8388:8391   */\n          dup10\n            /* \"#utility.yul\":8384:8403   */\n          add\n            /* \"#utility.yul\":8378:8404   */\n          mload\n            /* \"#utility.yul\":8370:8376   */\n          dup3\n            /* \"#utility.yul\":8363:8405   */\n          sstore\n            /* \"#utility.yul\":8444:8445   */\n          0x01\n            /* \"#utility.yul\":8436:8442   */\n          dup3\n            /* \"#utility.yul\":8432:8446   */\n          add\n            /* \"#utility.yul\":8422:8446   */\n          swap2\n          pop\n            /* \"#utility.yul\":8491:8493   */\n          0x20\n            /* \"#utility.yul\":8480:8489   */\n          dup6\n            /* \"#utility.yul\":8476:8494   */\n          add\n            /* \"#utility.yul\":8463:8494   */\n          swap5\n          pop\n            /* \"#utility.yul\":8337:8341   */\n          0x20\n            /* \"#utility.yul\":8334:8335   */\n          dup2\n            /* \"#utility.yul\":8330:8342   */\n          add\n            /* \"#utility.yul\":8325:8342   */\n          swap1\n          pop\n            /* \"#utility.yul\":8300:8508   */\n          jump(tag_174)\n        tag_176:\n            /* \"#utility.yul\":8536:8542   */\n          dup7\n            /* \"#utility.yul\":8527:8534   */\n          dup4\n            /* \"#utility.yul\":8524:8543   */\n          lt\n            /* \"#utility.yul\":8521:8700   */\n          iszero\n          tag_177\n          jumpi\n            /* \"#utility.yul\":8594:8603   */\n          dup5\n            /* \"#utility.yul\":8589:8592   */\n          dup10\n            /* \"#utility.yul\":8585:8604   */\n          add\n            /* \"#utility.yul\":8579:8605   */\n          mload\n            /* \"#utility.yul\":8637:8685   */\n          tag_178\n            /* \"#utility.yul\":8679:8683   */\n          0x1f\n            /* \"#utility.yul\":8671:8677   */\n          dup10\n            /* \"#utility.yul\":8667:8684   */\n          and\n            /* \"#utility.yul\":8656:8665   */\n          dup3\n            /* \"#utility.yul\":8637:8685   */\n          tag_64\n          jump\t// in\n        tag_178:\n            /* \"#utility.yul\":8629:8635   */\n          dup4\n            /* \"#utility.yul\":8622:8686   */\n          sstore\n            /* \"#utility.yul\":8544:8700   */\n          pop\n            /* \"#utility.yul\":8521:8700   */\n        tag_177:\n            /* \"#utility.yul\":8746:8747   */\n          0x01\n            /* \"#utility.yul\":8742:8743   */\n          0x02\n            /* \"#utility.yul\":8734:8740   */\n          dup9\n            /* \"#utility.yul\":8730:8744   */\n          mul\n            /* \"#utility.yul\":8726:8748   */\n          add\n            /* \"#utility.yul\":8720:8724   */\n          dup9\n            /* \"#utility.yul\":8713:8749   */\n          sstore\n            /* \"#utility.yul\":8148:8759   */\n          pop\n          pop\n          pop\n            /* \"#utility.yul\":8111:8998   */\n        tag_169:\n          pop\n            /* \"#utility.yul\":7701:9004   */\n          pop\n          pop\n          pop\n            /* \"#utility.yul\":7609:9004   */\n          pop\n          pop\n          jump\t// out\n            /* \"#utility.yul\":9010:9136   */\n        tag_66:\n            /* \"#utility.yul\":9047:9054   */\n          0x00\n            /* \"#utility.yul\":9087:9129   */\n          0xffffffffffffffffffffffffffffffffffffffff\n            /* \"#utility.yul\":9080:9085   */\n          dup3\n            /* \"#utility.yul\":9076:9130   */\n          and\n            /* \"#utility.yul\":9065:9130   */\n          swap1\n          pop\n            /* \"#utility.yul\":9010:9136   */\n          swap2\n          swap1\n          pop\n          jump\t// out\n            /* \"#utility.yul\":9142:9238   */\n        tag_67:\n            /* \"#utility.yul\":9179:9186   */\n          0x00\n            /* \"#utility.yul\":9208:9232   */\n          tag_181\n            /* \"#utility.yul\":9226:9231   */\n          dup3\n            /* \"#utility.yul\":9208:9232   */\n          tag_66\n          jump\t// in\n        tag_181:\n            /* \"#utility.yul\":9197:9232   */\n          swap1\n          pop\n            /* \"#utility.yul\":9142:9238   */\n          swap2\n          swap1\n          pop\n          jump\t// out\n            /* \"#utility.yul\":9244:9362   */\n        tag_68:\n            /* \"#utility.yul\":9331:9355   */\n          tag_183\n            /* \"#utility.yul\":9349:9354   */\n          dup2\n            /* \"#utility.yul\":9331:9355   */\n          tag_67\n          jump\t// in\n        tag_183:\n            /* \"#utility.yul\":9326:9329   */\n          dup3\n            /* \"#utility.yul\":9319:9356   */\n          mstore\n            /* \"#utility.yul\":9244:9362   */\n          pop\n          pop\n          jump\t// out\n            /* \"#utility.yul\":9368:9590   */\n        tag_17:\n            /* \"#utility.yul\":9461:9465   */\n          0x00\n            /* \"#utility.yul\":9499:9501   */\n          0x20\n            /* \"#utility.yul\":9488:9497   */\n          dup3\n            /* \"#utility.yul\":9484:9502   */\n          add\n            /* \"#utility.yul\":9476:9502   */\n          swap1\n          pop\n            /* \"#utility.yul\":9512:9583   */\n          tag_185\n            /* \"#utility.yul\":9580:9581   */\n          0x00\n            /* \"#utility.yul\":9569:9578   */\n          dup4\n            /* \"#utility.yul\":9565:9582   */\n          add\n            /* \"#utility.yul\":9556:9562   */\n          dup5\n            /* \"#utility.yul\":9512:9583   */\n          tag_68\n          jump\t// in\n        tag_185:\n            /* \"#utility.yul\":9368:9590   */\n          swap3\n          swap2\n          pop\n          pop\n          jump\t// out\n            /* \"#utility.yul\":9596:9776   */\n        tag_69:\n            /* \"#utility.yul\":9644:9721   */\n          0x4e487b7100000000000000000000000000000000000000000000000000000000\n            /* \"#utility.yul\":9641:9642   */\n          0x00\n            /* \"#utility.yul\":9634:9722   */\n          mstore\n            /* \"#utility.yul\":9741:9745   */\n          0x11\n            /* \"#utility.yul\":9738:9739   */\n          0x04\n            /* \"#utility.yul\":9731:9746   */\n          mstore\n            /* \"#utility.yul\":9765:9769   */\n          0x24\n            /* \"#utility.yul\":9762:9763   */\n          0x00\n            /* \"#utility.yul\":9755:9770   */\n          revert\n            /* \"#utility.yul\":9782:9973   */\n        tag_23:\n            /* \"#utility.yul\":9822:9825   */\n          0x00\n            /* \"#utility.yul\":9841:9861   */\n          tag_188\n            /* \"#utility.yul\":9859:9860   */\n          dup3\n            /* \"#utility.yul\":9841:9861   */\n          tag_45\n          jump\t// in\n        tag_188:\n            /* \"#utility.yul\":9836:9861   */\n          swap2\n          pop\n            /* \"#utility.yul\":9875:9895   */\n          tag_189\n            /* \"#utility.yul\":9893:9894   */\n          dup4\n            /* \"#utility.yul\":9875:9895   */\n          tag_45\n          jump\t// in\n        tag_189:\n            /* \"#utility.yul\":9870:9895   */\n          swap3\n          pop\n            /* \"#utility.yul\":9918:9919   */\n          dup3\n            /* \"#utility.yul\":9915:9916   */\n          dup3\n            /* \"#utility.yul\":9911:9920   */\n          add\n            /* \"#utility.yul\":9904:9920   */\n          swap1\n          pop\n            /* \"#utility.yul\":9939:9942   */\n          dup1\n            /* \"#utility.yul\":9936:9937   */\n          dup3\n            /* \"#utility.yul\":9933:9943   */\n          gt\n            /* \"#utility.yul\":9930:9966   */\n          iszero\n          tag_190\n          jumpi\n            /* \"#utility.yul\":9946:9964   */\n          tag_191\n          tag_69\n          jump\t// in\n        tag_191:\n            /* \"#utility.yul\":9930:9966   */\n        tag_190:\n            /* \"#utility.yul\":9782:9973   */\n          swap3\n          swap2\n          pop\n          pop\n          jump\t// out\n            /* \"#utility.yul\":9979:10097   */\n        tag_70:\n            /* \"#utility.yul\":10066:10090   */\n          tag_193\n            /* \"#utility.yul\":10084:10089   */\n          dup2\n            /* \"#utility.yul\":10066:10090   */\n          tag_45\n          jump\t// in\n        tag_193:\n            /* \"#utility.yul\":10061:10064   */\n          dup3\n            /* \"#utility.yul\":10054:10091   */\n          mstore\n            /* \"#utility.yul\":9979:10097   */\n          pop\n          pop\n          jump\t// out\n            /* \"#utility.yul\":10103:10545   */\n        tag_27:\n            /* \"#utility.yul\":10252:10256   */\n          0x00\n            /* \"#utility.yul\":10290:10292   */\n          0x60\n            /* \"#utility.yul\":10279:10288   */\n          dup3\n            /* \"#utility.yul\":10275:10293   */\n          add\n            /* \"#utility.yul\":10267:10293   */\n          swap1\n          pop\n            /* \"#utility.yul\":10303:10374   */\n          tag_195\n            /* \"#utility.yul\":10371:10372   */\n          0x00\n            /* \"#utility.yul\":10360:10369   */\n          dup4\n            /* \"#utility.yul\":10356:10373   */\n          add\n            /* \"#utility.yul\":10347:10353   */\n          dup7\n            /* \"#utility.yul\":10303:10374   */\n          tag_68\n          jump\t// in\n        tag_195:\n            /* \"#utility.yul\":10384:10456   */\n          tag_196\n            /* \"#utility.yul\":10452:10454   */\n          0x20\n            /* \"#utility.yul\":10441:10450   */\n          dup4\n            /* \"#utility.yul\":10437:10455   */\n          add\n            /* \"#utility.yul\":10428:10434   */\n          dup6\n            /* \"#utility.yul\":10384:10456   */\n          tag_70\n          jump\t// in\n        tag_196:\n            /* \"#utility.yul\":10466:10538   */\n          tag_197\n            /* \"#utility.yul\":10534:10536   */\n          0x40\n            /* \"#utility.yul\":10523:10532   */\n          dup4\n            /* \"#utility.yul\":10519:10537   */\n          add\n            /* \"#utility.yul\":10510:10516   */\n          dup5\n            /* \"#utility.yul\":10466:10538   */\n          tag_70\n          jump\t// in\n        tag_197:\n            /* \"#utility.yul\":10103:10545   */\n          swap5\n          swap4\n          pop\n          pop\n          pop\n          pop\n          jump\t// out\n            /* \"#utility.yul\":10551:10773   */\n        tag_31:\n            /* \"#utility.yul\":10644:10648   */\n          0x00\n            /* \"#utility.yul\":10682:10684   */\n          0x20\n            /* \"#utility.yul\":10671:10680   */\n          dup3\n            /* \"#utility.yul\":10667:10685   */\n          add\n            /* \"#utility.yul\":10659:10685   */\n          swap1\n          pop\n            /* \"#utility.yul\":10695:10766   */\n          tag_199\n            /* \"#utility.yul\":10763:10764   */\n          0x00\n            /* \"#utility.yul\":10752:10761   */\n          dup4\n            /* \"#utility.yul\":10748:10765   */\n          add\n            /* \"#utility.yul\":10739:10745   */\n          dup5\n            /* \"#utility.yul\":10695:10766   */\n          tag_70\n          jump\t// in\n        tag_199:\n            /* \"#utility.yul\":10551:10773   */\n          swap3\n          swap2\n          pop\n          pop\n          jump\t// out\n            /* \"contract/Token.sol\":115:293  contract Token is ERC20 {... */\n        tag_13:\n          dataSize(sub_0)\n          dup1\n          dataOffset(sub_0)\n          0x00\n          codecopy\n          0x00\n          return\n        stop\n\n        sub_0: assembly {\n                /* \"contract/Token.sol\":115:293  contract Token is ERC20 {... */\n              mstore(0x40, 0x80)\n              callvalue\n              dup1\n              iszero\n              tag_1\n              jumpi\n              0x00\n              dup1\n              revert\n            tag_1:\n              pop\n              jumpi(tag_2, lt(calldatasize, 0x04))\n              shr(0xe0, calldataload(0x00))\n              dup1\n              0x313ce567\n              gt\n              tag_12\n              jumpi\n              dup1\n              0x313ce567\n              eq\n              tag_7\n              jumpi\n              dup1\n              0x70a08231\n              eq\n              tag_8\n              jumpi\n              dup1\n              0x95d89b41\n              eq\n              tag_9\n              jumpi\n              dup1\n              0xa9059cbb\n              eq\n              tag_10\n              jumpi\n              dup1\n              0xdd62ed3e\n              eq\n              tag_11\n              jumpi\n              jump(tag_2)\n            tag_12:\n              dup1\n              0x06fdde03\n              eq\n              tag_3\n              jumpi\n              dup1\n              0x095ea7b3\n              eq\n              tag_4\n              jumpi\n              dup1\n              0x18160ddd\n              eq\n              tag_5\n              jumpi\n              dup1\n              0x23b872dd\n              eq\n              tag_6\n              jumpi\n            tag_2:\n              0x00\n              dup1\n              revert\n                /* \"@openzeppelin/contracts/token/ERC20/ERC20.sol\":2074:2163  function name() public view virtual returns (string memory) {... */\n            tag_3:\n              tag_13\n              tag_14\n              jump\t// in\n            tag_13:\n              mload(0x40)\n              tag_15\n              swap2\n              swap1\n              tag_16\n              jump\t// in\n            tag_15:\n              mload(0x40)\n              dup1\n              swap2\n              sub\n              swap1\n              return\n                /* \"@openzeppelin/contracts/token/ERC20/ERC20.sol\":4293:4479  function approve(address spender, uint256 value) public virtual returns (bool) {... */\n            tag_4:\n              tag_17\n              0x04\n              dup1\n              calldatasize\n              sub\n              dup2\n              add\n              swap1\n              tag_18\n              swap2\n              swap1\n              tag_19\n              jump\t// in\n            tag_18:\n              tag_20\n              jump\t// in\n            tag_17:\n              mload(0x40)\n              tag_21\n              swap2\n              swap1\n              tag_22\n              jump\t// in\n            tag_21:\n              mload(0x40)\n              dup1\n              swap2\n              sub\n              swap1\n              return\n                /* \"@openzeppelin/contracts/token/ERC20/ERC20.sol\":3144:3241  function totalSupply() public view virtual returns (uint256) {... */\n            tag_5:\n              tag_23\n              tag_24\n              jump\t// in\n            tag_23:\n              mload(0x40)\n              tag_25\n              swap2\n              swap1\n              tag_26\n              jump\t// in\n            tag_25:\n              mload(0x40)\n              dup1\n              swap2\n              sub\n              swap1\n              return\n                /* \"@openzeppelin/contracts/token/ERC20/ERC20.sol\":5039:5283  function transferFrom(address from, address to, uint256 value) public virtual returns (bool) {... */\n            tag_6:\n              tag_27\n              0x04\n              dup1\n              calldatasize\n              sub\n              dup2\n              add\n              swap1\n              tag_28\n              swap2\n              swap1\n              tag_29\n              jump\t// in\n            tag_28:\n              tag_30\n              jump\t// in\n            tag_27:\n              mload(0x40)\n              tag_31\n              swap2\n              swap1\n              tag_22\n              jump\t// in\n            tag_31:\n              mload(0x40)\n              dup1\n              swap2\n              sub\n              swap1\n              return\n                /* \"@openzeppelin/contracts/token/ERC20/ERC20.sol\":3002:3084  function decimals() public view virtual returns (uint8) {... */\n            tag_7:\n              tag_32\n              tag_33\n              jump\t// in\n            tag_32:\n              mload(0x40)\n              tag_34\n              swap2\n              swap1\n              tag_35\n              jump\t// in\n            tag_34:\n              mload(0x40)\n              dup1\n              swap2\n              sub\n              swap1\n              return\n                /* \"@openzeppelin/contracts/token/ERC20/ERC20.sol\":3299:3415  function balanceOf(address account) public view virtual returns (uint256) {... */\n            tag_8:\n              tag_36\n              0x04\n              dup1\n              calldatasize\n              sub\n              dup2\n              add\n              swap1\n              tag_37\n              swap2\n              swap1\n              tag_38\n              jump\t// in\n            tag_37:\n              tag_39\n              jump\t// in\n            tag_36:\n              mload(0x40)\n              tag_40\n              swap2\n              swap1\n              tag_26\n              jump\t// in\n            tag_40:\n              mload(0x40)\n              dup1\n              swap2\n              sub\n              swap1\n              return\n                /* \"@openzeppelin/contracts/token/ERC20/ERC20.sol\":2276:2369  function symbol() public view virtual returns (string memory) {... */\n            tag_9:\n              tag_41\n              tag_42\n              jump\t// in\n            tag_41:\n              mload(0x40)\n              tag_43\n              swap2\n              swap1\n              tag_16\n              jump\t// in\n            tag_43:\n              mload(0x40)\n              dup1\n              swap2\n              sub\n              swap1\n              return\n                /* \"@openzeppelin/contracts/token/ERC20/ERC20.sol\":3610:3788  function transfer(address to, uint256 value) public virtual returns (bool) {... */\n            tag_10:\n              tag_44\n              0x04\n              dup1\n              calldatasize\n              sub\n              dup2\n              add\n              swap1\n              tag_45\n              swap2\n              swap1\n              tag_19\n              jump\t// in\n            tag_45:\n              tag_46\n              jump\t// in\n            tag_44:\n              mload(0x40)\n              tag_47\n              swap2\n              swap1\n              tag_22\n              jump\t// in\n            tag_47:\n              mload(0x40)\n              dup1\n              swap2\n              sub\n              swap1\n              return\n                /* \"@openzeppelin/contracts/token/ERC20/ERC20.sol\":3846:3986  function allowance(address owner, address spender) public view virtual returns (uint256) {... */\n            tag_11:\n              tag_48\n              0x04\n              dup1\n              calldatasize\n              sub\n              dup2\n              add\n              swap1\n              tag_49\n              swap2\n              swap1\n              tag_50\n              jump\t// in\n            tag_49:\n              tag_51\n              jump\t// in\n            tag_48:\n              mload(0x40)\n              tag_52\n              swap2\n              swap1\n              tag_26\n              jump\t// in\n            tag_52:\n              mload(0x40)\n              dup1\n              swap2\n              sub\n              swap1\n              return\n                /* \"@openzeppelin/contracts/token/ERC20/ERC20.sol\":2074:2163  function name() public view virtual returns (string memory) {... */\n            tag_14:\n                /* \"@openzeppelin/contracts/token/ERC20/ERC20.sol\":2119:2132  string memory */\n              0x60\n                /* \"@openzeppelin/contracts/token/ERC20/ERC20.sol\":2151:2156  _name */\n              0x03\n                /* \"@openzeppelin/contracts/token/ERC20/ERC20.sol\":2144:2156  return _name */\n              dup1\n              sload\n              tag_54\n              swap1\n              tag_55\n              jump\t// in\n            tag_54:\n              dup1\n              0x1f\n              add\n              0x20\n              dup1\n              swap2\n              div\n              mul\n              0x20\n              add\n              mload(0x40)\n              swap1\n              dup2\n              add\n              0x40\n              mstore\n              dup1\n              swap3\n              swap2\n              swap1\n              dup2\n              dup2\n              mstore\n              0x20\n              add\n              dup3\n              dup1\n              sload\n              tag_56\n              swap1\n              tag_55\n              jump\t// in\n            tag_56:\n              dup1\n              iszero\n              tag_57\n              jumpi\n              dup1\n              0x1f\n              lt\n              tag_58\n              jumpi\n              0x0100\n              dup1\n              dup4\n              sload\n              div\n              mul\n              dup4\n              mstore\n              swap2\n              0x20\n              add\n              swap2\n              jump(tag_57)\n            tag_58:\n              dup3\n              add\n              swap2\n              swap1\n              0x00\n              mstore\n              keccak256(0x00, 0x20)\n              swap1\n            tag_59:\n              dup2\n              sload\n              dup2\n              mstore\n              swap1\n              0x01\n              add\n              swap1\n              0x20\n              add\n              dup1\n              dup4\n              gt\n              tag_59\n              jumpi\n              dup3\n              swap1\n              sub\n              0x1f\n              and\n              dup3\n              add\n              swap2\n            tag_57:\n              pop\n              pop\n              pop\n              pop\n              pop\n              swap1\n              pop\n                /* \"@openzeppelin/contracts/token/ERC20/ERC20.sol\":2074:2163  function name() public view virtual returns (string memory) {... */\n              swap1\n              jump\t// out\n                /* \"@openzeppelin/contracts/token/ERC20/ERC20.sol\":4293:4479  function approve(address spender, uint256 value) public virtual returns (bool) {... */\n            tag_20:\n                /* \"@openzeppelin/contracts/token/ERC20/ERC20.sol\":4366:4370  bool */\n              0x00\n                /* \"@openzeppelin/contracts/token/ERC20/ERC20.sol\":4382:4395  address owner */\n              dup1\n                /* \"@openzeppelin/contracts/token/ERC20/ERC20.sol\":4398:4410  _msgSender() */\n              tag_61\n                /* \"@openzeppelin/contracts/token/ERC20/ERC20.sol\":4398:4408  _msgSender */\n              tag_62\n                /* \"@openzeppelin/contracts/token/ERC20/ERC20.sol\":4398:4410  _msgSender() */\n              jump\t// in\n            tag_61:\n                /* \"@openzeppelin/contracts/token/ERC20/ERC20.sol\":4382:4410  address owner = _msgSender() */\n              swap1\n              pop\n                /* \"@openzeppelin/contracts/token/ERC20/ERC20.sol\":4420:4451  _approve(owner, spender, value) */\n              tag_63\n                /* \"@openzeppelin/contracts/token/ERC20/ERC20.sol\":4429:4434  owner */\n              dup2\n                /* \"@openzeppelin/contracts/token/ERC20/ERC20.sol\":4436:4443  spender */\n              dup6\n                /* \"@openzeppelin/contracts/token/ERC20/ERC20.sol\":4445:4450  value */\n              dup6\n                /* \"@openzeppelin/contracts/token/ERC20/ERC20.sol\":4420:4428  _approve */\n              tag_64\n                /* \"@openzeppelin/contracts/token/ERC20/ERC20.sol\":4420:4451  _approve(owner, spender, value) */\n              jump\t// in\n            tag_63:\n                /* \"@openzeppelin/contracts/token/ERC20/ERC20.sol\":4468:4472  true */\n              0x01\n                /* \"@openzeppelin/contracts/token/ERC20/ERC20.sol\":4461:4472  return true */\n              swap2\n              pop\n              pop\n                /* \"@openzeppelin/contracts/token/ERC20/ERC20.sol\":4293:4479  function approve(address spender, uint256 value) public virtual returns (bool) {... */\n              swap3\n              swap2\n              pop\n              pop\n              jump\t// out\n                /* \"@openzeppelin/contracts/token/ERC20/ERC20.sol\":3144:3241  function totalSupply() public view virtual returns (uint256) {... */\n            tag_24:\n                /* \"@openzeppelin/contracts/token/ERC20/ERC20.sol\":3196:3203  uint256 */\n              0x00\n                /* \"@openzeppelin/contracts/token/ERC20/ERC20.sol\":3222:3234  _totalSupply */\n              sload(0x02)\n                /* \"@openzeppelin/contracts/token/ERC20/ERC20.sol\":3215:3234  return _totalSupply */\n              swap1\n              pop\n                /* \"@openzeppelin/contracts/token/ERC20/ERC20.sol\":3144:3241  function totalSupply() public view virtual returns (uint256) {... */\n              swap1\n              jump\t// out\n                /* \"@openzeppelin/contracts/token/ERC20/ERC20.sol\":5039:5283  function transferFrom(address from, address to, uint256 value) public virtual returns (bool) {... */\n            tag_30:\n                /* \"@openzeppelin/contracts/token/ERC20/ERC20.sol\":5126:5130  bool */\n              0x00\n                /* \"@openzeppelin/contracts/token/ERC20/ERC20.sol\":5142:5157  address spender */\n              dup1\n                /* \"@openzeppelin/contracts/token/ERC20/ERC20.sol\":5160:5172  _msgSender() */\n              tag_67\n                /* \"@openzeppelin/contracts/token/ERC20/ERC20.sol\":5160:5170  _msgSender */\n              tag_62\n                /* \"@openzeppelin/contracts/token/ERC20/ERC20.sol\":5160:5172  _msgSender() */\n              jump\t// in\n            tag_67:\n                /* \"@openzeppelin/contracts/token/ERC20/ERC20.sol\":5142:5172  address spender = _msgSender() */\n              swap1\n              pop\n                /* \"@openzeppelin/contracts/token/ERC20/ERC20.sol\":5182:5219  _spendAllowance(from, spender, value) */\n              tag_68\n                /* \"@openzeppelin/contracts/token/ERC20/ERC20.sol\":5198:5202  from */\n              dup6\n                /* \"@openzeppelin/contracts/token/ERC20/ERC20.sol\":5204:5211  spender */\n              dup3\n                /* \"@openzeppelin/contracts/token/ERC20/ERC20.sol\":5213:5218  value */\n              dup6\n                /* \"@openzeppelin/contracts/token/ERC20/ERC20.sol\":5182:5197  _spendAllowance */\n              tag_69\n                /* \"@openzeppelin/contracts/token/ERC20/ERC20.sol\":5182:5219  _spendAllowance(from, spender, value) */\n              jump\t// in\n            tag_68:\n                /* \"@openzeppelin/contracts/token/ERC20/ERC20.sol\":5229:5255  _transfer(from, to, value) */\n              tag_70\n                /* \"@openzeppelin/contracts/token/ERC20/ERC20.sol\":5239:5243  from */\n              dup6\n                /* \"@openzeppelin/contracts/token/ERC20/ERC20.sol\":5245:5247  to */\n              dup6\n                /* \"@openzeppelin/contracts/token/ERC20/ERC20.sol\":5249:5254  value */\n              dup6\n                /* \"@openzeppelin/contracts/token/ERC20/ERC20.sol\":5229:5238  _transfer */\n              tag_71\n                /* \"@openzeppelin/contracts/token/ERC20/ERC20.sol\":5229:5255  _transfer(from, to, value) */\n              jump\t// in\n            tag_70:\n                /* \"@openzeppelin/contracts/token/ERC20/ERC20.sol\":5272:5276  true */\n              0x01\n                /* \"@openzeppelin/contracts/token/ERC20/ERC20.sol\":5265:5276  return true */\n              swap2\n              pop\n              pop\n                /* \"@openzeppelin/contracts/token/ERC20/ERC20.sol\":5039:5283  function transferFrom(address from, address to, uint256 value) public virtual returns (bool) {... */\n              swap4\n              swap3\n              pop\n              pop\n              pop\n              jump\t// out\n                /* \"@openzeppelin/contracts/token/ERC20/ERC20.sol\":3002:3084  function decimals() public view virtual returns (uint8) {... */\n            tag_33:\n                /* \"@openzeppelin/contracts/token/ERC20/ERC20.sol\":3051:3056  uint8 */\n              0x00\n                /* \"@openzeppelin/contracts/token/ERC20/ERC20.sol\":3075:3077  18 */\n              0x12\n                /* \"@openzeppelin/contracts/token/ERC20/ERC20.sol\":3068:3077  return 18 */\n              swap1\n              pop\n                /* \"@openzeppelin/contracts/token/ERC20/ERC20.sol\":3002:3084  function decimals() public view virtual returns (uint8) {... */\n              swap1\n              jump\t// out\n                /* \"@openzeppelin/contracts/token/ERC20/ERC20.sol\":3299:3415  function balanceOf(address account) public view virtual returns (uint256) {... */\n            tag_39:\n                /* \"@openzeppelin/contracts/token/ERC20/ERC20.sol\":3364:3371  uint256 */\n              0x00\n                /* \"@openzeppelin/contracts/token/ERC20/ERC20.sol\":3390:3399  _balances */\n              dup1\n                /* \"@openzeppelin/contracts/token/ERC20/ERC20.sol\":3390:3408  _balances[account] */\n              0x00\n                /* \"@openzeppelin/contracts/token/ERC20/ERC20.sol\":3400:3407  account */\n              dup4\n                /* \"@openzeppelin/contracts/token/ERC20/ERC20.sol\":3390:3408  _balances[account] */\n              0xffffffffffffffffffffffffffffffffffffffff\n              and\n              0xffffffffffffffffffffffffffffffffffffffff\n              and\n              dup2\n              mstore\n              0x20\n              add\n              swap1\n              dup2\n              mstore\n              0x20\n              add\n              0x00\n              keccak256\n              sload\n                /* \"@openzeppelin/contracts/token/ERC20/ERC20.sol\":3383:3408  return _balances[account] */\n              swap1\n              pop\n                /* \"@openzeppelin/contracts/token/ERC20/ERC20.sol\":3299:3415  function balanceOf(address account) public view virtual returns (uint256) {... */\n              swap2\n              swap1\n              pop\n              jump\t// out\n                /* \"@openzeppelin/contracts/token/ERC20/ERC20.sol\":2276:2369  function symbol() public view virtual returns (string memory) {... */\n            tag_42:\n                /* \"@openzeppelin/contracts/token/ERC20/ERC20.sol\":2323:2336  string memory */\n              0x60\n                /* \"@openzeppelin/contracts/token/ERC20/ERC20.sol\":2355:2362  _symbol */\n              0x04\n                /* \"@openzeppelin/contracts/token/ERC20/ERC20.sol\":2348:2362  return _symbol */\n              dup1\n              sload\n              tag_75\n              swap1\n              tag_55\n              jump\t// in\n            tag_75:\n              dup1\n              0x1f\n              add\n              0x20\n              dup1\n              swap2\n              div\n              mul\n              0x20\n              add\n              mload(0x40)\n              swap1\n              dup2\n              add\n              0x40\n              mstore\n              dup1\n              swap3\n              swap2\n              swap1\n              dup2\n              dup2\n              mstore\n              0x20\n              add\n              dup3\n              dup1\n              sload\n              tag_76\n              swap1\n              tag_55\n              jump\t// in\n            tag_76:\n              dup1\n              iszero\n              tag_77\n              jumpi\n              dup1\n              0x1f\n              lt\n              tag_78\n              jumpi\n              0x0100\n              dup1\n              dup4\n              sload\n              div\n              mul\n              dup4\n              mstore\n              swap2\n              0x20\n              add\n              swap2\n              jump(tag_77)\n            tag_78:\n              dup3\n              add\n              swap2\n              swap1\n              0x00\n              mstore\n              keccak256(0x00, 0x20)\n              swap1\n            tag_79:\n              dup2\n              sload\n              dup2\n              mstore\n              swap1\n              0x01\n              add\n              swap1\n              0x20\n              add\n              dup1\n              dup4\n              gt\n              tag_79\n              jumpi\n              dup3\n              swap1\n              sub\n              0x1f\n              and\n              dup3\n              add\n              swap2\n            tag_77:\n              pop\n              pop\n              pop\n              pop\n              pop\n              swap1\n              pop\n                /* \"@openzeppelin/contracts/token/ERC20/ERC20.sol\":2276:2369  function symbol() public view virtual returns (string memory) {... */\n              swap1\n              jump\t// out\n                /* \"@openzeppelin/contracts/token/ERC20/ERC20.sol\":3610:3788  function transfer(address to, uint256 value) public virtual returns (bool) {... */\n            tag_46:\n                /* \"@openzeppelin/contracts/token/ERC20/ERC20.sol\":3679:3683  bool */\n              0x00\n                /* \"@openzeppelin/contracts/token/ERC20/ERC20.sol\":3695:3708  address owner */\n              dup1\n                /* \"@openzeppelin/contracts/token/ERC20/ERC20.sol\":3711:3723  _msgSender() */\n              tag_81\n                /* \"@openzeppelin/contracts/token/ERC20/ERC20.sol\":3711:3721  _msgSender */\n              tag_62\n                /* \"@openzeppelin/contracts/token/ERC20/ERC20.sol\":3711:3723  _msgSender() */\n              jump\t// in\n            tag_81:\n                /* \"@openzeppelin/contracts/token/ERC20/ERC20.sol\":3695:3723  address owner = _msgSender() */\n              swap1\n              pop\n                /* \"@openzeppelin/contracts/token/ERC20/ERC20.sol\":3733:3760  _transfer(owner, to, value) */\n              tag_82\n                /* \"@openzeppelin/contracts/token/ERC20/ERC20.sol\":3743:3748  owner */\n              dup2\n                /* \"@openzeppelin/contracts/token/ERC20/ERC20.sol\":3750:3752  to */\n              dup6\n                /* \"@openzeppelin/contracts/token/ERC20/ERC20.sol\":3754:3759  value */\n              dup6\n                /* \"@openzeppelin/contracts/token/ERC20/ERC20.sol\":3733:3742  _transfer */\n              tag_71\n                /* \"@openzeppelin/contracts/token/ERC20/ERC20.sol\":3733:3760  _transfer(owner, to, value) */\n              jump\t// in\n            tag_82:\n                /* \"@openzeppelin/contracts/token/ERC20/ERC20.sol\":3777:3781  true */\n              0x01\n                /* \"@openzeppelin/contracts/token/ERC20/ERC20.sol\":3770:3781  return true */\n              swap2\n              pop\n              pop\n                /* \"@openzeppelin/contracts/token/ERC20/ERC20.sol\":3610:3788  function transfer(address to, uint256 value) public virtual returns (bool) {... */\n              swap3\n              swap2\n              pop\n              pop\n              jump\t// out\n                /* \"@openzeppelin/contracts/token/ERC20/ERC20.sol\":3846:3986  function allowance(address owner, address spender) public view virtual returns (uint256) {... */\n            tag_51:\n                /* \"@openzeppelin/contracts/token/ERC20/ERC20.sol\":3926:3933  uint256 */\n              0x00\n                /* \"@openzeppelin/contracts/token/ERC20/ERC20.sol\":3952:3963  _allowances */\n              0x01\n                /* \"@openzeppelin/contracts/token/ERC20/ERC20.sol\":3952:3970  _allowances[owner] */\n              0x00\n                /* \"@openzeppelin/contracts/token/ERC20/ERC20.sol\":3964:3969  owner */\n              dup5\n                /* \"@openzeppelin/contracts/token/ERC20/ERC20.sol\":3952:3970  _allowances[owner] */\n              0xffffffffffffffffffffffffffffffffffffffff\n              and\n              0xffffffffffffffffffffffffffffffffffffffff\n              and\n              dup2\n              mstore\n              0x20\n              add\n              swap1\n              dup2\n              mstore\n              0x20\n              add\n              0x00\n              keccak256\n                /* \"@openzeppelin/contracts/token/ERC20/ERC20.sol\":3952:3979  _allowances[owner][spender] */\n              0x00\n                /* \"@openzeppelin/contracts/token/ERC20/ERC20.sol\":3971:3978  spender */\n              dup4\n                /* \"@openzeppelin/contracts/token/ERC20/ERC20.sol\":3952:3979  _allowances[owner][spender] */\n              0xffffffffffffffffffffffffffffffffffffffff\n              and\n              0xffffffffffffffffffffffffffffffffffffffff\n              and\n              dup2\n              mstore\n              0x20\n              add\n              swap1\n              dup2\n              mstore\n              0x20\n              add\n              0x00\n              keccak256\n              sload\n                /* \"@openzeppelin/contracts/token/ERC20/ERC20.sol\":3945:3979  return _allowances[owner][spender] */\n              swap1\n              pop\n                /* \"@openzeppelin/contracts/token/ERC20/ERC20.sol\":3846:3986  function allowance(address owner, address spender) public view virtual returns (uint256) {... */\n              swap3\n              swap2\n              pop\n              pop\n              jump\t// out\n                /* \"@openzeppelin/contracts/utils/Context.sol\":656:752  function _msgSender() internal view virtual returns (address) {... */\n            tag_62:\n                /* \"@openzeppelin/contracts/utils/Context.sol\":709:716  address */\n              0x00\n                /* \"@openzeppelin/contracts/utils/Context.sol\":735:745  msg.sender */\n              caller\n                /* \"@openzeppelin/contracts/utils/Context.sol\":728:745  return msg.sender */\n              swap1\n              pop\n                /* \"@openzeppelin/contracts/utils/Context.sol\":656:752  function _msgSender() internal view virtual returns (address) {... */\n              swap1\n              jump\t// out\n                /* \"@openzeppelin/contracts/token/ERC20/ERC20.sol\":8989:9117  function _approve(address owner, address spender, uint256 value) internal {... */\n            tag_64:\n                /* \"@openzeppelin/contracts/token/ERC20/ERC20.sol\":9073:9110  _approve(owner, spender, value, true) */\n              tag_86\n                /* \"@openzeppelin/contracts/token/ERC20/ERC20.sol\":9082:9087  owner */\n              dup4\n                /* \"@openzeppelin/contracts/token/ERC20/ERC20.sol\":9089:9096  spender */\n              dup4\n                /* \"@openzeppelin/contracts/token/ERC20/ERC20.sol\":9098:9103  value */\n              dup4\n                /* \"@openzeppelin/contracts/token/ERC20/ERC20.sol\":9105:9109  true */\n              0x01\n                /* \"@openzeppelin/contracts/token/ERC20/ERC20.sol\":9073:9081  _approve */\n              tag_87\n                /* \"@openzeppelin/contracts/token/ERC20/ERC20.sol\":9073:9110  _approve(owner, spender, value, true) */\n              jump\t// in\n            tag_86:\n                /* \"@openzeppelin/contracts/token/ERC20/ERC20.sol\":8989:9117  function _approve(address owner, address spender, uint256 value) internal {... */\n              pop\n              pop\n              pop\n              jump\t// out\n                /* \"@openzeppelin/contracts/token/ERC20/ERC20.sol\":10663:11140  function _spendAllowance(address owner, address spender, uint256 value) internal virtual {... */\n            tag_69:\n                /* \"@openzeppelin/contracts/token/ERC20/ERC20.sol\":10762:10786  uint256 currentAllowance */\n              0x00\n                /* \"@openzeppelin/contracts/token/ERC20/ERC20.sol\":10789:10814  allowance(owner, spender) */\n              tag_89\n                /* \"@openzeppelin/contracts/token/ERC20/ERC20.sol\":10799:10804  owner */\n              dup5\n                /* \"@openzeppelin/contracts/token/ERC20/ERC20.sol\":10806:10813  spender */\n              dup5\n                /* \"@openzeppelin/contracts/token/ERC20/ERC20.sol\":10789:10798  allowance */\n              tag_51\n                /* \"@openzeppelin/contracts/token/ERC20/ERC20.sol\":10789:10814  allowance(owner, spender) */\n              jump\t// in\n            tag_89:\n                /* \"@openzeppelin/contracts/token/ERC20/ERC20.sol\":10762:10814  uint256 currentAllowance = allowance(owner, spender) */\n              swap1\n              pop\n                /* \"@openzeppelin/contracts/token/ERC20/ERC20.sol\":10848:10865  type(uint256).max */\n              0xffffffffffffffffffffffffffffffffffffffffffffffffffffffffffffffff\n                /* \"@openzeppelin/contracts/token/ERC20/ERC20.sol\":10828:10844  currentAllowance */\n              dup2\n                /* \"@openzeppelin/contracts/token/ERC20/ERC20.sol\":10828:10865  currentAllowance != type(uint256).max */\n              eq\n                /* \"@openzeppelin/contracts/token/ERC20/ERC20.sol\":10824:11134  if (currentAllowance != type(uint256).max) {... */\n              tag_90\n              jumpi\n                /* \"@openzeppelin/contracts/token/ERC20/ERC20.sol\":10904:10909  value */\n              dup2\n                /* \"@openzeppelin/contracts/token/ERC20/ERC20.sol\":10885:10901  currentAllowance */\n              dup2\n                /* \"@openzeppelin/contracts/token/ERC20/ERC20.sol\":10885:10909  currentAllowance < value */\n              lt\n                /* \"@openzeppelin/contracts/token/ERC20/ERC20.sol\":10881:11011  if (currentAllowance < value) {... */\n              iszero\n              tag_91\n              jumpi\n                /* \"@openzeppelin/contracts/token/ERC20/ERC20.sol\":10963:10970  spender */\n              dup3\n                /* \"@openzeppelin/contracts/token/ERC20/ERC20.sol\":10972:10988  currentAllowance */\n              dup2\n                /* \"@openzeppelin/contracts/token/ERC20/ERC20.sol\":10990:10995  value */\n              dup4\n                /* \"@openzeppelin/contracts/token/ERC20/ERC20.sol\":10936:10996  ERC20InsufficientAllowance(spender, currentAllowance, value) */\n              mload(0x40)\n              0xfb8f41b200000000000000000000000000000000000000000000000000000000\n              dup2\n              mstore\n              0x04\n              add\n              tag_92\n              swap4\n              swap3\n              swap2\n              swap1\n              tag_93\n              jump\t// in\n            tag_92:\n              mload(0x40)\n              dup1\n              swap2\n              sub\n              swap1\n              revert\n                /* \"@openzeppelin/contracts/token/ERC20/ERC20.sol\":10881:11011  if (currentAllowance < value) {... */\n            tag_91:\n                /* \"@openzeppelin/contracts/token/ERC20/ERC20.sol\":11052:11109  _approve(owner, spender, currentAllowance - value, false) */\n              tag_94\n                /* \"@openzeppelin/contracts/token/ERC20/ERC20.sol\":11061:11066  owner */\n              dup5\n                /* \"@openzeppelin/contracts/token/ERC20/ERC20.sol\":11068:11075  spender */\n              dup5\n                /* \"@openzeppelin/contracts/token/ERC20/ERC20.sol\":11096:11101  value */\n              dup5\n                /* \"@openzeppelin/contracts/token/ERC20/ERC20.sol\":11077:11093  currentAllowance */\n              dup5\n                /* \"@openzeppelin/contracts/token/ERC20/ERC20.sol\":11077:11101  currentAllowance - value */\n              sub\n                /* \"@openzeppelin/contracts/token/ERC20/ERC20.sol\":11103:11108  false */\n              0x00\n                /* \"@openzeppelin/contracts/token/ERC20/ERC20.sol\":11052:11060  _approve */\n              tag_87\n                /* \"@openzeppelin/contracts/token/ERC20/ERC20.sol\":11052:11109  _approve(owner, spender, currentAllowance - value, false) */\n              jump\t// in\n            tag_94:\n                /* \"@openzeppelin/contracts/token/ERC20/ERC20.sol\":10824:11134  if (currentAllowance != type(uint256).max) {... */\n            tag_90:\n                /* \"@openzeppelin/contracts/token/ERC20/ERC20.sol\":10752:11140  {... */\n              pop\n                /* \"@openzeppelin/contracts/token/ERC20/ERC20.sol\":10663:11140  function _spendAllowance(address owner, address spender, uint256 value) internal virtual {... */\n              pop\n              pop\n              pop\n              jump\t// out\n                /* \"@openzeppelin/contracts/token/ERC20/ERC20.sol\":5656:5956  function _transfer(address from, address to, uint256 value) internal {... */\n            tag_71:\n                /* \"@openzeppelin/contracts/token/ERC20/ERC20.sol\":5755:5756  0 */\n              0x00\n                /* \"@openzeppelin/contracts/token/ERC20/ERC20.sol\":5739:5757  from == address(0) */\n              0xffffffffffffffffffffffffffffffffffffffff\n              and\n                /* \"@openzeppelin/contracts/token/ERC20/ERC20.sol\":5739:5743  from */\n              dup4\n                /* \"@openzeppelin/contracts/token/ERC20/ERC20.sol\":5739:5757  from == address(0) */\n              0xffffffffffffffffffffffffffffffffffffffff\n              and\n              sub\n                /* \"@openzeppelin/contracts/token/ERC20/ERC20.sol\":5735:5821  if (from == address(0)) {... */\n              tag_96\n              jumpi\n                /* \"@openzeppelin/contracts/token/ERC20/ERC20.sol\":5807:5808  0 */\n              0x00\n                /* \"@openzeppelin/contracts/token/ERC20/ERC20.sol\":5780:5810  ERC20InvalidSender(address(0)) */\n              mload(0x40)\n              0x96c6fd1e00000000000000000000000000000000000000000000000000000000\n              dup2\n              mstore\n              0x04\n              add\n              tag_97\n              swap2\n              swap1\n              tag_98\n              jump\t// in\n            tag_97:\n              mload(0x40)\n              dup1\n              swap2\n              sub\n              swap1\n              revert\n                /* \"@openzeppelin/contracts/token/ERC20/ERC20.sol\":5735:5821  if (from == address(0)) {... */\n            tag_96:\n                /* \"@openzeppelin/contracts/token/ERC20/ERC20.sol\":5848:5849  0 */\n              0x00\n                /* \"@openzeppelin/contracts/token/ERC20/ERC20.sol\":5834:5850  to == address(0) */\n              0xffffffffffffffffffffffffffffffffffffffff\n              and\n                /* \"@openzeppelin/contracts/token/ERC20/ERC20.sol\":5834:5836  to */\n              dup3\n                /* \"@openzeppelin/contracts/token/ERC20/ERC20.sol\":5834:5850  to == address(0) */\n              0xffffffffffffffffffffffffffffffffffffffff\n              and\n              sub\n                /* \"@openzeppelin/contracts/token/ERC20/ERC20.sol\":5830:5916  if (to == address(0)) {... */\n              tag_99\n              jumpi\n                /* \"@openzeppelin/contracts/token/ERC20/ERC20.sol\":5902:5903  0 */\n              0x00\n                /* \"@openzeppelin/contracts/token/ERC20/ERC20.sol\":5873:5905  ERC20InvalidReceiver(address(0)) */\n              mload(0x40)\n              0xec442f0500000000000000000000000000000000000000000000000000000000\n              dup2\n              mstore\n              0x04\n              add\n              tag_100\n              swap2\n              swap1\n              tag_98\n              jump\t// in\n            tag_100:\n              mload(0x40)\n              dup1\n              swap2\n              sub\n              swap1\n              revert\n                /* \"@openzeppelin/contracts/token/ERC20/ERC20.sol\":5830:5916  if (to == address(0)) {... */\n            tag_99:\n                /* \"@openzeppelin/contracts/token/ERC20/ERC20.sol\":5925:5949  _update(from, to, value) */\n              tag_101\n                /* \"@openzeppelin/contracts/token/ERC20/ERC20.sol\":5933:5937  from */\n              dup4\n                /* \"@openzeppelin/contracts/token/ERC20/ERC20.sol\":5939:5941  to */\n              dup4\n                /* \"@openzeppelin/contracts/token/ERC20/ERC20.sol\":5943:5948  value */\n              dup4\n                /* \"@openzeppelin/contracts/token/ERC20/ERC20.sol\":5925:5932  _update */\n              tag_102\n                /* \"@openzeppelin/contracts/token/ERC20/ERC20.sol\":5925:5949  _update(from, to, value) */\n              jump\t// in\n            tag_101:\n                /* \"@openzeppelin/contracts/token/ERC20/ERC20.sol\":5656:5956  function _transfer(address from, address to, uint256 value) internal {... */\n              pop\n              pop\n              pop\n              jump\t// out\n                /* \"@openzeppelin/contracts/token/ERC20/ERC20.sol\":9949:10381  function _approve(address owner, address spender, uint256 value, bool emitEvent) internal virtual {... */\n            tag_87:\n                /* \"@openzeppelin/contracts/token/ERC20/ERC20.sol\":10078:10079  0 */\n              0x00\n                /* \"@openzeppelin/contracts/token/ERC20/ERC20.sol\":10061:10080  owner == address(0) */\n              0xffffffffffffffffffffffffffffffffffffffff\n              and\n                /* \"@openzeppelin/contracts/token/ERC20/ERC20.sol\":10061:10066  owner */\n              dup5\n                /* \"@openzeppelin/contracts/token/ERC20/ERC20.sol\":10061:10080  owner == address(0) */\n              0xffffffffffffffffffffffffffffffffffffffff\n              and\n              sub\n                /* \"@openzeppelin/contracts/token/ERC20/ERC20.sol\":10057:10146  if (owner == address(0)) {... */\n              tag_104\n              jumpi\n                /* \"@openzeppelin/contracts/token/ERC20/ERC20.sol\":10132:10133  0 */\n              0x00\n                /* \"@openzeppelin/contracts/token/ERC20/ERC20.sol\":10103:10135  ERC20InvalidApprover(address(0)) */\n              mload(0x40)\n              0xe602df0500000000000000000000000000000000000000000000000000000000\n              dup2\n              mstore\n              0x04\n              add\n              tag_105\n              swap2\n              swap1\n              tag_98\n              jump\t// in\n            tag_105:\n              mload(0x40)\n              dup1\n              swap2\n              sub\n              swap1\n              revert\n                /* \"@openzeppelin/contracts/token/ERC20/ERC20.sol\":10057:10146  if (owner == address(0)) {... */\n            tag_104:\n                /* \"@openzeppelin/contracts/token/ERC20/ERC20.sol\":10178:10179  0 */\n              0x00\n                /* \"@openzeppelin/contracts/token/ERC20/ERC20.sol\":10159:10180  spender == address(0) */\n              0xffffffffffffffffffffffffffffffffffffffff\n              and\n                /* \"@openzeppelin/contracts/token/ERC20/ERC20.sol\":10159:10166  spender */\n              dup4\n                /* \"@openzeppelin/contracts/token/ERC20/ERC20.sol\":10159:10180  spender == address(0) */\n              0xffffffffffffffffffffffffffffffffffffffff\n              and\n              sub\n                /* \"@openzeppelin/contracts/token/ERC20/ERC20.sol\":10155:10245  if (spender == address(0)) {... */\n              tag_106\n              jumpi\n                /* \"@openzeppelin/contracts/token/ERC20/ERC20.sol\":10231:10232  0 */\n              0x00\n                /* \"@openzeppelin/contracts/token/ERC20/ERC20.sol\":10203:10234  ERC20InvalidSpender(address(0)) */\n              mload(0x40)\n              0x94280d6200000000000000000000000000000000000000000000000000000000\n              dup2\n              mstore\n              0x04\n              add\n              tag_107\n              swap2\n              swap1\n              tag_98\n              jump\t// in\n            tag_107:\n              mload(0x40)\n              dup1\n              swap2\n              sub\n              swap1\n              revert\n                /* \"@openzeppelin/contracts/token/ERC20/ERC20.sol\":10155:10245  if (spender == address(0)) {... */\n            tag_106:\n                /* \"@openzeppelin/contracts/token/ERC20/ERC20.sol\":10284:10289  value */\n              dup2\n                /* \"@openzeppelin/contracts/token/ERC20/ERC20.sol\":10254:10265  _allowances */\n              0x01\n                /* \"@openzeppelin/contracts/token/ERC20/ERC20.sol\":10254:10272  _allowances[owner] */\n              0x00\n                /* \"@openzeppelin/contracts/token/ERC20/ERC20.sol\":10266:10271  owner */\n              dup7\n                /* \"@openzeppelin/contracts/token/ERC20/ERC20.sol\":10254:10272  _allowances[owner] */\n              0xffffffffffffffffffffffffffffffffffffffff\n              and\n              0xffffffffffffffffffffffffffffffffffffffff\n              and\n              dup2\n              mstore\n              0x20\n              add\n              swap1\n              dup2\n              mstore\n              0x20\n              add\n              0x00\n              keccak256\n                /* \"@openzeppelin/contracts/token/ERC20/ERC20.sol\":10254:10281  _allowances[owner][spender] */\n              0x00\n                /* \"@openzeppelin/contracts/token/ERC20/ERC20.sol\":10273:10280  spender */\n              dup6\n                /* \"@openzeppelin/contracts/token/ERC20/ERC20.sol\":10254:10281  _allowances[owner][spender] */\n              0xffffffffffffffffffffffffffffffffffffffff\n              and\n              0xffffffffffffffffffffffffffffffffffffffff\n              and\n              dup2\n              mstore\n              0x20\n              add\n              swap1\n              dup2\n              mstore\n              0x20\n              add\n              0x00\n              keccak256\n                /* \"@openzeppelin/contracts/token/ERC20/ERC20.sol\":10254:10289  _allowances[owner][spender] = value */\n              dup2\n              swap1\n              sstore\n              pop\n                /* \"@openzeppelin/contracts/token/ERC20/ERC20.sol\":10303:10312  emitEvent */\n              dup1\n                /* \"@openzeppelin/contracts/token/ERC20/ERC20.sol\":10299:10375  if (emitEvent) {... */\n              iszero\n              tag_108\n              jumpi\n                /* \"@openzeppelin/contracts/token/ERC20/ERC20.sol\":10349:10356  spender */\n              dup3\n                /* \"@openzeppelin/contracts/token/ERC20/ERC20.sol\":10333:10364  Approval(owner, spender, value) */\n              0xffffffffffffffffffffffffffffffffffffffff\n              and\n                /* \"@openzeppelin/contracts/token/ERC20/ERC20.sol\":10342:10347  owner */\n              dup5\n                /* \"@openzeppelin/contracts/token/ERC20/ERC20.sol\":10333:10364  Approval(owner, spender, value) */\n              0xffffffffffffffffffffffffffffffffffffffff\n              and\n              0x8c5be1e5ebec7d5bd14f71427d1e84f3dd0314c0f7b2291e5b200ac8c7c3b925\n                /* \"@openzeppelin/contracts/token/ERC20/ERC20.sol\":10358:10363  value */\n              dup5\n                /* \"@openzeppelin/contracts/token/ERC20/ERC20.sol\":10333:10364  Approval(owner, spender, value) */\n              mload(0x40)\n              tag_109\n              swap2\n              swap1\n              tag_26\n              jump\t// in\n            tag_109:\n              mload(0x40)\n              dup1\n              swap2\n              sub\n              swap1\n              log3\n                /* \"@openzeppelin/contracts/token/ERC20/ERC20.sol\":10299:10375  if (emitEvent) {... */\n            tag_108:\n                /* \"@openzeppelin/contracts/token/ERC20/ERC20.sol\":9949:10381  function _approve(address owner, address spender, uint256 value, bool emitEvent) internal virtual {... */\n              pop\n              pop\n              pop\n              pop\n              jump\t// out\n                /* \"@openzeppelin/contracts/token/ERC20/ERC20.sol\":6271:7378  function _update(address from, address to, uint256 value) internal virtual {... */\n            tag_102:\n                /* \"@openzeppelin/contracts/token/ERC20/ERC20.sol\":6376:6377  0 */\n              0x00\n                /* \"@openzeppelin/contracts/token/ERC20/ERC20.sol\":6360:6378  from == address(0) */\n              0xffffffffffffffffffffffffffffffffffffffff\n              and\n                /* \"@openzeppelin/contracts/token/ERC20/ERC20.sol\":6360:6364  from */\n              dup4\n                /* \"@openzeppelin/contracts/token/ERC20/ERC20.sol\":6360:6378  from == address(0) */\n              0xffffffffffffffffffffffffffffffffffffffff\n              and\n              sub\n                /* \"@openzeppelin/contracts/token/ERC20/ERC20.sol\":6356:6896  if (from == address(0)) {... */\n              tag_111\n              jumpi\n                /* \"@openzeppelin/contracts/token/ERC20/ERC20.sol\":6512:6517  value */\n              dup1\n                /* \"@openzeppelin/contracts/token/ERC20/ERC20.sol\":6496:6508  _totalSupply */\n              0x02\n              0x00\n                /* \"@openzeppelin/contracts/token/ERC20/ERC20.sol\":6496:6517  _totalSupply += value */\n              dup3\n              dup3\n              sload\n              tag_112\n              swap2\n              swap1\n              tag_113\n              jump\t// in\n            tag_112:\n              swap3\n              pop\n              pop\n              dup2\n              swap1\n              sstore\n              pop\n                /* \"@openzeppelin/contracts/token/ERC20/ERC20.sol\":6356:6896  if (from == address(0)) {... */\n              jump(tag_114)\n            tag_111:\n                /* \"@openzeppelin/contracts/token/ERC20/ERC20.sol\":6548:6567  uint256 fromBalance */\n              0x00\n                /* \"@openzeppelin/contracts/token/ERC20/ERC20.sol\":6570:6579  _balances */\n              dup1\n                /* \"@openzeppelin/contracts/token/ERC20/ERC20.sol\":6570:6585  _balances[from] */\n              0x00\n                /* \"@openzeppelin/contracts/token/ERC20/ERC20.sol\":6580:6584  from */\n              dup6\n                /* \"@openzeppelin/contracts/token/ERC20/ERC20.sol\":6570:6585  _balances[from] */\n              0xffffffffffffffffffffffffffffffffffffffff\n              and\n              0xffffffffffffffffffffffffffffffffffffffff\n              and\n              dup2\n              mstore\n              0x20\n              add\n              swap1\n              dup2\n              mstore\n              0x20\n              add\n              0x00\n              keccak256\n              sload\n                /* \"@openzeppelin/contracts/token/ERC20/ERC20.sol\":6548:6585  uint256 fromBalance = _balances[from] */\n              swap1\n              pop\n                /* \"@openzeppelin/contracts/token/ERC20/ERC20.sol\":6617:6622  value */\n              dup2\n                /* \"@openzeppelin/contracts/token/ERC20/ERC20.sol\":6603:6614  fromBalance */\n              dup2\n                /* \"@openzeppelin/contracts/token/ERC20/ERC20.sol\":6603:6622  fromBalance < value */\n              lt\n                /* \"@openzeppelin/contracts/token/ERC20/ERC20.sol\":6599:6714  if (fromBalance < value) {... */\n              iszero\n              tag_115\n              jumpi\n                /* \"@openzeppelin/contracts/token/ERC20/ERC20.sol\":6674:6678  from */\n              dup4\n                /* \"@openzeppelin/contracts/token/ERC20/ERC20.sol\":6680:6691  fromBalance */\n              dup2\n                /* \"@openzeppelin/contracts/token/ERC20/ERC20.sol\":6693:6698  value */\n              dup4\n                /* \"@openzeppelin/contracts/token/ERC20/ERC20.sol\":6649:6699  ERC20InsufficientBalance(from, fromBalance, value) */\n              mload(0x40)\n              0xe450d38c00000000000000000000000000000000000000000000000000000000\n              dup2\n              mstore\n              0x04\n              add\n              tag_116\n              swap4\n              swap3\n              swap2\n              swap1\n              tag_93\n              jump\t// in\n            tag_116:\n              mload(0x40)\n              dup1\n              swap2\n              sub\n              swap1\n              revert\n                /* \"@openzeppelin/contracts/token/ERC20/ERC20.sol\":6599:6714  if (fromBalance < value) {... */\n            tag_115:\n                /* \"@openzeppelin/contracts/token/ERC20/ERC20.sol\":6866:6871  value */\n              dup2\n                /* \"@openzeppelin/contracts/token/ERC20/ERC20.sol\":6852:6863  fromBalance */\n              dup2\n                /* \"@openzeppelin/contracts/token/ERC20/ERC20.sol\":6852:6871  fromBalance - value */\n              sub\n                /* \"@openzeppelin/contracts/token/ERC20/ERC20.sol\":6834:6843  _balances */\n              0x00\n                /* \"@openzeppelin/contracts/token/ERC20/ERC20.sol\":6834:6849  _balances[from] */\n              dup1\n                /* \"@openzeppelin/contracts/token/ERC20/ERC20.sol\":6844:6848  from */\n              dup7\n                /* \"@openzeppelin/contracts/token/ERC20/ERC20.sol\":6834:6849  _balances[from] */\n              0xffffffffffffffffffffffffffffffffffffffff\n              and\n              0xffffffffffffffffffffffffffffffffffffffff\n              and\n              dup2\n              mstore\n              0x20\n              add\n              swap1\n              dup2\n              mstore\n              0x20\n              add\n              0x00\n              keccak256\n                /* \"@openzeppelin/contracts/token/ERC20/ERC20.sol\":6834:6871  _balances[from] = fromBalance - value */\n              dup2\n              swap1\n              sstore\n              pop\n                /* \"@openzeppelin/contracts/token/ERC20/ERC20.sol\":6534:6896  {... */\n              pop\n                /* \"@openzeppelin/contracts/token/ERC20/ERC20.sol\":6356:6896  if (from == address(0)) {... */\n            tag_114:\n                /* \"@openzeppelin/contracts/token/ERC20/ERC20.sol\":6924:6925  0 */\n              0x00\n                /* \"@openzeppelin/contracts/token/ERC20/ERC20.sol\":6910:6926  to == address(0) */\n              0xffffffffffffffffffffffffffffffffffffffff\n              and\n                /* \"@openzeppelin/contracts/token/ERC20/ERC20.sol\":6910:6912  to */\n              dup3\n                /* \"@openzeppelin/contracts/token/ERC20/ERC20.sol\":6910:6926  to == address(0) */\n              0xffffffffffffffffffffffffffffffffffffffff\n              and\n              sub\n                /* \"@openzeppelin/contracts/token/ERC20/ERC20.sol\":6906:7331  if (to == address(0)) {... */\n              tag_117\n              jumpi\n                /* \"@openzeppelin/contracts/token/ERC20/ERC20.sol\":7089:7094  value */\n              dup1\n                /* \"@openzeppelin/contracts/token/ERC20/ERC20.sol\":7073:7085  _totalSupply */\n              0x02\n              0x00\n                /* \"@openzeppelin/contracts/token/ERC20/ERC20.sol\":7073:7094  _totalSupply -= value */\n              dup3\n              dup3\n              sload\n              sub\n              swap3\n              pop\n              pop\n              dup2\n              swap1\n              sstore\n              pop\n                /* \"@openzeppelin/contracts/token/ERC20/ERC20.sol\":6906:7331  if (to == address(0)) {... */\n              jump(tag_118)\n            tag_117:\n                /* \"@openzeppelin/contracts/token/ERC20/ERC20.sol\":7301:7306  value */\n              dup1\n                /* \"@openzeppelin/contracts/token/ERC20/ERC20.sol\":7284:7293  _balances */\n              0x00\n                /* \"@openzeppelin/contracts/token/ERC20/ERC20.sol\":7284:7297  _balances[to] */\n              dup1\n                /* \"@openzeppelin/contracts/token/ERC20/ERC20.sol\":7294:7296  to */\n              dup5\n                /* \"@openzeppelin/contracts/token/ERC20/ERC20.sol\":7284:7297  _balances[to] */\n              0xffffffffffffffffffffffffffffffffffffffff\n              and\n              0xffffffffffffffffffffffffffffffffffffffff\n              and\n              dup2\n              mstore\n              0x20\n              add\n              swap1\n              dup2\n              mstore\n              0x20\n              add\n              0x00\n              keccak256\n              0x00\n                /* \"@openzeppelin/contracts/token/ERC20/ERC20.sol\":7284:7306  _balances[to] += value */\n              dup3\n              dup3\n              sload\n              add\n              swap3\n              pop\n              pop\n              dup2\n              swap1\n              sstore\n              pop\n                /* \"@openzeppelin/contracts/token/ERC20/ERC20.sol\":6906:7331  if (to == address(0)) {... */\n            tag_118:\n                /* \"@openzeppelin/contracts/token/ERC20/ERC20.sol\":7361:7363  to */\n              dup2\n                /* \"@openzeppelin/contracts/token/ERC20/ERC20.sol\":7346:7371  Transfer(from, to, value) */\n              0xffffffffffffffffffffffffffffffffffffffff\n              and\n                /* \"@openzeppelin/contracts/token/ERC20/ERC20.sol\":7355:7359  from */\n              dup4\n                /* \"@openzeppelin/contracts/token/ERC20/ERC20.sol\":7346:7371  Transfer(from, to, value) */\n              0xffffffffffffffffffffffffffffffffffffffff\n              and\n              0xddf252ad1be2c89b69c2b068fc378daa952ba7f163c4a11628f55a4df523b3ef\n                /* \"@openzeppelin/contracts/token/ERC20/ERC20.sol\":7365:7370  value */\n              dup4\n                /* \"@openzeppelin/contracts/token/ERC20/ERC20.sol\":7346:7371  Transfer(from, to, value) */\n              mload(0x40)\n              tag_119\n              swap2\n              swap1\n              tag_26\n              jump\t// in\n            tag_119:\n              mload(0x40)\n              dup1\n              swap2\n              sub\n              swap1\n              log3\n                /* \"@openzeppelin/contracts/token/ERC20/ERC20.sol\":6271:7378  function _update(address from, address to, uint256 value) internal virtual {... */\n              pop\n              pop\n              pop\n              jump\t// out\n                /* \"#utility.yul\":7:106   */\n            tag_120:\n                /* \"#utility.yul\":59:65   */\n              0x00\n                /* \"#utility.yul\":93:98   */\n              dup2\n                /* \"#utility.yul\":87:99   */\n              mload\n                /* \"#utility.yul\":77:99   */\n              swap1\n              pop\n                /* \"#utility.yul\":7:106   */\n              swap2\n              swap1\n              pop\n              jump\t// out\n                /* \"#utility.yul\":112:281   */\n            tag_121:\n                /* \"#utility.yul\":196:207   */\n              0x00\n                /* \"#utility.yul\":230:236   */\n              dup3\n                /* \"#utility.yul\":225:228   */\n              dup3\n                /* \"#utility.yul\":218:237   */\n              mstore\n                /* \"#utility.yul\":270:274   */\n              0x20\n                /* \"#utility.yul\":265:268   */\n              dup3\n                /* \"#utility.yul\":261:275   */\n              add\n                /* \"#utility.yul\":246:275   */\n              swap1\n              pop\n                /* \"#utility.yul\":112:281   */\n              swap3\n              swap2\n              pop\n              pop\n              jump\t// out\n                /* \"#utility.yul\":287:533   */\n            tag_122:\n                /* \"#utility.yul\":368:369   */\n              0x00\n                /* \"#utility.yul\":378:491   */\n            tag_147:\n                /* \"#utility.yul\":392:398   */\n              dup4\n                /* \"#utility.yul\":389:390   */\n              dup2\n                /* \"#utility.yul\":386:399   */\n              lt\n                /* \"#utility.yul\":378:491   */\n              iszero\n              tag_149\n              jumpi\n                /* \"#utility.yul\":477:478   */\n              dup1\n                /* \"#utility.yul\":472:475   */\n              dup3\n                /* \"#utility.yul\":468:479   */\n              add\n                /* \"#utility.yul\":462:480   */\n              mload\n                /* \"#utility.yul\":458:459   */\n              dup2\n                /* \"#utility.yul\":453:456   */\n              dup5\n                /* \"#utility.yul\":449:460   */\n              add\n                /* \"#utility.yul\":442:481   */\n              mstore\n                /* \"#utility.yul\":414:416   */\n              0x20\n                /* \"#utility.yul\":411:412   */\n              dup2\n                /* \"#utility.yul\":407:417   */\n              add\n                /* \"#utility.yul\":402:417   */\n              swap1\n              pop\n                /* \"#utility.yul\":378:491   */\n              jump(tag_147)\n            tag_149:\n                /* \"#utility.yul\":525:526   */\n              0x00\n                /* \"#utility.yul\":516:522   */\n              dup5\n                /* \"#utility.yul\":511:514   */\n              dup5\n                /* \"#utility.yul\":507:523   */\n              add\n                /* \"#utility.yul\":500:527   */\n              mstore\n                /* \"#utility.yul\":349:533   */\n              pop\n                /* \"#utility.yul\":287:533   */\n              pop\n              pop\n              pop\n              jump\t// out\n                /* \"#utility.yul\":539:641   */\n            tag_123:\n                /* \"#utility.yul\":580:586   */\n              0x00\n                /* \"#utility.yul\":631:633   */\n              0x1f\n                /* \"#utility.yul\":627:634   */\n              not\n                /* \"#utility.yul\":622:624   */\n              0x1f\n                /* \"#utility.yul\":615:620   */\n              dup4\n                /* \"#utility.yul\":611:625   */\n              add\n                /* \"#utility.yul\":607:635   */\n              and\n                /* \"#utility.yul\":597:635   */\n              swap1\n              pop\n                /* \"#utility.yul\":539:641   */\n              swap2\n              swap1\n              pop\n              jump\t// out\n                /* \"#utility.yul\":647:1024   */\n            tag_124:\n                /* \"#utility.yul\":735:738   */\n              0x00\n                /* \"#utility.yul\":763:802   */\n              tag_152\n                /* \"#utility.yul\":796:801   */\n              dup3\n                /* \"#utility.yul\":763:802   */\n              tag_120\n              jump\t// in\n            tag_152:\n                /* \"#utility.yul\":818:889   */\n              tag_153\n                /* \"#utility.yul\":882:888   */\n              dup2\n                /* \"#utility.yul\":877:880   */\n              dup6\n                /* \"#utility.yul\":818:889   */\n              tag_121\n              jump\t// in\n            tag_153:\n                /* \"#utility.yul\":811:889   */\n              swap4\n              pop\n                /* \"#utility.yul\":898:963   */\n              tag_154\n                /* \"#utility.yul\":956:962   */\n              dup2\n                /* \"#utility.yul\":951:954   */\n              dup6\n                /* \"#utility.yul\":944:948   */\n              0x20\n                /* \"#utility.yul\":937:942   */\n              dup7\n                /* \"#utility.yul\":933:949   */\n              add\n                /* \"#utility.yul\":898:963   */\n              tag_122\n              jump\t// in\n            tag_154:\n                /* \"#utility.yul\":988:1017   */\n              tag_155\n                /* \"#utility.yul\":1010:1016   */\n              dup2\n                /* \"#utility.yul\":988:1017   */\n              tag_123\n              jump\t// in\n            tag_155:\n                /* \"#utility.yul\":983:986   */\n              dup5\n                /* \"#utility.yul\":979:1018   */\n              add\n                /* \"#utility.yul\":972:1018   */\n              swap2\n              pop\n                /* \"#utility.yul\":739:1024   */\n              pop\n                /* \"#utility.yul\":647:1024   */\n              swap3\n              swap2\n              pop\n              pop\n              jump\t// out\n                /* \"#utility.yul\":1030:1343   */\n            tag_16:\n                /* \"#utility.yul\":1143:1147   */\n              0x00\n                /* \"#utility.yul\":1181:1183   */\n              0x20\n                /* \"#utility.yul\":1170:1179   */\n              dup3\n                /* \"#utility.yul\":1166:1184   */\n              add\n                /* \"#utility.yul\":1158:1184   */\n              swap1\n              pop\n                /* \"#utility.yul\":1230:1239   */\n              dup2\n                /* \"#utility.yul\":1224:1228   */\n              dup2\n                /* \"#utility.yul\":1220:1240   */\n              sub\n                /* \"#utility.yul\":1216:1217   */\n              0x00\n                /* \"#utility.yul\":1205:1214   */\n              dup4\n                /* \"#utility.yul\":1201:1218   */\n              add\n                /* \"#utility.yul\":1194:1241   */\n              mstore\n                /* \"#utility.yul\":1258:1336   */\n              tag_157\n                /* \"#utility.yul\":1331:1335   */\n              dup2\n                /* \"#utility.yul\":1322:1328   */\n              dup5\n                /* \"#utility.yul\":1258:1336   */\n              tag_124\n              jump\t// in\n            tag_157:\n                /* \"#utility.yul\":1250:1336   */\n              swap1\n              pop\n                /* \"#utility.yul\":1030:1343   */\n              swap3\n              swap2\n              pop\n              pop\n              jump\t// out\n                /* \"#utility.yul\":1430:1547   */\n            tag_126:\n                /* \"#utility.yul\":1539:1540   */\n              0x00\n                /* \"#utility.yul\":1536:1537   */\n              dup1\n                /* \"#utility.yul\":1529:1541   */\n              revert\n                /* \"#utility.yul\":1676:1802   */\n            tag_128:\n                /* \"#utility.yul\":1713:1720   */\n              0x00\n                /* \"#utility.yul\":1753:1795   */\n              0xffffffffffffffffffffffffffffffffffffffff\n                /* \"#utility.yul\":1746:1751   */\n              dup3\n                /* \"#utility.yul\":1742:1796   */\n              and\n                /* \"#utility.yul\":1731:1796   */\n              swap1\n              pop\n                /* \"#utility.yul\":1676:1802   */\n              swap2\n              swap1\n              pop\n              jump\t// out\n                /* \"#utility.yul\":1808:1904   */\n            tag_129:\n                /* \"#utility.yul\":1845:1852   */\n              0x00\n                /* \"#utility.yul\":1874:1898   */\n              tag_163\n                /* \"#utility.yul\":1892:1897   */\n              dup3\n                /* \"#utility.yul\":1874:1898   */\n              tag_128\n              jump\t// in\n            tag_163:\n                /* \"#utility.yul\":1863:1898   */\n              swap1\n              pop\n                /* \"#utility.yul\":1808:1904   */\n              swap2\n              swap1\n              pop\n              jump\t// out\n                /* \"#utility.yul\":1910:2032   */\n            tag_130:\n                /* \"#utility.yul\":1983:2007   */\n              tag_165\n                /* \"#utility.yul\":2001:2006   */\n              dup2\n                /* \"#utility.yul\":1983:2007   */\n              tag_129\n              jump\t// in\n            tag_165:\n                /* \"#utility.yul\":1976:1981   */\n              dup2\n                /* \"#utility.yul\":1973:2008   */\n              eq\n                /* \"#utility.yul\":1963:2026   */\n              tag_166\n              jumpi\n                /* \"#utility.yul\":2022:2023   */\n              0x00\n                /* \"#utility.yul\":2019:2020   */\n              dup1\n                /* \"#utility.yul\":2012:2024   */\n              revert\n                /* \"#utility.yul\":1963:2026   */\n            tag_166:\n                /* \"#utility.yul\":1910:2032   */\n              pop\n              jump\t// out\n                /* \"#utility.yul\":2038:2177   */\n            tag_131:\n                /* \"#utility.yul\":2084:2089   */\n              0x00\n                /* \"#utility.yul\":2122:2128   */\n              dup2\n                /* \"#utility.yul\":2109:2129   */\n              calldataload\n                /* \"#utility.yul\":2100:2129   */\n              swap1\n              pop\n                /* \"#utility.yul\":2138:2171   */\n              tag_168\n                /* \"#utility.yul\":2165:2170   */\n              dup2\n                /* \"#utility.yul\":2138:2171   */\n              tag_130\n              jump\t// in\n            tag_168:\n                /* \"#utility.yul\":2038:2177   */\n              swap3\n              swap2\n              pop\n              pop\n              jump\t// out\n                /* \"#utility.yul\":2183:2260   */\n            tag_132:\n                /* \"#utility.yul\":2220:2227   */\n              0x00\n                /* \"#utility.yul\":2249:2254   */\n              dup2\n                /* \"#utility.yul\":2238:2254   */\n              swap1\n              pop\n                /* \"#utility.yul\":2183:2260   */\n              swap2\n              swap1\n              pop\n              jump\t// out\n                /* \"#utility.yul\":2266:2388   */\n            tag_133:\n                /* \"#utility.yul\":2339:2363   */\n              tag_171\n                /* \"#utility.yul\":2357:2362   */\n              dup2\n                /* \"#utility.yul\":2339:2363   */\n              tag_132\n              jump\t// in\n            tag_171:\n                /* \"#utility.yul\":2332:2337   */\n              dup2\n                /* \"#utility.yul\":2329:2364   */\n              eq\n                /* \"#utility.yul\":2319:2382   */\n              tag_172\n              jumpi\n                /* \"#utility.yul\":2378:2379   */\n              0x00\n                /* \"#utility.yul\":2375:2376   */\n              dup1\n                /* \"#utility.yul\":2368:2380   */\n              revert\n                /* \"#utility.yul\":2319:2382   */\n            tag_172:\n                /* \"#utility.yul\":2266:2388   */\n              pop\n              jump\t// out\n                /* \"#utility.yul\":2394:2533   */\n            tag_134:\n                /* \"#utility.yul\":2440:2445   */\n              0x00\n                /* \"#utility.yul\":2478:2484   */\n              dup2\n                /* \"#utility.yul\":2465:2485   */\n              calldataload\n                /* \"#utility.yul\":2456:2485   */\n              swap1\n              pop\n                /* \"#utility.yul\":2494:2527   */\n              tag_174\n                /* \"#utility.yul\":2521:2526   */\n              dup2\n                /* \"#utility.yul\":2494:2527   */\n              tag_133\n              jump\t// in\n            tag_174:\n                /* \"#utility.yul\":2394:2533   */\n              swap3\n              swap2\n              pop\n              pop\n              jump\t// out\n                /* \"#utility.yul\":2539:3013   */\n            tag_19:\n                /* \"#utility.yul\":2607:2613   */\n              0x00\n                /* \"#utility.yul\":2615:2621   */\n              dup1\n                /* \"#utility.yul\":2664:2666   */\n              0x40\n                /* \"#utility.yul\":2652:2661   */\n              dup4\n                /* \"#utility.yul\":2643:2650   */\n              dup6\n                /* \"#utility.yul\":2639:2662   */\n              sub\n                /* \"#utility.yul\":2635:2667   */\n              slt\n                /* \"#utility.yul\":2632:2751   */\n              iszero\n              tag_176\n              jumpi\n                /* \"#utility.yul\":2670:2749   */\n              tag_177\n              tag_126\n              jump\t// in\n            tag_177:\n                /* \"#utility.yul\":2632:2751   */\n            tag_176:\n                /* \"#utility.yul\":2790:2791   */\n              0x00\n                /* \"#utility.yul\":2815:2868   */\n              tag_178\n                /* \"#utility.yul\":2860:2867   */\n              dup6\n                /* \"#utility.yul\":2851:2857   */\n              dup3\n                /* \"#utility.yul\":2840:2849   */\n              dup7\n                /* \"#utility.yul\":2836:2858   */\n              add\n                /* \"#utility.yul\":2815:2868   */\n              tag_131\n              jump\t// in\n            tag_178:\n                /* \"#utility.yul\":2805:2868   */\n              swap3\n              pop\n                /* \"#utility.yul\":2761:2878   */\n              pop\n                /* \"#utility.yul\":2917:2919   */\n              0x20\n                /* \"#utility.yul\":2943:2996   */\n              tag_179\n                /* \"#utility.yul\":2988:2995   */\n              dup6\n                /* \"#utility.yul\":2979:2985   */\n              dup3\n                /* \"#utility.yul\":2968:2977   */\n              dup7\n                /* \"#utility.yul\":2964:2986   */\n              add\n                /* \"#utility.yul\":2943:2996   */\n              tag_134\n              jump\t// in\n            tag_179:\n                /* \"#utility.yul\":2933:2996   */\n              swap2\n              pop\n                /* \"#utility.yul\":2888:3006   */\n              pop\n                /* \"#utility.yul\":2539:3013   */\n              swap3\n              pop\n              swap3\n              swap1\n              pop\n              jump\t// out\n                /* \"#utility.yul\":3019:3109   */\n            tag_135:\n                /* \"#utility.yul\":3053:3060   */\n              0x00\n                /* \"#utility.yul\":3096:3101   */\n              dup2\n                /* \"#utility.yul\":3089:3102   */\n              iszero\n                /* \"#utility.yul\":3082:3103   */\n              iszero\n                /* \"#utility.yul\":3071:3103   */\n              swap1\n              pop\n                /* \"#utility.yul\":3019:3109   */\n              swap2\n              swap1\n              pop\n              jump\t// out\n                /* \"#utility.yul\":3115:3224   */\n            tag_136:\n                /* \"#utility.yul\":3196:3217   */\n              tag_182\n                /* \"#utility.yul\":3211:3216   */\n              dup2\n                /* \"#utility.yul\":3196:3217   */\n              tag_135\n              jump\t// in\n            tag_182:\n                /* \"#utility.yul\":3191:3194   */\n              dup3\n                /* \"#utility.yul\":3184:3218   */\n              mstore\n                /* \"#utility.yul\":3115:3224   */\n              pop\n              pop\n              jump\t// out\n                /* \"#utility.yul\":3230:3440   */\n            tag_22:\n                /* \"#utility.yul\":3317:3321   */\n              0x00\n                /* \"#utility.yul\":3355:3357   */\n              0x20\n                /* \"#utility.yul\":3344:3353   */\n              dup3\n                /* \"#utility.yul\":3340:3358   */\n              add\n                /* \"#utility.yul\":3332:3358   */\n              swap1\n              pop\n                /* \"#utility.yul\":3368:3433   */\n              tag_184\n                /* \"#utility.yul\":3430:3431   */\n              0x00\n                /* \"#utility.yul\":3419:3428   */\n              dup4\n                /* \"#utility.yul\":3415:3432   */\n              add\n                /* \"#utility.yul\":3406:3412   */\n              dup5\n                /* \"#utility.yul\":3368:3433   */\n              tag_136\n              jump\t// in\n            tag_184:\n                /* \"#utility.yul\":3230:3440   */\n              swap3\n              swap2\n              pop\n              pop\n              jump\t// out\n                /* \"#utility.yul\":3446:3564   */\n            tag_137:\n                /* \"#utility.yul\":3533:3557   */\n              tag_186\n                /* \"#utility.yul\":3551:3556   */\n              dup2\n                /* \"#utility.yul\":3533:3557   */\n              tag_132\n              jump\t// in\n            tag_186:\n                /* \"#utility.yul\":3528:3531   */\n              dup3\n                /* \"#utility.yul\":3521:3558   */\n              mstore\n                /* \"#utility.yul\":3446:3564   */\n              pop\n              pop\n              jump\t// out\n                /* \"#utility.yul\":3570:3792   */\n            tag_26:\n                /* \"#utility.yul\":3663:3667   */\n              0x00\n                /* \"#utility.yul\":3701:3703   */\n              0x20\n                /* \"#utility.yul\":3690:3699   */\n              dup3\n                /* \"#utility.yul\":3686:3704   */\n              add\n                /* \"#utility.yul\":3678:3704   */\n              swap1\n              pop\n                /* \"#utility.yul\":3714:3785   */\n              tag_188\n                /* \"#utility.yul\":3782:3783   */\n              0x00\n                /* \"#utility.yul\":3771:3780   */\n              dup4\n                /* \"#utility.yul\":3767:3784   */\n              add\n                /* \"#utility.yul\":3758:3764   */\n              dup5\n                /* \"#utility.yul\":3714:3785   */\n              tag_137\n              jump\t// in\n            tag_188:\n                /* \"#utility.yul\":3570:3792   */\n              swap3\n              swap2\n              pop\n              pop\n              jump\t// out\n                /* \"#utility.yul\":3798:4417   */\n            tag_29:\n                /* \"#utility.yul\":3875:3881   */\n              0x00\n                /* \"#utility.yul\":3883:3889   */\n              dup1\n                /* \"#utility.yul\":3891:3897   */\n              0x00\n                /* \"#utility.yul\":3940:3942   */\n              0x60\n                /* \"#utility.yul\":3928:3937   */\n              dup5\n                /* \"#utility.yul\":3919:3926   */\n              dup7\n                /* \"#utility.yul\":3915:3938   */\n              sub\n                /* \"#utility.yul\":3911:3943   */\n              slt\n                /* \"#utility.yul\":3908:4027   */\n              iszero\n              tag_190\n              jumpi\n                /* \"#utility.yul\":3946:4025   */\n              tag_191\n              tag_126\n              jump\t// in\n            tag_191:\n                /* \"#utility.yul\":3908:4027   */\n            tag_190:\n                /* \"#utility.yul\":4066:4067   */\n              0x00\n                /* \"#utility.yul\":4091:4144   */\n              tag_192\n                /* \"#utility.yul\":4136:4143   */\n              dup7\n                /* \"#utility.yul\":4127:4133   */\n              dup3\n                /* \"#utility.yul\":4116:4125   */\n              dup8\n                /* \"#utility.yul\":4112:4134   */\n              add\n                /* \"#utility.yul\":4091:4144   */\n              tag_131\n              jump\t// in\n            tag_192:\n                /* \"#utility.yul\":4081:4144   */\n              swap4\n              pop\n                /* \"#utility.yul\":4037:4154   */\n              pop\n                /* \"#utility.yul\":4193:4195   */\n              0x20\n                /* \"#utility.yul\":4219:4272   */\n              tag_193\n                /* \"#utility.yul\":4264:4271   */\n              dup7\n                /* \"#utility.yul\":4255:4261   */\n              dup3\n                /* \"#utility.yul\":4244:4253   */\n              dup8\n                /* \"#utility.yul\":4240:4262   */\n              add\n                /* \"#utility.yul\":4219:4272   */\n              tag_131\n              jump\t// in\n            tag_193:\n                /* \"#utility.yul\":4209:4272   */\n              swap3\n              pop\n                /* \"#utility.yul\":4164:4282   */\n              pop\n                /* \"#utility.yul\":4321:4323   */\n              0x40\n                /* \"#utility.yul\":4347:4400   */\n              tag_194\n                /* \"#utility.yul\":4392:4399   */\n              dup7\n                /* \"#utility.yul\":4383:4389   */\n              dup3\n                /* \"#utility.yul\":4372:4381   */\n              dup8\n                /* \"#utility.yul\":4368:4390   */\n              add\n                /* \"#utility.yul\":4347:4400   */\n              tag_134\n              jump\t// in\n            tag_194:\n                /* \"#utility.yul\":4337:4400   */\n              swap2\n              pop\n                /* \"#utility.yul\":4292:4410   */\n              pop\n                /* \"#utility.yul\":3798:4417   */\n              swap3\n              pop\n              swap3\n              pop\n              swap3\n              jump\t// out\n                /* \"#utility.yul\":4423:4509   */\n            tag_138:\n                /* \"#utility.yul\":4458:4465   */\n              0x00\n                /* \"#utility.yul\":4498:4502   */\n              0xff\n                /* \"#utility.yul\":4491:4496   */\n              dup3\n                /* \"#utility.yul\":4487:4503   */\n              and\n                /* \"#utility.yul\":4476:4503   */\n              swap1\n              pop\n                /* \"#utility.yul\":4423:4509   */\n              swap2\n              swap1\n              pop\n              jump\t// out\n                /* \"#utility.yul\":4515:4627   */\n            tag_139:\n                /* \"#utility.yul\":4598:4620   */\n              tag_197\n                /* \"#utility.yul\":4614:4619   */\n              dup2\n                /* \"#utility.yul\":4598:4620   */\n              tag_138\n              jump\t// in\n            tag_197:\n                /* \"#utility.yul\":4593:4596   */\n              dup3\n                /* \"#utility.yul\":4586:4621   */\n              mstore\n                /* \"#utility.yul\":4515:4627   */\n              pop\n              pop\n              jump\t// out\n                /* \"#utility.yul\":4633:4847   */\n            tag_35:\n                /* \"#utility.yul\":4722:4726   */\n              0x00\n                /* \"#utility.yul\":4760:4762   */\n              0x20\n                /* \"#utility.yul\":4749:4758   */\n              dup3\n                /* \"#utility.yul\":4745:4763   */\n              add\n                /* \"#utility.yul\":4737:4763   */\n              swap1\n              pop\n                /* \"#utility.yul\":4773:4840   */\n              tag_199\n                /* \"#utility.yul\":4837:4838   */\n              0x00\n                /* \"#utility.yul\":4826:4835   */\n              dup4\n                /* \"#utility.yul\":4822:4839   */\n              add\n                /* \"#utility.yul\":4813:4819   */\n              dup5\n                /* \"#utility.yul\":4773:4840   */\n              tag_139\n              jump\t// in\n            tag_199:\n                /* \"#utility.yul\":4633:4847   */\n              swap3\n              swap2\n              pop\n              pop\n              jump\t// out\n                /* \"#utility.yul\":4853:5182   */\n            tag_38:\n                /* \"#utility.yul\":4912:4918   */\n              0x00\n                /* \"#utility.yul\":4961:4963   */\n              0x20\n                /* \"#utility.yul\":4949:4958   */\n              dup3\n                /* \"#utility.yul\":4940:4947   */\n              dup5\n                /* \"#utility.yul\":4936:4959   */\n              sub\n                /* \"#utility.yul\":4932:4964   */\n              slt\n                /* \"#utility.yul\":4929:5048   */\n              iszero\n              tag_201\n              jumpi\n                /* \"#utility.yul\":4967:5046   */\n              tag_202\n              tag_126\n              jump\t// in\n            tag_202:\n                /* \"#utility.yul\":4929:5048   */\n            tag_201:\n                /* \"#utility.yul\":5087:5088   */\n              0x00\n                /* \"#utility.yul\":5112:5165   */\n              tag_203\n                /* \"#utility.yul\":5157:5164   */\n              dup5\n                /* \"#utility.yul\":5148:5154   */\n              dup3\n                /* \"#utility.yul\":5137:5146   */\n              dup6\n                /* \"#utility.yul\":5133:5155   */\n              add\n                /* \"#utility.yul\":5112:5165   */\n              tag_131\n              jump\t// in\n            tag_203:\n                /* \"#utility.yul\":5102:5165   */\n              swap2\n              pop\n                /* \"#utility.yul\":5058:5175   */\n              pop\n                /* \"#utility.yul\":4853:5182   */\n              swap3\n              swap2\n              pop\n              pop\n              jump\t// out\n                /* \"#utility.yul\":5188:5662   */\n            tag_50:\n                /* \"#utility.yul\":5256:5262   */\n              0x00\n                /* \"#utility.yul\":5264:5270   */\n              dup1\n                /* \"#utility.yul\":5313:5315   */\n              0x40\n                /* \"#utility.yul\":5301:5310   */\n              dup4\n                /* \"#utility.yul\":5292:5299   */\n              dup6\n                /* \"#utility.yul\":5288:5311   */\n              sub\n                /* \"#utility.yul\":5284:5316   */\n              slt\n                /* \"#utility.yul\":5281:5400   */\n              iszero\n              tag_205\n              jumpi\n                /* \"#utility.yul\":5319:5398   */\n              tag_206\n              tag_126\n              jump\t// in\n            tag_206:\n                /* \"#utility.yul\":5281:5400   */\n            tag_205:\n                /* \"#utility.yul\":5439:5440   */\n              0x00\n                /* \"#utility.yul\":5464:5517   */\n              tag_207\n                /* \"#utility.yul\":5509:5516   */\n              dup6\n                /* \"#utility.yul\":5500:5506   */\n              dup3\n                /* \"#utility.yul\":5489:5498   */\n              dup7\n                /* \"#utility.yul\":5485:5507   */\n              add\n                /* \"#utility.yul\":5464:5517   */\n              tag_131\n              jump\t// in\n            tag_207:\n                /* \"#utility.yul\":5454:5517   */\n              swap3\n              pop\n                /* \"#utility.yul\":5410:5527   */\n              pop\n                /* \"#utility.yul\":5566:5568   */\n              0x20\n                /* \"#utility.yul\":5592:5645   */\n              tag_208\n                /* \"#utility.yul\":5637:5644   */\n              dup6\n                /* \"#utility.yul\":5628:5634   */\n              dup3\n                /* \"#utility.yul\":5617:5626   */\n              dup7\n                /* \"#utility.yul\":5613:5635   */\n              add\n                /* \"#utility.yul\":5592:5645   */\n              tag_131\n              jump\t// in\n            tag_208:\n                /* \"#utility.yul\":5582:5645   */\n              swap2\n              pop\n                /* \"#utility.yul\":5537:5655   */\n              pop\n                /* \"#utility.yul\":5188:5662   */\n              swap3\n              pop\n              swap3\n              swap1\n              pop\n              jump\t// out\n                /* \"#utility.yul\":5668:5848   */\n            tag_140:\n                /* \"#utility.yul\":5716:5793   */\n              0x4e487b7100000000000000000000000000000000000000000000000000000000\n                /* \"#utility.yul\":5713:5714   */\n              0x00\n                /* \"#utility.yul\":5706:5794   */\n              mstore\n                /* \"#utility.yul\":5813:5817   */\n              0x22\n                /* \"#utility.yul\":5810:5811   */\n              0x04\n                /* \"#utility.yul\":5803:5818   */\n              mstore\n                /* \"#utility.yul\":5837:5841   */\n              0x24\n                /* \"#utility.yul\":5834:5835   */\n              0x00\n                /* \"#utility.yul\":5827:5842   */\n              revert\n                /* \"#utility.yul\":5854:6174   */\n            tag_55:\n                /* \"#utility.yul\":5898:5904   */\n              0x00\n                /* \"#utility.yul\":5935:5936   */\n              0x02\n                /* \"#utility.yul\":5929:5933   */\n              dup3\n                /* \"#utility.yul\":5925:5937   */\n              div\n                /* \"#utility.yul\":5915:5937   */\n              swap1\n              pop\n                /* \"#utility.yul\":5982:5983   */\n              0x01\n                /* \"#utility.yul\":5976:5980   */\n              dup3\n                /* \"#utility.yul\":5972:5984   */\n              and\n                /* \"#utility.yul\":6003:6021   */\n              dup1\n                /* \"#utility.yul\":5993:6074   */\n              tag_211\n              jumpi\n                /* \"#utility.yul\":6059:6063   */\n              0x7f\n                /* \"#utility.yul\":6051:6057   */\n              dup3\n                /* \"#utility.yul\":6047:6064   */\n              and\n                /* \"#utility.yul\":6037:6064   */\n              swap2\n              pop\n                /* \"#utility.yul\":5993:6074   */\n            tag_211:\n                /* \"#utility.yul\":6121:6123   */\n              0x20\n                /* \"#utility.yul\":6113:6119   */\n              dup3\n                /* \"#utility.yul\":6110:6124   */\n              lt\n                /* \"#utility.yul\":6090:6108   */\n              dup2\n                /* \"#utility.yul\":6087:6125   */\n              sub\n                /* \"#utility.yul\":6084:6168   */\n              tag_212\n              jumpi\n                /* \"#utility.yul\":6140:6158   */\n              tag_213\n              tag_140\n              jump\t// in\n            tag_213:\n                /* \"#utility.yul\":6084:6168   */\n            tag_212:\n                /* \"#utility.yul\":5905:6174   */\n              pop\n                /* \"#utility.yul\":5854:6174   */\n              swap2\n              swap1\n              pop\n              jump\t// out\n                /* \"#utility.yul\":6180:6298   */\n            tag_141:\n                /* \"#utility.yul\":6267:6291   */\n              tag_215\n                /* \"#utility.yul\":6285:6290   */\n              dup2\n                /* \"#utility.yul\":6267:6291   */\n              tag_129\n              jump\t// in\n            tag_215:\n                /* \"#utility.yul\":6262:6265   */\n              dup3\n                /* \"#utility.yul\":6255:6292   */\n              mstore\n                /* \"#utility.yul\":6180:6298   */\n              pop\n              pop\n              jump\t// out\n                /* \"#utility.yul\":6304:6746   */\n            tag_93:\n                /* \"#utility.yul\":6453:6457   */\n              0x00\n                /* \"#utility.yul\":6491:6493   */\n              0x60\n                /* \"#utility.yul\":6480:6489   */\n              dup3\n                /* \"#utility.yul\":6476:6494   */\n              add\n                /* \"#utility.yul\":6468:6494   */\n              swap1\n              pop\n                /* \"#utility.yul\":6504:6575   */\n              tag_217\n                /* \"#utility.yul\":6572:6573   */\n              0x00\n                /* \"#utility.yul\":6561:6570   */\n              dup4\n                /* \"#utility.yul\":6557:6574   */\n              add\n                /* \"#utility.yul\":6548:6554   */\n              dup7\n                /* \"#utility.yul\":6504:6575   */\n              tag_141\n              jump\t// in\n            tag_217:\n                /* \"#utility.yul\":6585:6657   */\n              tag_218\n                /* \"#utility.yul\":6653:6655   */\n              0x20\n                /* \"#utility.yul\":6642:6651   */\n              dup4\n                /* \"#utility.yul\":6638:6656   */\n              add\n                /* \"#utility.yul\":6629:6635   */\n              dup6\n                /* \"#utility.yul\":6585:6657   */\n              tag_137\n              jump\t// in\n            tag_218:\n                /* \"#utility.yul\":6667:6739   */\n              tag_219\n                /* \"#utility.yul\":6735:6737   */\n              0x40\n                /* \"#utility.yul\":6724:6733   */\n              dup4\n                /* \"#utility.yul\":6720:6738   */\n              add\n                /* \"#utility.yul\":6711:6717   */\n              dup5\n                /* \"#utility.yul\":6667:6739   */\n              tag_137\n              jump\t// in\n            tag_219:\n                /* \"#utility.yul\":6304:6746   */\n              swap5\n              swap4\n              pop\n              pop\n              pop\n              pop\n              jump\t// out\n                /* \"#utility.yul\":6752:6974   */\n            tag_98:\n                /* \"#utility.yul\":6845:6849   */\n              0x00\n                /* \"#utility.yul\":6883:6885   */\n              0x20\n                /* \"#utility.yul\":6872:6881   */\n              dup3\n                /* \"#utility.yul\":6868:6886   */\n              add\n                /* \"#utility.yul\":6860:6886   */\n              swap1\n              pop\n                /* \"#utility.yul\":6896:6967   */\n              tag_221\n                /* \"#utility.yul\":6964:6965   */\n              0x00\n                /* \"#utility.yul\":6953:6962   */\n              dup4\n                /* \"#utility.yul\":6949:6966   */\n              add\n                /* \"#utility.yul\":6940:6946   */\n              dup5\n                /* \"#utility.yul\":6896:6967   */\n              tag_141\n              jump\t// in\n            tag_221:\n                /* \"#utility.yul\":6752:6974   */\n              swap3\n              swap2\n              pop\n              pop\n              jump\t// out\n                /* \"#utility.yul\":6980:7160   */\n            tag_142:\n                /* \"#utility.yul\":7028:7105   */\n              0x4e487b7100000000000000000000000000000000000000000000000000000000\n                /* \"#utility.yul\":7025:7026   */\n              0x00\n                /* \"#utility.yul\":7018:7106   */\n              mstore\n                /* \"#utility.yul\":7125:7129   */\n              0x11\n                /* \"#utility.yul\":7122:7123   */\n              0x04\n                /* \"#utility.yul\":7115:7130   */\n              mstore\n                /* \"#utility.yul\":7149:7153   */\n              0x24\n                /* \"#utility.yul\":7146:7147   */\n              0x00\n                /* \"#utility.yul\":7139:7154   */\n              revert\n                /* \"#utility.yul\":7166:7357   */\n            tag_113:\n                /* \"#utility.yul\":7206:7209   */\n              0x00\n                /* \"#utility.yul\":7225:7245   */\n              tag_224\n                /* \"#utility.yul\":7243:7244   */\n              dup3\n                /* \"#utility.yul\":7225:7245   */\n              tag_132\n              jump\t// in\n            tag_224:\n                /* \"#utility.yul\":7220:7245   */\n              swap2\n              pop\n                /* \"#utility.yul\":7259:7279   */\n              tag_225\n                /* \"#utility.yul\":7277:7278   */\n              dup4\n                /* \"#utility.yul\":7259:7279   */\n              tag_132\n              jump\t// in\n            tag_225:\n                /* \"#utility.yul\":7254:7279   */\n              swap3\n              pop\n                /* \"#utility.yul\":7302:7303   */\n              dup3\n                /* \"#utility.yul\":7299:7300   */\n              dup3\n                /* \"#utility.yul\":7295:7304   */\n              add\n                /* \"#utility.yul\":7288:7304   */\n              swap1\n              pop\n                /* \"#utility.yul\":7323:7326   */\n              dup1\n                /* \"#utility.yul\":7320:7321   */\n              dup3\n                /* \"#utility.yul\":7317:7327   */\n              gt\n                /* \"#utility.yul\":7314:7350   */\n              iszero\n              tag_226\n              jumpi\n                /* \"#utility.yul\":7330:7348   */\n              tag_227\n              tag_142\n              jump\t// in\n            tag_227:\n                /* \"#utility.yul\":7314:7350   */\n            tag_226:\n                /* \"#utility.yul\":7166:7357   */\n              swap3\n              swap2\n              pop\n              pop\n              jump\t// out\n\n            auxdata: 0xa2646970667358221220219a4c6aa95f06d7fe14990f20c0577f035f167f8461058c1cac52c769f6c98264736f6c63430008180033\n        }\n    }\n\n    auxdata: 0xa2646970667358221220388dfc86dac21757ad7b2c3981e52fdc2121db0e92e1cb6ecb2e6a55f7e35aac64736f6c63430008180033\n}\n",
				"bytecode": {
					"linkReferences": {},
					"object": "608060405234801561000f575f80fd5b50611f778061001d5f395ff3fe608060405234801562000010575f80fd5b506004361062000044575f3560e01c80635b0605301462000048578063622ae7aa1462000068578063ec81aadb146200008a575b5f80fd5b62000066600480360381019062000060919062000411565b620000c0565b005b620000726200019b565b604051620000819190620005e4565b60405180910390f35b620000a86004803603810190620000a2919062000606565b62000227565b604051620000b7919062000647565b60405180910390f35b5f838383604051620000d29062000262565b620000e093929190620006f7565b604051809103905ff080158015620000fa573d5f803e3d5ffd5b5090505f81908060018154018082558091505060019003905f5260205f20015f9091909190916101000a81548173ffffffffffffffffffffffffffffffffffffffff021916908373ffffffffffffffffffffffffffffffffffffffff1602179055507f2e2b3f61b70d2d131b2a807371103cc98d51adcaa5e9a8f9c32658ad8426e74e816040516200018d919062000764565b60405180910390a150505050565b60605f8054806020026020016040519081016040528092919081815260200182805480156200021d57602002820191905f5260205f20905b815f9054906101000a900473ffffffffffffffffffffffffffffffffffffffff1673ffffffffffffffffffffffffffffffffffffffff1681526020019060010190808311620001d3575b5050505050905090565b5f818154811062000236575f80fd5b905f5260205f20015f915054906101000a900473ffffffffffffffffffffffffffffffffffffffff1681565b6117c2806200078083390190565b5f604051905090565b5f80fd5b5f80fd5b5f80fd5b5f80fd5b5f601f19601f8301169050919050565b7f4e487b71000000000000000000000000000000000000000000000000000000005f52604160045260245ffd5b620002d18262000289565b810181811067ffffffffffffffff82111715620002f357620002f262000299565b5b80604052505050565b5f6200030762000270565b9050620003158282620002c6565b919050565b5f67ffffffffffffffff82111562000337576200033662000299565b5b620003428262000289565b9050602081019050919050565b828183375f83830152505050565b5f620003736200036d846200031a565b620002fc565b90508281526020810184848401111562000392576200039162000285565b5b6200039f8482856200034f565b509392505050565b5f82601f830112620003be57620003bd62000281565b5b8135620003d08482602086016200035d565b91505092915050565b5f819050919050565b620003ed81620003d9565b8114620003f8575f80fd5b50565b5f813590506200040b81620003e2565b92915050565b5f805f606084860312156200042b576200042a62000279565b5b5f84013567ffffffffffffffff8111156200044b576200044a6200027d565b5b6200045986828701620003a7565b935050602084013567ffffffffffffffff8111156200047d576200047c6200027d565b5b6200048b86828701620003a7565b92505060406200049e86828701620003fb565b9150509250925092565b5f81519050919050565b5f82825260208201905092915050565b5f819050602082019050919050565b5f73ffffffffffffffffffffffffffffffffffffffff82169050919050565b5f819050919050565b5f62000519620005136200050d84620004d1565b620004f0565b620004d1565b9050919050565b5f6200052c82620004f9565b9050919050565b5f6200053f8262000520565b9050919050565b620005518162000533565b82525050565b5f62000564838362000546565b60208301905092915050565b5f602082019050919050565b5f6200058882620004a8565b620005948185620004b2565b9350620005a183620004c2565b805f5b83811015620005d7578151620005bb888262000557565b9750620005c88362000570565b925050600181019050620005a4565b5085935050505092915050565b5f6020820190508181035f830152620005fe81846200057c565b905092915050565b5f602082840312156200061e576200061d62000279565b5b5f6200062d84828501620003fb565b91505092915050565b620006418162000533565b82525050565b5f6020820190506200065c5f83018462000636565b92915050565b5f81519050919050565b5f82825260208201905092915050565b5f5b838110156200069b5780820151818401526020810190506200067e565b5f8484015250505050565b5f620006b28262000662565b620006be81856200066c565b9350620006d08185602086016200067c565b620006db8162000289565b840191505092915050565b620006f181620003d9565b82525050565b5f6060820190508181035f830152620007118186620006a6565b90508181036020830152620007278185620006a6565b9050620007386040830184620006e6565b949350505050565b5f6200074c82620004d1565b9050919050565b6200075e8162000740565b82525050565b5f602082019050620007795f83018462000753565b9291505056fe608060405234801562000010575f80fd5b50604051620017c2380380620017c28339818101604052810190620000369190620004e4565b82828160039081620000499190620007a9565b5080600490816200005b9190620007a9565b5050506200007033826200007960201b60201c565b505050620009b9565b5f73ffffffffffffffffffffffffffffffffffffffff168273ffffffffffffffffffffffffffffffffffffffff1603620000ec575f6040517fec442f05000000000000000000000000000000000000000000000000000000008152600401620000e39190620008d0565b60405180910390fd5b620000ff5f83836200010360201b60201c565b5050565b5f73ffffffffffffffffffffffffffffffffffffffff168373ffffffffffffffffffffffffffffffffffffffff160362000157578060025f8282546200014a919062000918565b9250508190555062000228565b5f805f8573ffffffffffffffffffffffffffffffffffffffff1673ffffffffffffffffffffffffffffffffffffffff1681526020019081526020015f2054905081811015620001e3578381836040517fe450d38c000000000000000000000000000000000000000000000000000000008152600401620001da9392919062000963565b60405180910390fd5b8181035f808673ffffffffffffffffffffffffffffffffffffffff1673ffffffffffffffffffffffffffffffffffffffff1681526020019081526020015f2081905550505b5f73ffffffffffffffffffffffffffffffffffffffff168273ffffffffffffffffffffffffffffffffffffffff160362000271578060025f8282540392505081905550620002bb565b805f808473ffffffffffffffffffffffffffffffffffffffff1673ffffffffffffffffffffffffffffffffffffffff1681526020019081526020015f205f82825401925050819055505b8173ffffffffffffffffffffffffffffffffffffffff168373ffffffffffffffffffffffffffffffffffffffff167fddf252ad1be2c89b69c2b068fc378daa952ba7f163c4a11628f55a4df523b3ef836040516200031a91906200099e565b60405180910390a3505050565b5f604051905090565b5f80fd5b5f80fd5b5f80fd5b5f80fd5b5f601f19601f8301169050919050565b7f4e487b71000000000000000000000000000000000000000000000000000000005f52604160045260245ffd5b620003888262000340565b810181811067ffffffffffffffff82111715620003aa57620003a962000350565b5b80604052505050565b5f620003be62000327565b9050620003cc82826200037d565b919050565b5f67ffffffffffffffff821115620003ee57620003ed62000350565b5b620003f98262000340565b9050602081019050919050565b5f5b838110156200042557808201518184015260208101905062000408565b5f8484015250505050565b5f620004466200044084620003d1565b620003b3565b9050828152602081018484840111156200046557620004646200033c565b5b6200047284828562000406565b509392505050565b5f82601f83011262000491576200049062000338565b5b8151620004a384826020860162000430565b91505092915050565b5f819050919050565b620004c081620004ac565b8114620004cb575f80fd5b50565b5f81519050620004de81620004b5565b92915050565b5f805f60608486031215620004fe57620004fd62000330565b5b5f84015167ffffffffffffffff8111156200051e576200051d62000334565b5b6200052c868287016200047a565b935050602084015167ffffffffffffffff81111562000550576200054f62000334565b5b6200055e868287016200047a565b92505060406200057186828701620004ce565b9150509250925092565b5f81519050919050565b7f4e487b71000000000000000000000000000000000000000000000000000000005f52602260045260245ffd5b5f6002820490506001821680620005ca57607f821691505b602082108103620005e057620005df62000585565b5b50919050565b5f819050815f5260205f209050919050565b5f6020601f8301049050919050565b5f82821b905092915050565b5f60088302620006447fffffffffffffffffffffffffffffffffffffffffffffffffffffffffffffffff8262000607565b62000650868362000607565b95508019841693508086168417925050509392505050565b5f819050919050565b5f620006916200068b6200068584620004ac565b62000668565b620004ac565b9050919050565b5f819050919050565b620006ac8362000671565b620006c4620006bb8262000698565b84845462000613565b825550505050565b5f90565b620006da620006cc565b620006e7818484620006a1565b505050565b5b818110156200070e57620007025f82620006d0565b600181019050620006ed565b5050565b601f8211156200075d576200072781620005e6565b6200073284620005f8565b8101602085101562000742578190505b6200075a6200075185620005f8565b830182620006ec565b50505b505050565b5f82821c905092915050565b5f6200077f5f198460080262000762565b1980831691505092915050565b5f6200079983836200076e565b9150826002028217905092915050565b620007b4826200057b565b67ffffffffffffffff811115620007d057620007cf62000350565b5b620007dc8254620005b2565b620007e982828562000712565b5f60209050601f8311600181146200081f575f84156200080a578287015190505b6200081685826200078c565b86555062000885565b601f1984166200082f86620005e6565b5f5b82811015620008585784890151825560018201915060208501945060208101905062000831565b8683101562000878578489015162000874601f8916826200076e565b8355505b6001600288020188555050505b505050505050565b5f73ffffffffffffffffffffffffffffffffffffffff82169050919050565b5f620008b8826200088d565b9050919050565b620008ca81620008ac565b82525050565b5f602082019050620008e55f830184620008bf565b92915050565b7f4e487b71000000000000000000000000000000000000000000000000000000005f52601160045260245ffd5b5f6200092482620004ac565b91506200093183620004ac565b92508282019050808211156200094c576200094b620008eb565b5b92915050565b6200095d81620004ac565b82525050565b5f606082019050620009785f830186620008bf565b62000987602083018562000952565b62000996604083018462000952565b949350505050565b5f602082019050620009b35f83018462000952565b92915050565b610dfb80620009c75f395ff3fe608060405234801561000f575f80fd5b5060043610610091575f3560e01c8063313ce56711610064578063313ce5671461013157806370a082311461014f57806395d89b411461017f578063a9059cbb1461019d578063dd62ed3e146101cd57610091565b806306fdde0314610095578063095ea7b3146100b357806318160ddd146100e357806323b872dd14610101575b5f80fd5b61009d6101fd565b6040516100aa9190610a74565b60405180910390f35b6100cd60048036038101906100c89190610b25565b61028d565b6040516100da9190610b7d565b60405180910390f35b6100eb6102af565b6040516100f89190610ba5565b60405180910390f35b61011b60048036038101906101169190610bbe565b6102b8565b6040516101289190610b7d565b60405180910390f35b6101396102e6565b6040516101469190610c29565b60405180910390f35b61016960048036038101906101649190610c42565b6102ee565b6040516101769190610ba5565b60405180910390f35b610187610333565b6040516101949190610a74565b60405180910390f35b6101b760048036038101906101b29190610b25565b6103c3565b6040516101c49190610b7d565b60405180910390f35b6101e760048036038101906101e29190610c6d565b6103e5565b6040516101f49190610ba5565b60405180910390f35b60606003805461020c90610cd8565b80601f016020809104026020016040519081016040528092919081815260200182805461023890610cd8565b80156102835780601f1061025a57610100808354040283529160200191610283565b820191905f5260205f20905b81548152906001019060200180831161026657829003601f168201915b5050505050905090565b5f80610297610467565b90506102a481858561046e565b600191505092915050565b5f600254905090565b5f806102c2610467565b90506102cf858285610480565b6102da858585610512565b60019150509392505050565b5f6012905090565b5f805f8373ffffffffffffffffffffffffffffffffffffffff1673ffffffffffffffffffffffffffffffffffffffff1681526020019081526020015f20549050919050565b60606004805461034290610cd8565b80601f016020809104026020016040519081016040528092919081815260200182805461036e90610cd8565b80156103b95780601f10610390576101008083540402835291602001916103b9565b820191905f5260205f20905b81548152906001019060200180831161039c57829003601f168201915b5050505050905090565b5f806103cd610467565b90506103da818585610512565b600191505092915050565b5f60015f8473ffffffffffffffffffffffffffffffffffffffff1673ffffffffffffffffffffffffffffffffffffffff1681526020019081526020015f205f8373ffffffffffffffffffffffffffffffffffffffff1673ffffffffffffffffffffffffffffffffffffffff1681526020019081526020015f2054905092915050565b5f33905090565b61047b8383836001610602565b505050565b5f61048b84846103e5565b90507fffffffffffffffffffffffffffffffffffffffffffffffffffffffffffffffff811461050c57818110156104fd578281836040517ffb8f41b20000000000000000000000000000000000000000000000000000000081526004016104f493929190610d17565b60405180910390fd5b61050b84848484035f610602565b5b50505050565b5f73ffffffffffffffffffffffffffffffffffffffff168373ffffffffffffffffffffffffffffffffffffffff1603610582575f6040517f96c6fd1e0000000000000000000000000000000000000000000000000000000081526004016105799190610d4c565b60405180910390fd5b5f73ffffffffffffffffffffffffffffffffffffffff168273ffffffffffffffffffffffffffffffffffffffff16036105f2575f6040517fec442f050000000000000000000000000000000000000000000000000000000081526004016105e99190610d4c565b60405180910390fd5b6105fd8383836107d1565b505050565b5f73ffffffffffffffffffffffffffffffffffffffff168473ffffffffffffffffffffffffffffffffffffffff1603610672575f6040517fe602df050000000000000000000000000000000000000000000000000000000081526004016106699190610d4c565b60405180910390fd5b5f73ffffffffffffffffffffffffffffffffffffffff168373ffffffffffffffffffffffffffffffffffffffff16036106e2575f6040517f94280d620000000000000000000000000000000000000000000000000000000081526004016106d99190610d4c565b60405180910390fd5b8160015f8673ffffffffffffffffffffffffffffffffffffffff1673ffffffffffffffffffffffffffffffffffffffff1681526020019081526020015f205f8573ffffffffffffffffffffffffffffffffffffffff1673ffffffffffffffffffffffffffffffffffffffff1681526020019081526020015f208190555080156107cb578273ffffffffffffffffffffffffffffffffffffffff168473ffffffffffffffffffffffffffffffffffffffff167f8c5be1e5ebec7d5bd14f71427d1e84f3dd0314c0f7b2291e5b200ac8c7c3b925846040516107c29190610ba5565b60405180910390a35b50505050565b5f73ffffffffffffffffffffffffffffffffffffffff168373ffffffffffffffffffffffffffffffffffffffff1603610821578060025f8282546108159190610d92565b925050819055506108ef565b5f805f8573ffffffffffffffffffffffffffffffffffffffff1673ffffffffffffffffffffffffffffffffffffffff1681526020019081526020015f20549050818110156108aa578381836040517fe450d38c0000000000000000000000000000000000000000000000000000000081526004016108a193929190610d17565b60405180910390fd5b8181035f808673ffffffffffffffffffffffffffffffffffffffff1673ffffffffffffffffffffffffffffffffffffffff1681526020019081526020015f2081905550505b5f73ffffffffffffffffffffffffffffffffffffffff168273ffffffffffffffffffffffffffffffffffffffff1603610936578060025f8282540392505081905550610980565b805f808473ffffffffffffffffffffffffffffffffffffffff1673ffffffffffffffffffffffffffffffffffffffff1681526020019081526020015f205f82825401925050819055505b8173ffffffffffffffffffffffffffffffffffffffff168373ffffffffffffffffffffffffffffffffffffffff167fddf252ad1be2c89b69c2b068fc378daa952ba7f163c4a11628f55a4df523b3ef836040516109dd9190610ba5565b60405180910390a3505050565b5f81519050919050565b5f82825260208201905092915050565b5f5b83811015610a21578082015181840152602081019050610a06565b5f8484015250505050565b5f601f19601f8301169050919050565b5f610a46826109ea565b610a5081856109f4565b9350610a60818560208601610a04565b610a6981610a2c565b840191505092915050565b5f6020820190508181035f830152610a8c8184610a3c565b905092915050565b5f80fd5b5f73ffffffffffffffffffffffffffffffffffffffff82169050919050565b5f610ac182610a98565b9050919050565b610ad181610ab7565b8114610adb575f80fd5b50565b5f81359050610aec81610ac8565b92915050565b5f819050919050565b610b0481610af2565b8114610b0e575f80fd5b50565b5f81359050610b1f81610afb565b92915050565b5f8060408385031215610b3b57610b3a610a94565b5b5f610b4885828601610ade565b9250506020610b5985828601610b11565b9150509250929050565b5f8115159050919050565b610b7781610b63565b82525050565b5f602082019050610b905f830184610b6e565b92915050565b610b9f81610af2565b82525050565b5f602082019050610bb85f830184610b96565b92915050565b5f805f60608486031215610bd557610bd4610a94565b5b5f610be286828701610ade565b9350506020610bf386828701610ade565b9250506040610c0486828701610b11565b9150509250925092565b5f60ff82169050919050565b610c2381610c0e565b82525050565b5f602082019050610c3c5f830184610c1a565b92915050565b5f60208284031215610c5757610c56610a94565b5b5f610c6484828501610ade565b91505092915050565b5f8060408385031215610c8357610c82610a94565b5b5f610c9085828601610ade565b9250506020610ca185828601610ade565b9150509250929050565b7f4e487b71000000000000000000000000000000000000000000000000000000005f52602260045260245ffd5b5f6002820490506001821680610cef57607f821691505b602082108103610d0257610d01610cab565b5b50919050565b610d1181610ab7565b82525050565b5f606082019050610d2a5f830186610d08565b610d376020830185610b96565b610d446040830184610b96565b949350505050565b5f602082019050610d5f5f830184610d08565b92915050565b7f4e487b71000000000000000000000000000000000000000000000000000000005f52601160045260245ffd5b5f610d9c82610af2565b9150610da783610af2565b9250828201905080821115610dbf57610dbe610d65565b5b9291505056fea2646970667358221220219a4c6aa95f06d7fe14990f20c0577f035f167f8461058c1cac52c769f6c98264736f6c63430008180033a2646970667358221220388dfc86dac21757ad7b2c3981e52fdc2121db0e92e1cb6ecb2e6a55f7e35aac64736f6c63430008180033",
					"opcodes": "PUSH1 0x80 PUSH1 0x40 MSTORE CALLVALUE DUP1 ISZERO PUSH2 0xF JUMPI PUSH0 DUP1 REVERT JUMPDEST POP PUSH2 0x1F77 DUP1 PUSH2 0x1D PUSH0 CODECOPY PUSH0 RETURN INVALID PUSH1 0x80 PUSH1 0x40 MSTORE CALLVALUE DUP1 ISZERO PUSH3 0x10 JUMPI PUSH0 DUP1 REVERT JUMPDEST POP PUSH1 0x4 CALLDATASIZE LT PUSH3 0x44 JUMPI PUSH0 CALLDATALOAD PUSH1 0xE0 SHR DUP1 PUSH4 0x5B060530 EQ PUSH3 0x48 JUMPI DUP1 PUSH4 0x622AE7AA EQ PUSH3 0x68 JUMPI DUP1 PUSH4 0xEC81AADB EQ PUSH3 0x8A JUMPI JUMPDEST PUSH0 DUP1 REVERT JUMPDEST PUSH3 0x66 PUSH1 0x4 DUP1 CALLDATASIZE SUB DUP2 ADD SWAP1 PUSH3 0x60 SWAP2 SWAP1 PUSH3 0x411 JUMP JUMPDEST PUSH3 0xC0 JUMP JUMPDEST STOP JUMPDEST PUSH3 0x72 PUSH3 0x19B JUMP JUMPDEST PUSH1 0x40 MLOAD PUSH3 0x81 SWAP2 SWAP1 PUSH3 0x5E4 JUMP JUMPDEST PUSH1 0x40 MLOAD DUP1 SWAP2 SUB SWAP1 RETURN JUMPDEST PUSH3 0xA8 PUSH1 0x4 DUP1 CALLDATASIZE SUB DUP2 ADD SWAP1 PUSH3 0xA2 SWAP2 SWAP1 PUSH3 0x606 JUMP JUMPDEST PUSH3 0x227 JUMP JUMPDEST PUSH1 0x40 MLOAD PUSH3 0xB7 SWAP2 SWAP1 PUSH3 0x647 JUMP JUMPDEST PUSH1 0x40 MLOAD DUP1 SWAP2 SUB SWAP1 RETURN JUMPDEST PUSH0 DUP4 DUP4 DUP4 PUSH1 0x40 MLOAD PUSH3 0xD2 SWAP1 PUSH3 0x262 JUMP JUMPDEST PUSH3 0xE0 SWAP4 SWAP3 SWAP2 SWAP1 PUSH3 0x6F7 JUMP JUMPDEST PUSH1 0x40 MLOAD DUP1 SWAP2 SUB SWAP1 PUSH0 CREATE DUP1 ISZERO DUP1 ISZERO PUSH3 0xFA JUMPI RETURNDATASIZE PUSH0 DUP1 RETURNDATACOPY RETURNDATASIZE PUSH0 REVERT JUMPDEST POP SWAP1 POP PUSH0 DUP2 SWAP1 DUP1 PUSH1 0x1 DUP2 SLOAD ADD DUP1 DUP3 SSTORE DUP1 SWAP2 POP POP PUSH1 0x1 SWAP1 SUB SWAP1 PUSH0 MSTORE PUSH1 0x20 PUSH0 KECCAK256 ADD PUSH0 SWAP1 SWAP2 SWAP1 SWAP2 SWAP1 SWAP2 PUSH2 0x100 EXP DUP2 SLOAD DUP2 PUSH20 0xFFFFFFFFFFFFFFFFFFFFFFFFFFFFFFFFFFFFFFFF MUL NOT AND SWAP1 DUP4 PUSH20 0xFFFFFFFFFFFFFFFFFFFFFFFFFFFFFFFFFFFFFFFF AND MUL OR SWAP1 SSTORE POP PUSH32 0x2E2B3F61B70D2D131B2A807371103CC98D51ADCAA5E9A8F9C32658AD8426E74E DUP2 PUSH1 0x40 MLOAD PUSH3 0x18D SWAP2 SWAP1 PUSH3 0x764 JUMP JUMPDEST PUSH1 0x40 MLOAD DUP1 SWAP2 SUB SWAP1 LOG1 POP POP POP POP JUMP JUMPDEST PUSH1 0x60 PUSH0 DUP1 SLOAD DUP1 PUSH1 0x20 MUL PUSH1 0x20 ADD PUSH1 0x40 MLOAD SWAP1 DUP2 ADD PUSH1 0x40 MSTORE DUP1 SWAP3 SWAP2 SWAP1 DUP2 DUP2 MSTORE PUSH1 0x20 ADD DUP3 DUP1 SLOAD DUP1 ISZERO PUSH3 0x21D JUMPI PUSH1 0x20 MUL DUP3 ADD SWAP2 SWAP1 PUSH0 MSTORE PUSH1 0x20 PUSH0 KECCAK256 SWAP1 JUMPDEST DUP2 PUSH0 SWAP1 SLOAD SWAP1 PUSH2 0x100 EXP SWAP1 DIV PUSH20 0xFFFFFFFFFFFFFFFFFFFFFFFFFFFFFFFFFFFFFFFF AND PUSH20 0xFFFFFFFFFFFFFFFFFFFFFFFFFFFFFFFFFFFFFFFF AND DUP2 MSTORE PUSH1 0x20 ADD SWAP1 PUSH1 0x1 ADD SWAP1 DUP1 DUP4 GT PUSH3 0x1D3 JUMPI JUMPDEST POP POP POP POP POP SWAP1 POP SWAP1 JUMP JUMPDEST PUSH0 DUP2 DUP2 SLOAD DUP2 LT PUSH3 0x236 JUMPI PUSH0 DUP1 REVERT JUMPDEST SWAP1 PUSH0 MSTORE PUSH1 0x20 PUSH0 KECCAK256 ADD PUSH0 SWAP2 POP SLOAD SWAP1 PUSH2 0x100 EXP SWAP1 DIV PUSH20 0xFFFFFFFFFFFFFFFFFFFFFFFFFFFFFFFFFFFFFFFF AND DUP2 JUMP JUMPDEST PUSH2 0x17C2 DUP1 PUSH3 0x780 DUP4 CODECOPY ADD SWAP1 JUMP JUMPDEST PUSH0 PUSH1 0x40 MLOAD SWAP1 POP SWAP1 JUMP JUMPDEST PUSH0 DUP1 REVERT JUMPDEST PUSH0 DUP1 REVERT JUMPDEST PUSH0 DUP1 REVERT JUMPDEST PUSH0 DUP1 REVERT JUMPDEST PUSH0 PUSH1 0x1F NOT PUSH1 0x1F DUP4 ADD AND SWAP1 POP SWAP2 SWAP1 POP JUMP JUMPDEST PUSH32 0x4E487B7100000000000000000000000000000000000000000000000000000000 PUSH0 MSTORE PUSH1 0x41 PUSH1 0x4 MSTORE PUSH1 0x24 PUSH0 REVERT JUMPDEST PUSH3 0x2D1 DUP3 PUSH3 0x289 JUMP JUMPDEST DUP2 ADD DUP2 DUP2 LT PUSH8 0xFFFFFFFFFFFFFFFF DUP3 GT OR ISZERO PUSH3 0x2F3 JUMPI PUSH3 0x2F2 PUSH3 0x299 JUMP JUMPDEST JUMPDEST DUP1 PUSH1 0x40 MSTORE POP POP POP JUMP JUMPDEST PUSH0 PUSH3 0x307 PUSH3 0x270 JUMP JUMPDEST SWAP1 POP PUSH3 0x315 DUP3 DUP3 PUSH3 0x2C6 JUMP JUMPDEST SWAP2 SWAP1 POP JUMP JUMPDEST PUSH0 PUSH8 0xFFFFFFFFFFFFFFFF DUP3 GT ISZERO PUSH3 0x337 JUMPI PUSH3 0x336 PUSH3 0x299 JUMP JUMPDEST JUMPDEST PUSH3 0x342 DUP3 PUSH3 0x289 JUMP JUMPDEST SWAP1 POP PUSH1 0x20 DUP2 ADD SWAP1 POP SWAP2 SWAP1 POP JUMP JUMPDEST DUP3 DUP2 DUP4 CALLDATACOPY PUSH0 DUP4 DUP4 ADD MSTORE POP POP POP JUMP JUMPDEST PUSH0 PUSH3 0x373 PUSH3 0x36D DUP5 PUSH3 0x31A JUMP JUMPDEST PUSH3 0x2FC JUMP JUMPDEST SWAP1 POP DUP3 DUP2 MSTORE PUSH1 0x20 DUP2 ADD DUP5 DUP5 DUP5 ADD GT ISZERO PUSH3 0x392 JUMPI PUSH3 0x391 PUSH3 0x285 JUMP JUMPDEST JUMPDEST PUSH3 0x39F DUP5 DUP3 DUP6 PUSH3 0x34F JUMP JUMPDEST POP SWAP4 SWAP3 POP POP POP JUMP JUMPDEST PUSH0 DUP3 PUSH1 0x1F DUP4 ADD SLT PUSH3 0x3BE JUMPI PUSH3 0x3BD PUSH3 0x281 JUMP JUMPDEST JUMPDEST DUP2 CALLDATALOAD PUSH3 0x3D0 DUP5 DUP3 PUSH1 0x20 DUP7 ADD PUSH3 0x35D JUMP JUMPDEST SWAP2 POP POP SWAP3 SWAP2 POP POP JUMP JUMPDEST PUSH0 DUP2 SWAP1 POP SWAP2 SWAP1 POP JUMP JUMPDEST PUSH3 0x3ED DUP2 PUSH3 0x3D9 JUMP JUMPDEST DUP2 EQ PUSH3 0x3F8 JUMPI PUSH0 DUP1 REVERT JUMPDEST POP JUMP JUMPDEST PUSH0 DUP2 CALLDATALOAD SWAP1 POP PUSH3 0x40B DUP2 PUSH3 0x3E2 JUMP JUMPDEST SWAP3 SWAP2 POP POP JUMP JUMPDEST PUSH0 DUP1 PUSH0 PUSH1 0x60 DUP5 DUP7 SUB SLT ISZERO PUSH3 0x42B JUMPI PUSH3 0x42A PUSH3 0x279 JUMP JUMPDEST JUMPDEST PUSH0 DUP5 ADD CALLDATALOAD PUSH8 0xFFFFFFFFFFFFFFFF DUP2 GT ISZERO PUSH3 0x44B JUMPI PUSH3 0x44A PUSH3 0x27D JUMP JUMPDEST JUMPDEST PUSH3 0x459 DUP7 DUP3 DUP8 ADD PUSH3 0x3A7 JUMP JUMPDEST SWAP4 POP POP PUSH1 0x20 DUP5 ADD CALLDATALOAD PUSH8 0xFFFFFFFFFFFFFFFF DUP2 GT ISZERO PUSH3 0x47D JUMPI PUSH3 0x47C PUSH3 0x27D JUMP JUMPDEST JUMPDEST PUSH3 0x48B DUP7 DUP3 DUP8 ADD PUSH3 0x3A7 JUMP JUMPDEST SWAP3 POP POP PUSH1 0x40 PUSH3 0x49E DUP7 DUP3 DUP8 ADD PUSH3 0x3FB JUMP JUMPDEST SWAP2 POP POP SWAP3 POP SWAP3 POP SWAP3 JUMP JUMPDEST PUSH0 DUP2 MLOAD SWAP1 POP SWAP2 SWAP1 POP JUMP JUMPDEST PUSH0 DUP3 DUP3 MSTORE PUSH1 0x20 DUP3 ADD SWAP1 POP SWAP3 SWAP2 POP POP JUMP JUMPDEST PUSH0 DUP2 SWAP1 POP PUSH1 0x20 DUP3 ADD SWAP1 POP SWAP2 SWAP1 POP JUMP JUMPDEST PUSH0 PUSH20 0xFFFFFFFFFFFFFFFFFFFFFFFFFFFFFFFFFFFFFFFF DUP3 AND SWAP1 POP SWAP2 SWAP1 POP JUMP JUMPDEST PUSH0 DUP2 SWAP1 POP SWAP2 SWAP1 POP JUMP JUMPDEST PUSH0 PUSH3 0x519 PUSH3 0x513 PUSH3 0x50D DUP5 PUSH3 0x4D1 JUMP JUMPDEST PUSH3 0x4F0 JUMP JUMPDEST PUSH3 0x4D1 JUMP JUMPDEST SWAP1 POP SWAP2 SWAP1 POP JUMP JUMPDEST PUSH0 PUSH3 0x52C DUP3 PUSH3 0x4F9 JUMP JUMPDEST SWAP1 POP SWAP2 SWAP1 POP JUMP JUMPDEST PUSH0 PUSH3 0x53F DUP3 PUSH3 0x520 JUMP JUMPDEST SWAP1 POP SWAP2 SWAP1 POP JUMP JUMPDEST PUSH3 0x551 DUP2 PUSH3 0x533 JUMP JUMPDEST DUP3 MSTORE POP POP JUMP JUMPDEST PUSH0 PUSH3 0x564 DUP4 DUP4 PUSH3 0x546 JUMP JUMPDEST PUSH1 0x20 DUP4 ADD SWAP1 POP SWAP3 SWAP2 POP POP JUMP JUMPDEST PUSH0 PUSH1 0x20 DUP3 ADD SWAP1 POP SWAP2 SWAP1 POP JUMP JUMPDEST PUSH0 PUSH3 0x588 DUP3 PUSH3 0x4A8 JUMP JUMPDEST PUSH3 0x594 DUP2 DUP6 PUSH3 0x4B2 JUMP JUMPDEST SWAP4 POP PUSH3 0x5A1 DUP4 PUSH3 0x4C2 JUMP JUMPDEST DUP1 PUSH0 JUMPDEST DUP4 DUP2 LT ISZERO PUSH3 0x5D7 JUMPI DUP2 MLOAD PUSH3 0x5BB DUP9 DUP3 PUSH3 0x557 JUMP JUMPDEST SWAP8 POP PUSH3 0x5C8 DUP4 PUSH3 0x570 JUMP JUMPDEST SWAP3 POP POP PUSH1 0x1 DUP2 ADD SWAP1 POP PUSH3 0x5A4 JUMP JUMPDEST POP DUP6 SWAP4 POP POP POP POP SWAP3 SWAP2 POP POP JUMP JUMPDEST PUSH0 PUSH1 0x20 DUP3 ADD SWAP1 POP DUP2 DUP2 SUB PUSH0 DUP4 ADD MSTORE PUSH3 0x5FE DUP2 DUP5 PUSH3 0x57C JUMP JUMPDEST SWAP1 POP SWAP3 SWAP2 POP POP JUMP JUMPDEST PUSH0 PUSH1 0x20 DUP3 DUP5 SUB SLT ISZERO PUSH3 0x61E JUMPI PUSH3 0x61D PUSH3 0x279 JUMP JUMPDEST JUMPDEST PUSH0 PUSH3 0x62D DUP5 DUP3 DUP6 ADD PUSH3 0x3FB JUMP JUMPDEST SWAP2 POP POP SWAP3 SWAP2 POP POP JUMP JUMPDEST PUSH3 0x641 DUP2 PUSH3 0x533 JUMP JUMPDEST DUP3 MSTORE POP POP JUMP JUMPDEST PUSH0 PUSH1 0x20 DUP3 ADD SWAP1 POP PUSH3 0x65C PUSH0 DUP4 ADD DUP5 PUSH3 0x636 JUMP JUMPDEST SWAP3 SWAP2 POP POP JUMP JUMPDEST PUSH0 DUP2 MLOAD SWAP1 POP SWAP2 SWAP1 POP JUMP JUMPDEST PUSH0 DUP3 DUP3 MSTORE PUSH1 0x20 DUP3 ADD SWAP1 POP SWAP3 SWAP2 POP POP JUMP JUMPDEST PUSH0 JUMPDEST DUP4 DUP2 LT ISZERO PUSH3 0x69B JUMPI DUP1 DUP3 ADD MLOAD DUP2 DUP5 ADD MSTORE PUSH1 0x20 DUP2 ADD SWAP1 POP PUSH3 0x67E JUMP JUMPDEST PUSH0 DUP5 DUP5 ADD MSTORE POP POP POP POP JUMP JUMPDEST PUSH0 PUSH3 0x6B2 DUP3 PUSH3 0x662 JUMP JUMPDEST PUSH3 0x6BE DUP2 DUP6 PUSH3 0x66C JUMP JUMPDEST SWAP4 POP PUSH3 0x6D0 DUP2 DUP6 PUSH1 0x20 DUP7 ADD PUSH3 0x67C JUMP JUMPDEST PUSH3 0x6DB DUP2 PUSH3 0x289 JUMP JUMPDEST DUP5 ADD SWAP2 POP POP SWAP3 SWAP2 POP POP JUMP JUMPDEST PUSH3 0x6F1 DUP2 PUSH3 0x3D9 JUMP JUMPDEST DUP3 MSTORE POP POP JUMP JUMPDEST PUSH0 PUSH1 0x60 DUP3 ADD SWAP1 POP DUP2 DUP2 SUB PUSH0 DUP4 ADD MSTORE PUSH3 0x711 DUP2 DUP7 PUSH3 0x6A6 JUMP JUMPDEST SWAP1 POP DUP2 DUP2 SUB PUSH1 0x20 DUP4 ADD MSTORE PUSH3 0x727 DUP2 DUP6 PUSH3 0x6A6 JUMP JUMPDEST SWAP1 POP PUSH3 0x738 PUSH1 0x40 DUP4 ADD DUP5 PUSH3 0x6E6 JUMP JUMPDEST SWAP5 SWAP4 POP POP POP POP JUMP JUMPDEST PUSH0 PUSH3 0x74C DUP3 PUSH3 0x4D1 JUMP JUMPDEST SWAP1 POP SWAP2 SWAP1 POP JUMP JUMPDEST PUSH3 0x75E DUP2 PUSH3 0x740 JUMP JUMPDEST DUP3 MSTORE POP POP JUMP JUMPDEST PUSH0 PUSH1 0x20 DUP3 ADD SWAP1 POP PUSH3 0x779 PUSH0 DUP4 ADD DUP5 PUSH3 0x753 JUMP JUMPDEST SWAP3 SWAP2 POP POP JUMP INVALID PUSH1 0x80 PUSH1 0x40 MSTORE CALLVALUE DUP1 ISZERO PUSH3 0x10 JUMPI PUSH0 DUP1 REVERT JUMPDEST POP PUSH1 0x40 MLOAD PUSH3 0x17C2 CODESIZE SUB DUP1 PUSH3 0x17C2 DUP4 CODECOPY DUP2 DUP2 ADD PUSH1 0x40 MSTORE DUP2 ADD SWAP1 PUSH3 0x36 SWAP2 SWAP1 PUSH3 0x4E4 JUMP JUMPDEST DUP3 DUP3 DUP2 PUSH1 0x3 SWAP1 DUP2 PUSH3 0x49 SWAP2 SWAP1 PUSH3 0x7A9 JUMP JUMPDEST POP DUP1 PUSH1 0x4 SWAP1 DUP2 PUSH3 0x5B SWAP2 SWAP1 PUSH3 0x7A9 JUMP JUMPDEST POP POP POP PUSH3 0x70 CALLER DUP3 PUSH3 0x79 PUSH1 0x20 SHL PUSH1 0x20 SHR JUMP JUMPDEST POP POP POP PUSH3 0x9B9 JUMP JUMPDEST PUSH0 PUSH20 0xFFFFFFFFFFFFFFFFFFFFFFFFFFFFFFFFFFFFFFFF AND DUP3 PUSH20 0xFFFFFFFFFFFFFFFFFFFFFFFFFFFFFFFFFFFFFFFF AND SUB PUSH3 0xEC JUMPI PUSH0 PUSH1 0x40 MLOAD PUSH32 0xEC442F0500000000000000000000000000000000000000000000000000000000 DUP2 MSTORE PUSH1 0x4 ADD PUSH3 0xE3 SWAP2 SWAP1 PUSH3 0x8D0 JUMP JUMPDEST PUSH1 0x40 MLOAD DUP1 SWAP2 SUB SWAP1 REVERT JUMPDEST PUSH3 0xFF PUSH0 DUP4 DUP4 PUSH3 0x103 PUSH1 0x20 SHL PUSH1 0x20 SHR JUMP JUMPDEST POP POP JUMP JUMPDEST PUSH0 PUSH20 0xFFFFFFFFFFFFFFFFFFFFFFFFFFFFFFFFFFFFFFFF AND DUP4 PUSH20 0xFFFFFFFFFFFFFFFFFFFFFFFFFFFFFFFFFFFFFFFF AND SUB PUSH3 0x157 JUMPI DUP1 PUSH1 0x2 PUSH0 DUP3 DUP3 SLOAD PUSH3 0x14A SWAP2 SWAP1 PUSH3 0x918 JUMP JUMPDEST SWAP3 POP POP DUP2 SWAP1 SSTORE POP PUSH3 0x228 JUMP JUMPDEST PUSH0 DUP1 PUSH0 DUP6 PUSH20 0xFFFFFFFFFFFFFFFFFFFFFFFFFFFFFFFFFFFFFFFF AND PUSH20 0xFFFFFFFFFFFFFFFFFFFFFFFFFFFFFFFFFFFFFFFF AND DUP2 MSTORE PUSH1 0x20 ADD SWAP1 DUP2 MSTORE PUSH1 0x20 ADD PUSH0 KECCAK256 SLOAD SWAP1 POP DUP2 DUP2 LT ISZERO PUSH3 0x1E3 JUMPI DUP4 DUP2 DUP4 PUSH1 0x40 MLOAD PUSH32 0xE450D38C00000000000000000000000000000000000000000000000000000000 DUP2 MSTORE PUSH1 0x4 ADD PUSH3 0x1DA SWAP4 SWAP3 SWAP2 SWAP1 PUSH3 0x963 JUMP JUMPDEST PUSH1 0x40 MLOAD DUP1 SWAP2 SUB SWAP1 REVERT JUMPDEST DUP2 DUP2 SUB PUSH0 DUP1 DUP7 PUSH20 0xFFFFFFFFFFFFFFFFFFFFFFFFFFFFFFFFFFFFFFFF AND PUSH20 0xFFFFFFFFFFFFFFFFFFFFFFFFFFFFFFFFFFFFFFFF AND DUP2 MSTORE PUSH1 0x20 ADD SWAP1 DUP2 MSTORE PUSH1 0x20 ADD PUSH0 KECCAK256 DUP2 SWAP1 SSTORE POP POP JUMPDEST PUSH0 PUSH20 0xFFFFFFFFFFFFFFFFFFFFFFFFFFFFFFFFFFFFFFFF AND DUP3 PUSH20 0xFFFFFFFFFFFFFFFFFFFFFFFFFFFFFFFFFFFFFFFF AND SUB PUSH3 0x271 JUMPI DUP1 PUSH1 0x2 PUSH0 DUP3 DUP3 SLOAD SUB SWAP3 POP POP DUP2 SWAP1 SSTORE POP PUSH3 0x2BB JUMP JUMPDEST DUP1 PUSH0 DUP1 DUP5 PUSH20 0xFFFFFFFFFFFFFFFFFFFFFFFFFFFFFFFFFFFFFFFF AND PUSH20 0xFFFFFFFFFFFFFFFFFFFFFFFFFFFFFFFFFFFFFFFF AND DUP2 MSTORE PUSH1 0x20 ADD SWAP1 DUP2 MSTORE PUSH1 0x20 ADD PUSH0 KECCAK256 PUSH0 DUP3 DUP3 SLOAD ADD SWAP3 POP POP DUP2 SWAP1 SSTORE POP JUMPDEST DUP2 PUSH20 0xFFFFFFFFFFFFFFFFFFFFFFFFFFFFFFFFFFFFFFFF AND DUP4 PUSH20 0xFFFFFFFFFFFFFFFFFFFFFFFFFFFFFFFFFFFFFFFF AND PUSH32 0xDDF252AD1BE2C89B69C2B068FC378DAA952BA7F163C4A11628F55A4DF523B3EF DUP4 PUSH1 0x40 MLOAD PUSH3 0x31A SWAP2 SWAP1 PUSH3 0x99E JUMP JUMPDEST PUSH1 0x40 MLOAD DUP1 SWAP2 SUB SWAP1 LOG3 POP POP POP JUMP JUMPDEST PUSH0 PUSH1 0x40 MLOAD SWAP1 POP SWAP1 JUMP JUMPDEST PUSH0 DUP1 REVERT JUMPDEST PUSH0 DUP1 REVERT JUMPDEST PUSH0 DUP1 REVERT JUMPDEST PUSH0 DUP1 REVERT JUMPDEST PUSH0 PUSH1 0x1F NOT PUSH1 0x1F DUP4 ADD AND SWAP1 POP SWAP2 SWAP1 POP JUMP JUMPDEST PUSH32 0x4E487B7100000000000000000000000000000000000000000000000000000000 PUSH0 MSTORE PUSH1 0x41 PUSH1 0x4 MSTORE PUSH1 0x24 PUSH0 REVERT JUMPDEST PUSH3 0x388 DUP3 PUSH3 0x340 JUMP JUMPDEST DUP2 ADD DUP2 DUP2 LT PUSH8 0xFFFFFFFFFFFFFFFF DUP3 GT OR ISZERO PUSH3 0x3AA JUMPI PUSH3 0x3A9 PUSH3 0x350 JUMP JUMPDEST JUMPDEST DUP1 PUSH1 0x40 MSTORE POP POP POP JUMP JUMPDEST PUSH0 PUSH3 0x3BE PUSH3 0x327 JUMP JUMPDEST SWAP1 POP PUSH3 0x3CC DUP3 DUP3 PUSH3 0x37D JUMP JUMPDEST SWAP2 SWAP1 POP JUMP JUMPDEST PUSH0 PUSH8 0xFFFFFFFFFFFFFFFF DUP3 GT ISZERO PUSH3 0x3EE JUMPI PUSH3 0x3ED PUSH3 0x350 JUMP JUMPDEST JUMPDEST PUSH3 0x3F9 DUP3 PUSH3 0x340 JUMP JUMPDEST SWAP1 POP PUSH1 0x20 DUP2 ADD SWAP1 POP SWAP2 SWAP1 POP JUMP JUMPDEST PUSH0 JUMPDEST DUP4 DUP2 LT ISZERO PUSH3 0x425 JUMPI DUP1 DUP3 ADD MLOAD DUP2 DUP5 ADD MSTORE PUSH1 0x20 DUP2 ADD SWAP1 POP PUSH3 0x408 JUMP JUMPDEST PUSH0 DUP5 DUP5 ADD MSTORE POP POP POP POP JUMP JUMPDEST PUSH0 PUSH3 0x446 PUSH3 0x440 DUP5 PUSH3 0x3D1 JUMP JUMPDEST PUSH3 0x3B3 JUMP JUMPDEST SWAP1 POP DUP3 DUP2 MSTORE PUSH1 0x20 DUP2 ADD DUP5 DUP5 DUP5 ADD GT ISZERO PUSH3 0x465 JUMPI PUSH3 0x464 PUSH3 0x33C JUMP JUMPDEST JUMPDEST PUSH3 0x472 DUP5 DUP3 DUP6 PUSH3 0x406 JUMP JUMPDEST POP SWAP4 SWAP3 POP POP POP JUMP JUMPDEST PUSH0 DUP3 PUSH1 0x1F DUP4 ADD SLT PUSH3 0x491 JUMPI PUSH3 0x490 PUSH3 0x338 JUMP JUMPDEST JUMPDEST DUP2 MLOAD PUSH3 0x4A3 DUP5 DUP3 PUSH1 0x20 DUP7 ADD PUSH3 0x430 JUMP JUMPDEST SWAP2 POP POP SWAP3 SWAP2 POP POP JUMP JUMPDEST PUSH0 DUP2 SWAP1 POP SWAP2 SWAP1 POP JUMP JUMPDEST PUSH3 0x4C0 DUP2 PUSH3 0x4AC JUMP JUMPDEST DUP2 EQ PUSH3 0x4CB JUMPI PUSH0 DUP1 REVERT JUMPDEST POP JUMP JUMPDEST PUSH0 DUP2 MLOAD SWAP1 POP PUSH3 0x4DE DUP2 PUSH3 0x4B5 JUMP JUMPDEST SWAP3 SWAP2 POP POP JUMP JUMPDEST PUSH0 DUP1 PUSH0 PUSH1 0x60 DUP5 DUP7 SUB SLT ISZERO PUSH3 0x4FE JUMPI PUSH3 0x4FD PUSH3 0x330 JUMP JUMPDEST JUMPDEST PUSH0 DUP5 ADD MLOAD PUSH8 0xFFFFFFFFFFFFFFFF DUP2 GT ISZERO PUSH3 0x51E JUMPI PUSH3 0x51D PUSH3 0x334 JUMP JUMPDEST JUMPDEST PUSH3 0x52C DUP7 DUP3 DUP8 ADD PUSH3 0x47A JUMP JUMPDEST SWAP4 POP POP PUSH1 0x20 DUP5 ADD MLOAD PUSH8 0xFFFFFFFFFFFFFFFF DUP2 GT ISZERO PUSH3 0x550 JUMPI PUSH3 0x54F PUSH3 0x334 JUMP JUMPDEST JUMPDEST PUSH3 0x55E DUP7 DUP3 DUP8 ADD PUSH3 0x47A JUMP JUMPDEST SWAP3 POP POP PUSH1 0x40 PUSH3 0x571 DUP7 DUP3 DUP8 ADD PUSH3 0x4CE JUMP JUMPDEST SWAP2 POP POP SWAP3 POP SWAP3 POP SWAP3 JUMP JUMPDEST PUSH0 DUP2 MLOAD SWAP1 POP SWAP2 SWAP1 POP JUMP JUMPDEST PUSH32 0x4E487B7100000000000000000000000000000000000000000000000000000000 PUSH0 MSTORE PUSH1 0x22 PUSH1 0x4 MSTORE PUSH1 0x24 PUSH0 REVERT JUMPDEST PUSH0 PUSH1 0x2 DUP3 DIV SWAP1 POP PUSH1 0x1 DUP3 AND DUP1 PUSH3 0x5CA JUMPI PUSH1 0x7F DUP3 AND SWAP2 POP JUMPDEST PUSH1 0x20 DUP3 LT DUP2 SUB PUSH3 0x5E0 JUMPI PUSH3 0x5DF PUSH3 0x585 JUMP JUMPDEST JUMPDEST POP SWAP2 SWAP1 POP JUMP JUMPDEST PUSH0 DUP2 SWAP1 POP DUP2 PUSH0 MSTORE PUSH1 0x20 PUSH0 KECCAK256 SWAP1 POP SWAP2 SWAP1 POP JUMP JUMPDEST PUSH0 PUSH1 0x20 PUSH1 0x1F DUP4 ADD DIV SWAP1 POP SWAP2 SWAP1 POP JUMP JUMPDEST PUSH0 DUP3 DUP3 SHL SWAP1 POP SWAP3 SWAP2 POP POP JUMP JUMPDEST PUSH0 PUSH1 0x8 DUP4 MUL PUSH3 0x644 PUSH32 0xFFFFFFFFFFFFFFFFFFFFFFFFFFFFFFFFFFFFFFFFFFFFFFFFFFFFFFFFFFFFFFFF DUP3 PUSH3 0x607 JUMP JUMPDEST PUSH3 0x650 DUP7 DUP4 PUSH3 0x607 JUMP JUMPDEST SWAP6 POP DUP1 NOT DUP5 AND SWAP4 POP DUP1 DUP7 AND DUP5 OR SWAP3 POP POP POP SWAP4 SWAP3 POP POP POP JUMP JUMPDEST PUSH0 DUP2 SWAP1 POP SWAP2 SWAP1 POP JUMP JUMPDEST PUSH0 PUSH3 0x691 PUSH3 0x68B PUSH3 0x685 DUP5 PUSH3 0x4AC JUMP JUMPDEST PUSH3 0x668 JUMP JUMPDEST PUSH3 0x4AC JUMP JUMPDEST SWAP1 POP SWAP2 SWAP1 POP JUMP JUMPDEST PUSH0 DUP2 SWAP1 POP SWAP2 SWAP1 POP JUMP JUMPDEST PUSH3 0x6AC DUP4 PUSH3 0x671 JUMP JUMPDEST PUSH3 0x6C4 PUSH3 0x6BB DUP3 PUSH3 0x698 JUMP JUMPDEST DUP5 DUP5 SLOAD PUSH3 0x613 JUMP JUMPDEST DUP3 SSTORE POP POP POP POP JUMP JUMPDEST PUSH0 SWAP1 JUMP JUMPDEST PUSH3 0x6DA PUSH3 0x6CC JUMP JUMPDEST PUSH3 0x6E7 DUP2 DUP5 DUP5 PUSH3 0x6A1 JUMP JUMPDEST POP POP POP JUMP JUMPDEST JUMPDEST DUP2 DUP2 LT ISZERO PUSH3 0x70E JUMPI PUSH3 0x702 PUSH0 DUP3 PUSH3 0x6D0 JUMP JUMPDEST PUSH1 0x1 DUP2 ADD SWAP1 POP PUSH3 0x6ED JUMP JUMPDEST POP POP JUMP JUMPDEST PUSH1 0x1F DUP3 GT ISZERO PUSH3 0x75D JUMPI PUSH3 0x727 DUP2 PUSH3 0x5E6 JUMP JUMPDEST PUSH3 0x732 DUP5 PUSH3 0x5F8 JUMP JUMPDEST DUP2 ADD PUSH1 0x20 DUP6 LT ISZERO PUSH3 0x742 JUMPI DUP2 SWAP1 POP JUMPDEST PUSH3 0x75A PUSH3 0x751 DUP6 PUSH3 0x5F8 JUMP JUMPDEST DUP4 ADD DUP3 PUSH3 0x6EC JUMP JUMPDEST POP POP JUMPDEST POP POP POP JUMP JUMPDEST PUSH0 DUP3 DUP3 SHR SWAP1 POP SWAP3 SWAP2 POP POP JUMP JUMPDEST PUSH0 PUSH3 0x77F PUSH0 NOT DUP5 PUSH1 0x8 MUL PUSH3 0x762 JUMP JUMPDEST NOT DUP1 DUP4 AND SWAP2 POP POP SWAP3 SWAP2 POP POP JUMP JUMPDEST PUSH0 PUSH3 0x799 DUP4 DUP4 PUSH3 0x76E JUMP JUMPDEST SWAP2 POP DUP3 PUSH1 0x2 MUL DUP3 OR SWAP1 POP SWAP3 SWAP2 POP POP JUMP JUMPDEST PUSH3 0x7B4 DUP3 PUSH3 0x57B JUMP JUMPDEST PUSH8 0xFFFFFFFFFFFFFFFF DUP2 GT ISZERO PUSH3 0x7D0 JUMPI PUSH3 0x7CF PUSH3 0x350 JUMP JUMPDEST JUMPDEST PUSH3 0x7DC DUP3 SLOAD PUSH3 0x5B2 JUMP JUMPDEST PUSH3 0x7E9 DUP3 DUP3 DUP6 PUSH3 0x712 JUMP JUMPDEST PUSH0 PUSH1 0x20 SWAP1 POP PUSH1 0x1F DUP4 GT PUSH1 0x1 DUP2 EQ PUSH3 0x81F JUMPI PUSH0 DUP5 ISZERO PUSH3 0x80A JUMPI DUP3 DUP8 ADD MLOAD SWAP1 POP JUMPDEST PUSH3 0x816 DUP6 DUP3 PUSH3 0x78C JUMP JUMPDEST DUP7 SSTORE POP PUSH3 0x885 JUMP JUMPDEST PUSH1 0x1F NOT DUP5 AND PUSH3 0x82F DUP7 PUSH3 0x5E6 JUMP JUMPDEST PUSH0 JUMPDEST DUP3 DUP2 LT ISZERO PUSH3 0x858 JUMPI DUP5 DUP10 ADD MLOAD DUP3 SSTORE PUSH1 0x1 DUP3 ADD SWAP2 POP PUSH1 0x20 DUP6 ADD SWAP5 POP PUSH1 0x20 DUP2 ADD SWAP1 POP PUSH3 0x831 JUMP JUMPDEST DUP7 DUP4 LT ISZERO PUSH3 0x878 JUMPI DUP5 DUP10 ADD MLOAD PUSH3 0x874 PUSH1 0x1F DUP10 AND DUP3 PUSH3 0x76E JUMP JUMPDEST DUP4 SSTORE POP JUMPDEST PUSH1 0x1 PUSH1 0x2 DUP9 MUL ADD DUP9 SSTORE POP POP POP JUMPDEST POP POP POP POP POP POP JUMP JUMPDEST PUSH0 PUSH20 0xFFFFFFFFFFFFFFFFFFFFFFFFFFFFFFFFFFFFFFFF DUP3 AND SWAP1 POP SWAP2 SWAP1 POP JUMP JUMPDEST PUSH0 PUSH3 0x8B8 DUP3 PUSH3 0x88D JUMP JUMPDEST SWAP1 POP SWAP2 SWAP1 POP JUMP JUMPDEST PUSH3 0x8CA DUP2 PUSH3 0x8AC JUMP JUMPDEST DUP3 MSTORE POP POP JUMP JUMPDEST PUSH0 PUSH1 0x20 DUP3 ADD SWAP1 POP PUSH3 0x8E5 PUSH0 DUP4 ADD DUP5 PUSH3 0x8BF JUMP JUMPDEST SWAP3 SWAP2 POP POP JUMP JUMPDEST PUSH32 0x4E487B7100000000000000000000000000000000000000000000000000000000 PUSH0 MSTORE PUSH1 0x11 PUSH1 0x4 MSTORE PUSH1 0x24 PUSH0 REVERT JUMPDEST PUSH0 PUSH3 0x924 DUP3 PUSH3 0x4AC JUMP JUMPDEST SWAP2 POP PUSH3 0x931 DUP4 PUSH3 0x4AC JUMP JUMPDEST SWAP3 POP DUP3 DUP3 ADD SWAP1 POP DUP1 DUP3 GT ISZERO PUSH3 0x94C JUMPI PUSH3 0x94B PUSH3 0x8EB JUMP JUMPDEST JUMPDEST SWAP3 SWAP2 POP POP JUMP JUMPDEST PUSH3 0x95D DUP2 PUSH3 0x4AC JUMP JUMPDEST DUP3 MSTORE POP POP JUMP JUMPDEST PUSH0 PUSH1 0x60 DUP3 ADD SWAP1 POP PUSH3 0x978 PUSH0 DUP4 ADD DUP7 PUSH3 0x8BF JUMP JUMPDEST PUSH3 0x987 PUSH1 0x20 DUP4 ADD DUP6 PUSH3 0x952 JUMP JUMPDEST PUSH3 0x996 PUSH1 0x40 DUP4 ADD DUP5 PUSH3 0x952 JUMP JUMPDEST SWAP5 SWAP4 POP POP POP POP JUMP JUMPDEST PUSH0 PUSH1 0x20 DUP3 ADD SWAP1 POP PUSH3 0x9B3 PUSH0 DUP4 ADD DUP5 PUSH3 0x952 JUMP JUMPDEST SWAP3 SWAP2 POP POP JUMP JUMPDEST PUSH2 0xDFB DUP1 PUSH3 0x9C7 PUSH0 CODECOPY PUSH0 RETURN INVALID PUSH1 0x80 PUSH1 0x40 MSTORE CALLVALUE DUP1 ISZERO PUSH2 0xF JUMPI PUSH0 DUP1 REVERT JUMPDEST POP PUSH1 0x4 CALLDATASIZE LT PUSH2 0x91 JUMPI PUSH0 CALLDATALOAD PUSH1 0xE0 SHR DUP1 PUSH4 0x313CE567 GT PUSH2 0x64 JUMPI DUP1 PUSH4 0x313CE567 EQ PUSH2 0x131 JUMPI DUP1 PUSH4 0x70A08231 EQ PUSH2 0x14F JUMPI DUP1 PUSH4 0x95D89B41 EQ PUSH2 0x17F JUMPI DUP1 PUSH4 0xA9059CBB EQ PUSH2 0x19D JUMPI DUP1 PUSH4 0xDD62ED3E EQ PUSH2 0x1CD JUMPI PUSH2 0x91 JUMP JUMPDEST DUP1 PUSH4 0x6FDDE03 EQ PUSH2 0x95 JUMPI DUP1 PUSH4 0x95EA7B3 EQ PUSH2 0xB3 JUMPI DUP1 PUSH4 0x18160DDD EQ PUSH2 0xE3 JUMPI DUP1 PUSH4 0x23B872DD EQ PUSH2 0x101 JUMPI JUMPDEST PUSH0 DUP1 REVERT JUMPDEST PUSH2 0x9D PUSH2 0x1FD JUMP JUMPDEST PUSH1 0x40 MLOAD PUSH2 0xAA SWAP2 SWAP1 PUSH2 0xA74 JUMP JUMPDEST PUSH1 0x40 MLOAD DUP1 SWAP2 SUB SWAP1 RETURN JUMPDEST PUSH2 0xCD PUSH1 0x4 DUP1 CALLDATASIZE SUB DUP2 ADD SWAP1 PUSH2 0xC8 SWAP2 SWAP1 PUSH2 0xB25 JUMP JUMPDEST PUSH2 0x28D JUMP JUMPDEST PUSH1 0x40 MLOAD PUSH2 0xDA SWAP2 SWAP1 PUSH2 0xB7D JUMP JUMPDEST PUSH1 0x40 MLOAD DUP1 SWAP2 SUB SWAP1 RETURN JUMPDEST PUSH2 0xEB PUSH2 0x2AF JUMP JUMPDEST PUSH1 0x40 MLOAD PUSH2 0xF8 SWAP2 SWAP1 PUSH2 0xBA5 JUMP JUMPDEST PUSH1 0x40 MLOAD DUP1 SWAP2 SUB SWAP1 RETURN JUMPDEST PUSH2 0x11B PUSH1 0x4 DUP1 CALLDATASIZE SUB DUP2 ADD SWAP1 PUSH2 0x116 SWAP2 SWAP1 PUSH2 0xBBE JUMP JUMPDEST PUSH2 0x2B8 JUMP JUMPDEST PUSH1 0x40 MLOAD PUSH2 0x128 SWAP2 SWAP1 PUSH2 0xB7D JUMP JUMPDEST PUSH1 0x40 MLOAD DUP1 SWAP2 SUB SWAP1 RETURN JUMPDEST PUSH2 0x139 PUSH2 0x2E6 JUMP JUMPDEST PUSH1 0x40 MLOAD PUSH2 0x146 SWAP2 SWAP1 PUSH2 0xC29 JUMP JUMPDEST PUSH1 0x40 MLOAD DUP1 SWAP2 SUB SWAP1 RETURN JUMPDEST PUSH2 0x169 PUSH1 0x4 DUP1 CALLDATASIZE SUB DUP2 ADD SWAP1 PUSH2 0x164 SWAP2 SWAP1 PUSH2 0xC42 JUMP JUMPDEST PUSH2 0x2EE JUMP JUMPDEST PUSH1 0x40 MLOAD PUSH2 0x176 SWAP2 SWAP1 PUSH2 0xBA5 JUMP JUMPDEST PUSH1 0x40 MLOAD DUP1 SWAP2 SUB SWAP1 RETURN JUMPDEST PUSH2 0x187 PUSH2 0x333 JUMP JUMPDEST PUSH1 0x40 MLOAD PUSH2 0x194 SWAP2 SWAP1 PUSH2 0xA74 JUMP JUMPDEST PUSH1 0x40 MLOAD DUP1 SWAP2 SUB SWAP1 RETURN JUMPDEST PUSH2 0x1B7 PUSH1 0x4 DUP1 CALLDATASIZE SUB DUP2 ADD SWAP1 PUSH2 0x1B2 SWAP2 SWAP1 PUSH2 0xB25 JUMP JUMPDEST PUSH2 0x3C3 JUMP JUMPDEST PUSH1 0x40 MLOAD PUSH2 0x1C4 SWAP2 SWAP1 PUSH2 0xB7D JUMP JUMPDEST PUSH1 0x40 MLOAD DUP1 SWAP2 SUB SWAP1 RETURN JUMPDEST PUSH2 0x1E7 PUSH1 0x4 DUP1 CALLDATASIZE SUB DUP2 ADD SWAP1 PUSH2 0x1E2 SWAP2 SWAP1 PUSH2 0xC6D JUMP JUMPDEST PUSH2 0x3E5 JUMP JUMPDEST PUSH1 0x40 MLOAD PUSH2 0x1F4 SWAP2 SWAP1 PUSH2 0xBA5 JUMP JUMPDEST PUSH1 0x40 MLOAD DUP1 SWAP2 SUB SWAP1 RETURN JUMPDEST PUSH1 0x60 PUSH1 0x3 DUP1 SLOAD PUSH2 0x20C SWAP1 PUSH2 0xCD8 JUMP JUMPDEST DUP1 PUSH1 0x1F ADD PUSH1 0x20 DUP1 SWAP2 DIV MUL PUSH1 0x20 ADD PUSH1 0x40 MLOAD SWAP1 DUP2 ADD PUSH1 0x40 MSTORE DUP1 SWAP3 SWAP2 SWAP1 DUP2 DUP2 MSTORE PUSH1 0x20 ADD DUP3 DUP1 SLOAD PUSH2 0x238 SWAP1 PUSH2 0xCD8 JUMP JUMPDEST DUP1 ISZERO PUSH2 0x283 JUMPI DUP1 PUSH1 0x1F LT PUSH2 0x25A JUMPI PUSH2 0x100 DUP1 DUP4 SLOAD DIV MUL DUP4 MSTORE SWAP2 PUSH1 0x20 ADD SWAP2 PUSH2 0x283 JUMP JUMPDEST DUP3 ADD SWAP2 SWAP1 PUSH0 MSTORE PUSH1 0x20 PUSH0 KECCAK256 SWAP1 JUMPDEST DUP2 SLOAD DUP2 MSTORE SWAP1 PUSH1 0x1 ADD SWAP1 PUSH1 0x20 ADD DUP1 DUP4 GT PUSH2 0x266 JUMPI DUP3 SWAP1 SUB PUSH1 0x1F AND DUP3 ADD SWAP2 JUMPDEST POP POP POP POP POP SWAP1 POP SWAP1 JUMP JUMPDEST PUSH0 DUP1 PUSH2 0x297 PUSH2 0x467 JUMP JUMPDEST SWAP1 POP PUSH2 0x2A4 DUP2 DUP6 DUP6 PUSH2 0x46E JUMP JUMPDEST PUSH1 0x1 SWAP2 POP POP SWAP3 SWAP2 POP POP JUMP JUMPDEST PUSH0 PUSH1 0x2 SLOAD SWAP1 POP SWAP1 JUMP JUMPDEST PUSH0 DUP1 PUSH2 0x2C2 PUSH2 0x467 JUMP JUMPDEST SWAP1 POP PUSH2 0x2CF DUP6 DUP3 DUP6 PUSH2 0x480 JUMP JUMPDEST PUSH2 0x2DA DUP6 DUP6 DUP6 PUSH2 0x512 JUMP JUMPDEST PUSH1 0x1 SWAP2 POP POP SWAP4 SWAP3 POP POP POP JUMP JUMPDEST PUSH0 PUSH1 0x12 SWAP1 POP SWAP1 JUMP JUMPDEST PUSH0 DUP1 PUSH0 DUP4 PUSH20 0xFFFFFFFFFFFFFFFFFFFFFFFFFFFFFFFFFFFFFFFF AND PUSH20 0xFFFFFFFFFFFFFFFFFFFFFFFFFFFFFFFFFFFFFFFF AND DUP2 MSTORE PUSH1 0x20 ADD SWAP1 DUP2 MSTORE PUSH1 0x20 ADD PUSH0 KECCAK256 SLOAD SWAP1 POP SWAP2 SWAP1 POP JUMP JUMPDEST PUSH1 0x60 PUSH1 0x4 DUP1 SLOAD PUSH2 0x342 SWAP1 PUSH2 0xCD8 JUMP JUMPDEST DUP1 PUSH1 0x1F ADD PUSH1 0x20 DUP1 SWAP2 DIV MUL PUSH1 0x20 ADD PUSH1 0x40 MLOAD SWAP1 DUP2 ADD PUSH1 0x40 MSTORE DUP1 SWAP3 SWAP2 SWAP1 DUP2 DUP2 MSTORE PUSH1 0x20 ADD DUP3 DUP1 SLOAD PUSH2 0x36E SWAP1 PUSH2 0xCD8 JUMP JUMPDEST DUP1 ISZERO PUSH2 0x3B9 JUMPI DUP1 PUSH1 0x1F LT PUSH2 0x390 JUMPI PUSH2 0x100 DUP1 DUP4 SLOAD DIV MUL DUP4 MSTORE SWAP2 PUSH1 0x20 ADD SWAP2 PUSH2 0x3B9 JUMP JUMPDEST DUP3 ADD SWAP2 SWAP1 PUSH0 MSTORE PUSH1 0x20 PUSH0 KECCAK256 SWAP1 JUMPDEST DUP2 SLOAD DUP2 MSTORE SWAP1 PUSH1 0x1 ADD SWAP1 PUSH1 0x20 ADD DUP1 DUP4 GT PUSH2 0x39C JUMPI DUP3 SWAP1 SUB PUSH1 0x1F AND DUP3 ADD SWAP2 JUMPDEST POP POP POP POP POP SWAP1 POP SWAP1 JUMP JUMPDEST PUSH0 DUP1 PUSH2 0x3CD PUSH2 0x467 JUMP JUMPDEST SWAP1 POP PUSH2 0x3DA DUP2 DUP6 DUP6 PUSH2 0x512 JUMP JUMPDEST PUSH1 0x1 SWAP2 POP POP SWAP3 SWAP2 POP POP JUMP JUMPDEST PUSH0 PUSH1 0x1 PUSH0 DUP5 PUSH20 0xFFFFFFFFFFFFFFFFFFFFFFFFFFFFFFFFFFFFFFFF AND PUSH20 0xFFFFFFFFFFFFFFFFFFFFFFFFFFFFFFFFFFFFFFFF AND DUP2 MSTORE PUSH1 0x20 ADD SWAP1 DUP2 MSTORE PUSH1 0x20 ADD PUSH0 KECCAK256 PUSH0 DUP4 PUSH20 0xFFFFFFFFFFFFFFFFFFFFFFFFFFFFFFFFFFFFFFFF AND PUSH20 0xFFFFFFFFFFFFFFFFFFFFFFFFFFFFFFFFFFFFFFFF AND DUP2 MSTORE PUSH1 0x20 ADD SWAP1 DUP2 MSTORE PUSH1 0x20 ADD PUSH0 KECCAK256 SLOAD SWAP1 POP SWAP3 SWAP2 POP POP JUMP JUMPDEST PUSH0 CALLER SWAP1 POP SWAP1 JUMP JUMPDEST PUSH2 0x47B DUP4 DUP4 DUP4 PUSH1 0x1 PUSH2 0x602 JUMP JUMPDEST POP POP POP JUMP JUMPDEST PUSH0 PUSH2 0x48B DUP5 DUP5 PUSH2 0x3E5 JUMP JUMPDEST SWAP1 POP PUSH32 0xFFFFFFFFFFFFFFFFFFFFFFFFFFFFFFFFFFFFFFFFFFFFFFFFFFFFFFFFFFFFFFFF DUP2 EQ PUSH2 0x50C JUMPI DUP2 DUP2 LT ISZERO PUSH2 0x4FD JUMPI DUP3 DUP2 DUP4 PUSH1 0x40 MLOAD PUSH32 0xFB8F41B200000000000000000000000000000000000000000000000000000000 DUP2 MSTORE PUSH1 0x4 ADD PUSH2 0x4F4 SWAP4 SWAP3 SWAP2 SWAP1 PUSH2 0xD17 JUMP JUMPDEST PUSH1 0x40 MLOAD DUP1 SWAP2 SUB SWAP1 REVERT JUMPDEST PUSH2 0x50B DUP5 DUP5 DUP5 DUP5 SUB PUSH0 PUSH2 0x602 JUMP JUMPDEST JUMPDEST POP POP POP POP JUMP JUMPDEST PUSH0 PUSH20 0xFFFFFFFFFFFFFFFFFFFFFFFFFFFFFFFFFFFFFFFF AND DUP4 PUSH20 0xFFFFFFFFFFFFFFFFFFFFFFFFFFFFFFFFFFFFFFFF AND SUB PUSH2 0x582 JUMPI PUSH0 PUSH1 0x40 MLOAD PUSH32 0x96C6FD1E00000000000000000000000000000000000000000000000000000000 DUP2 MSTORE PUSH1 0x4 ADD PUSH2 0x579 SWAP2 SWAP1 PUSH2 0xD4C JUMP JUMPDEST PUSH1 0x40 MLOAD DUP1 SWAP2 SUB SWAP1 REVERT JUMPDEST PUSH0 PUSH20 0xFFFFFFFFFFFFFFFFFFFFFFFFFFFFFFFFFFFFFFFF AND DUP3 PUSH20 0xFFFFFFFFFFFFFFFFFFFFFFFFFFFFFFFFFFFFFFFF AND SUB PUSH2 0x5F2 JUMPI PUSH0 PUSH1 0x40 MLOAD PUSH32 0xEC442F0500000000000000000000000000000000000000000000000000000000 DUP2 MSTORE PUSH1 0x4 ADD PUSH2 0x5E9 SWAP2 SWAP1 PUSH2 0xD4C JUMP JUMPDEST PUSH1 0x40 MLOAD DUP1 SWAP2 SUB SWAP1 REVERT JUMPDEST PUSH2 0x5FD DUP4 DUP4 DUP4 PUSH2 0x7D1 JUMP JUMPDEST POP POP POP JUMP JUMPDEST PUSH0 PUSH20 0xFFFFFFFFFFFFFFFFFFFFFFFFFFFFFFFFFFFFFFFF AND DUP5 PUSH20 0xFFFFFFFFFFFFFFFFFFFFFFFFFFFFFFFFFFFFFFFF AND SUB PUSH2 0x672 JUMPI PUSH0 PUSH1 0x40 MLOAD PUSH32 0xE602DF0500000000000000000000000000000000000000000000000000000000 DUP2 MSTORE PUSH1 0x4 ADD PUSH2 0x669 SWAP2 SWAP1 PUSH2 0xD4C JUMP JUMPDEST PUSH1 0x40 MLOAD DUP1 SWAP2 SUB SWAP1 REVERT JUMPDEST PUSH0 PUSH20 0xFFFFFFFFFFFFFFFFFFFFFFFFFFFFFFFFFFFFFFFF AND DUP4 PUSH20 0xFFFFFFFFFFFFFFFFFFFFFFFFFFFFFFFFFFFFFFFF AND SUB PUSH2 0x6E2 JUMPI PUSH0 PUSH1 0x40 MLOAD PUSH32 0x94280D6200000000000000000000000000000000000000000000000000000000 DUP2 MSTORE PUSH1 0x4 ADD PUSH2 0x6D9 SWAP2 SWAP1 PUSH2 0xD4C JUMP JUMPDEST PUSH1 0x40 MLOAD DUP1 SWAP2 SUB SWAP1 REVERT JUMPDEST DUP2 PUSH1 0x1 PUSH0 DUP7 PUSH20 0xFFFFFFFFFFFFFFFFFFFFFFFFFFFFFFFFFFFFFFFF AND PUSH20 0xFFFFFFFFFFFFFFFFFFFFFFFFFFFFFFFFFFFFFFFF AND DUP2 MSTORE PUSH1 0x20 ADD SWAP1 DUP2 MSTORE PUSH1 0x20 ADD PUSH0 KECCAK256 PUSH0 DUP6 PUSH20 0xFFFFFFFFFFFFFFFFFFFFFFFFFFFFFFFFFFFFFFFF AND PUSH20 0xFFFFFFFFFFFFFFFFFFFFFFFFFFFFFFFFFFFFFFFF AND DUP2 MSTORE PUSH1 0x20 ADD SWAP1 DUP2 MSTORE PUSH1 0x20 ADD PUSH0 KECCAK256 DUP2 SWAP1 SSTORE POP DUP1 ISZERO PUSH2 0x7CB JUMPI DUP3 PUSH20 0xFFFFFFFFFFFFFFFFFFFFFFFFFFFFFFFFFFFFFFFF AND DUP5 PUSH20 0xFFFFFFFFFFFFFFFFFFFFFFFFFFFFFFFFFFFFFFFF AND PUSH32 0x8C5BE1E5EBEC7D5BD14F71427D1E84F3DD0314C0F7B2291E5B200AC8C7C3B925 DUP5 PUSH1 0x40 MLOAD PUSH2 0x7C2 SWAP2 SWAP1 PUSH2 0xBA5 JUMP JUMPDEST PUSH1 0x40 MLOAD DUP1 SWAP2 SUB SWAP1 LOG3 JUMPDEST POP POP POP POP JUMP JUMPDEST PUSH0 PUSH20 0xFFFFFFFFFFFFFFFFFFFFFFFFFFFFFFFFFFFFFFFF AND DUP4 PUSH20 0xFFFFFFFFFFFFFFFFFFFFFFFFFFFFFFFFFFFFFFFF AND SUB PUSH2 0x821 JUMPI DUP1 PUSH1 0x2 PUSH0 DUP3 DUP3 SLOAD PUSH2 0x815 SWAP2 SWAP1 PUSH2 0xD92 JUMP JUMPDEST SWAP3 POP POP DUP2 SWAP1 SSTORE POP PUSH2 0x8EF JUMP JUMPDEST PUSH0 DUP1 PUSH0 DUP6 PUSH20 0xFFFFFFFFFFFFFFFFFFFFFFFFFFFFFFFFFFFFFFFF AND PUSH20 0xFFFFFFFFFFFFFFFFFFFFFFFFFFFFFFFFFFFFFFFF AND DUP2 MSTORE PUSH1 0x20 ADD SWAP1 DUP2 MSTORE PUSH1 0x20 ADD PUSH0 KECCAK256 SLOAD SWAP1 POP DUP2 DUP2 LT ISZERO PUSH2 0x8AA JUMPI DUP4 DUP2 DUP4 PUSH1 0x40 MLOAD PUSH32 0xE450D38C00000000000000000000000000000000000000000000000000000000 DUP2 MSTORE PUSH1 0x4 ADD PUSH2 0x8A1 SWAP4 SWAP3 SWAP2 SWAP1 PUSH2 0xD17 JUMP JUMPDEST PUSH1 0x40 MLOAD DUP1 SWAP2 SUB SWAP1 REVERT JUMPDEST DUP2 DUP2 SUB PUSH0 DUP1 DUP7 PUSH20 0xFFFFFFFFFFFFFFFFFFFFFFFFFFFFFFFFFFFFFFFF AND PUSH20 0xFFFFFFFFFFFFFFFFFFFFFFFFFFFFFFFFFFFFFFFF AND DUP2 MSTORE PUSH1 0x20 ADD SWAP1 DUP2 MSTORE PUSH1 0x20 ADD PUSH0 KECCAK256 DUP2 SWAP1 SSTORE POP POP JUMPDEST PUSH0 PUSH20 0xFFFFFFFFFFFFFFFFFFFFFFFFFFFFFFFFFFFFFFFF AND DUP3 PUSH20 0xFFFFFFFFFFFFFFFFFFFFFFFFFFFFFFFFFFFFFFFF AND SUB PUSH2 0x936 JUMPI DUP1 PUSH1 0x2 PUSH0 DUP3 DUP3 SLOAD SUB SWAP3 POP POP DUP2 SWAP1 SSTORE POP PUSH2 0x980 JUMP JUMPDEST DUP1 PUSH0 DUP1 DUP5 PUSH20 0xFFFFFFFFFFFFFFFFFFFFFFFFFFFFFFFFFFFFFFFF AND PUSH20 0xFFFFFFFFFFFFFFFFFFFFFFFFFFFFFFFFFFFFFFFF AND DUP2 MSTORE PUSH1 0x20 ADD SWAP1 DUP2 MSTORE PUSH1 0x20 ADD PUSH0 KECCAK256 PUSH0 DUP3 DUP3 SLOAD ADD SWAP3 POP POP DUP2 SWAP1 SSTORE POP JUMPDEST DUP2 PUSH20 0xFFFFFFFFFFFFFFFFFFFFFFFFFFFFFFFFFFFFFFFF AND DUP4 PUSH20 0xFFFFFFFFFFFFFFFFFFFFFFFFFFFFFFFFFFFFFFFF AND PUSH32 0xDDF252AD1BE2C89B69C2B068FC378DAA952BA7F163C4A11628F55A4DF523B3EF DUP4 PUSH1 0x40 MLOAD PUSH2 0x9DD SWAP2 SWAP1 PUSH2 0xBA5 JUMP JUMPDEST PUSH1 0x40 MLOAD DUP1 SWAP2 SUB SWAP1 LOG3 POP POP POP JUMP JUMPDEST PUSH0 DUP2 MLOAD SWAP1 POP SWAP2 SWAP1 POP JUMP JUMPDEST PUSH0 DUP3 DUP3 MSTORE PUSH1 0x20 DUP3 ADD SWAP1 POP SWAP3 SWAP2 POP POP JUMP JUMPDEST PUSH0 JUMPDEST DUP4 DUP2 LT ISZERO PUSH2 0xA21 JUMPI DUP1 DUP3 ADD MLOAD DUP2 DUP5 ADD MSTORE PUSH1 0x20 DUP2 ADD SWAP1 POP PUSH2 0xA06 JUMP JUMPDEST PUSH0 DUP5 DUP5 ADD MSTORE POP POP POP POP JUMP JUMPDEST PUSH0 PUSH1 0x1F NOT PUSH1 0x1F DUP4 ADD AND SWAP1 POP SWAP2 SWAP1 POP JUMP JUMPDEST PUSH0 PUSH2 0xA46 DUP3 PUSH2 0x9EA JUMP JUMPDEST PUSH2 0xA50 DUP2 DUP6 PUSH2 0x9F4 JUMP JUMPDEST SWAP4 POP PUSH2 0xA60 DUP2 DUP6 PUSH1 0x20 DUP7 ADD PUSH2 0xA04 JUMP JUMPDEST PUSH2 0xA69 DUP2 PUSH2 0xA2C JUMP JUMPDEST DUP5 ADD SWAP2 POP POP SWAP3 SWAP2 POP POP JUMP JUMPDEST PUSH0 PUSH1 0x20 DUP3 ADD SWAP1 POP DUP2 DUP2 SUB PUSH0 DUP4 ADD MSTORE PUSH2 0xA8C DUP2 DUP5 PUSH2 0xA3C JUMP JUMPDEST SWAP1 POP SWAP3 SWAP2 POP POP JUMP JUMPDEST PUSH0 DUP1 REVERT JUMPDEST PUSH0 PUSH20 0xFFFFFFFFFFFFFFFFFFFFFFFFFFFFFFFFFFFFFFFF DUP3 AND SWAP1 POP SWAP2 SWAP1 POP JUMP JUMPDEST PUSH0 PUSH2 0xAC1 DUP3 PUSH2 0xA98 JUMP JUMPDEST SWAP1 POP SWAP2 SWAP1 POP JUMP JUMPDEST PUSH2 0xAD1 DUP2 PUSH2 0xAB7 JUMP JUMPDEST DUP2 EQ PUSH2 0xADB JUMPI PUSH0 DUP1 REVERT JUMPDEST POP JUMP JUMPDEST PUSH0 DUP2 CALLDATALOAD SWAP1 POP PUSH2 0xAEC DUP2 PUSH2 0xAC8 JUMP JUMPDEST SWAP3 SWAP2 POP POP JUMP JUMPDEST PUSH0 DUP2 SWAP1 POP SWAP2 SWAP1 POP JUMP JUMPDEST PUSH2 0xB04 DUP2 PUSH2 0xAF2 JUMP JUMPDEST DUP2 EQ PUSH2 0xB0E JUMPI PUSH0 DUP1 REVERT JUMPDEST POP JUMP JUMPDEST PUSH0 DUP2 CALLDATALOAD SWAP1 POP PUSH2 0xB1F DUP2 PUSH2 0xAFB JUMP JUMPDEST SWAP3 SWAP2 POP POP JUMP JUMPDEST PUSH0 DUP1 PUSH1 0x40 DUP4 DUP6 SUB SLT ISZERO PUSH2 0xB3B JUMPI PUSH2 0xB3A PUSH2 0xA94 JUMP JUMPDEST JUMPDEST PUSH0 PUSH2 0xB48 DUP6 DUP3 DUP7 ADD PUSH2 0xADE JUMP JUMPDEST SWAP3 POP POP PUSH1 0x20 PUSH2 0xB59 DUP6 DUP3 DUP7 ADD PUSH2 0xB11 JUMP JUMPDEST SWAP2 POP POP SWAP3 POP SWAP3 SWAP1 POP JUMP JUMPDEST PUSH0 DUP2 ISZERO ISZERO SWAP1 POP SWAP2 SWAP1 POP JUMP JUMPDEST PUSH2 0xB77 DUP2 PUSH2 0xB63 JUMP JUMPDEST DUP3 MSTORE POP POP JUMP JUMPDEST PUSH0 PUSH1 0x20 DUP3 ADD SWAP1 POP PUSH2 0xB90 PUSH0 DUP4 ADD DUP5 PUSH2 0xB6E JUMP JUMPDEST SWAP3 SWAP2 POP POP JUMP JUMPDEST PUSH2 0xB9F DUP2 PUSH2 0xAF2 JUMP JUMPDEST DUP3 MSTORE POP POP JUMP JUMPDEST PUSH0 PUSH1 0x20 DUP3 ADD SWAP1 POP PUSH2 0xBB8 PUSH0 DUP4 ADD DUP5 PUSH2 0xB96 JUMP JUMPDEST SWAP3 SWAP2 POP POP JUMP JUMPDEST PUSH0 DUP1 PUSH0 PUSH1 0x60 DUP5 DUP7 SUB SLT ISZERO PUSH2 0xBD5 JUMPI PUSH2 0xBD4 PUSH2 0xA94 JUMP JUMPDEST JUMPDEST PUSH0 PUSH2 0xBE2 DUP7 DUP3 DUP8 ADD PUSH2 0xADE JUMP JUMPDEST SWAP4 POP POP PUSH1 0x20 PUSH2 0xBF3 DUP7 DUP3 DUP8 ADD PUSH2 0xADE JUMP JUMPDEST SWAP3 POP POP PUSH1 0x40 PUSH2 0xC04 DUP7 DUP3 DUP8 ADD PUSH2 0xB11 JUMP JUMPDEST SWAP2 POP POP SWAP3 POP SWAP3 POP SWAP3 JUMP JUMPDEST PUSH0 PUSH1 0xFF DUP3 AND SWAP1 POP SWAP2 SWAP1 POP JUMP JUMPDEST PUSH2 0xC23 DUP2 PUSH2 0xC0E JUMP JUMPDEST DUP3 MSTORE POP POP JUMP JUMPDEST PUSH0 PUSH1 0x20 DUP3 ADD SWAP1 POP PUSH2 0xC3C PUSH0 DUP4 ADD DUP5 PUSH2 0xC1A JUMP JUMPDEST SWAP3 SWAP2 POP POP JUMP JUMPDEST PUSH0 PUSH1 0x20 DUP3 DUP5 SUB SLT ISZERO PUSH2 0xC57 JUMPI PUSH2 0xC56 PUSH2 0xA94 JUMP JUMPDEST JUMPDEST PUSH0 PUSH2 0xC64 DUP5 DUP3 DUP6 ADD PUSH2 0xADE JUMP JUMPDEST SWAP2 POP POP SWAP3 SWAP2 POP POP JUMP JUMPDEST PUSH0 DUP1 PUSH1 0x40 DUP4 DUP6 SUB SLT ISZERO PUSH2 0xC83 JUMPI PUSH2 0xC82 PUSH2 0xA94 JUMP JUMPDEST JUMPDEST PUSH0 PUSH2 0xC90 DUP6 DUP3 DUP7 ADD PUSH2 0xADE JUMP JUMPDEST SWAP3 POP POP PUSH1 0x20 PUSH2 0xCA1 DUP6 DUP3 DUP7 ADD PUSH2 0xADE JUMP JUMPDEST SWAP2 POP POP SWAP3 POP SWAP3 SWAP1 POP JUMP JUMPDEST PUSH32 0x4E487B7100000000000000000000000000000000000000000000000000000000 PUSH0 MSTORE PUSH1 0x22 PUSH1 0x4 MSTORE PUSH1 0x24 PUSH0 REVERT JUMPDEST PUSH0 PUSH1 0x2 DUP3 DIV SWAP1 POP PUSH1 0x1 DUP3 AND DUP1 PUSH2 0xCEF JUMPI PUSH1 0x7F DUP3 AND SWAP2 POP JUMPDEST PUSH1 0x20 DUP3 LT DUP2 SUB PUSH2 0xD02 JUMPI PUSH2 0xD01 PUSH2 0xCAB JUMP JUMPDEST JUMPDEST POP SWAP2 SWAP1 POP JUMP JUMPDEST PUSH2 0xD11 DUP2 PUSH2 0xAB7 JUMP JUMPDEST DUP3 MSTORE POP POP JUMP JUMPDEST PUSH0 PUSH1 0x60 DUP3 ADD SWAP1 POP PUSH2 0xD2A PUSH0 DUP4 ADD DUP7 PUSH2 0xD08 JUMP JUMPDEST PUSH2 0xD37 PUSH1 0x20 DUP4 ADD DUP6 PUSH2 0xB96 JUMP JUMPDEST PUSH2 0xD44 PUSH1 0x40 DUP4 ADD DUP5 PUSH2 0xB96 JUMP JUMPDEST SWAP5 SWAP4 POP POP POP POP JUMP JUMPDEST PUSH0 PUSH1 0x20 DUP3 ADD SWAP1 POP PUSH2 0xD5F PUSH0 DUP4 ADD DUP5 PUSH2 0xD08 JUMP JUMPDEST SWAP3 SWAP2 POP POP JUMP JUMPDEST PUSH32 0x4E487B7100000000000000000000000000000000000000000000000000000000 PUSH0 MSTORE PUSH1 0x11 PUSH1 0x4 MSTORE PUSH1 0x24 PUSH0 REVERT JUMPDEST PUSH0 PUSH2 0xD9C DUP3 PUSH2 0xAF2 JUMP JUMPDEST SWAP2 POP PUSH2 0xDA7 DUP4 PUSH2 0xAF2 JUMP JUMPDEST SWAP3 POP DUP3 DUP3 ADD SWAP1 POP DUP1 DUP3 GT ISZERO PUSH2 0xDBF JUMPI PUSH2 0xDBE PUSH2 0xD65 JUMP JUMPDEST JUMPDEST SWAP3 SWAP2 POP POP JUMP INVALID LOG2 PUSH5 0x6970667358 0x22 SLT KECCAK256 0x21 SWAP11 0x4C PUSH11 0xA95F06D7FE14990F20C057 PUSH32 0x35F167F8461058C1CAC52C769F6C98264736F6C63430008180033A264697066 PUSH20 0x58221220388DFC86DAC21757AD7B2C3981E52FDC 0x21 0x21 0xDB 0xE SWAP3 0xE1 0xCB PUSH15 0xCB2E6A55F7E35AAC64736F6C634300 ADDMOD XOR STOP CALLER "
				},
				"gasEstimates": {
					"creation": {
						"codeDepositCost": "1611000",
						"executionCost": "1685",
						"totalCost": "1612685"
					},
					"external": {
						"createToken(string,string,uint256)": "infinite",
						"deployedTokens(uint256)": "infinite",
						"getDeployedTokens()": "infinite"
					}
				},
				"methodIdentifiers": {
					"createToken(string,string,uint256)": "5b060530",
					"deployedTokens(uint256)": "ec81aadb",
					"getDeployedTokens()": "622ae7aa"
				}
			},
			"storageLayout": {
				"storage": [
					{
						"astId": 818,
						"contract": "contract/TokenFactory.sol:TokenFactory",
						"label": "deployedTokens",
						"offset": 0,
						"slot": "0",
						"type": "t_array(t_contract(Token)811)dyn_storage"
					}
				],
				"types": {
					"t_array(t_contract(Token)811)dyn_storage": {
						"base": "t_contract(Token)811",
						"encoding": "dynamic_array",
						"label": "contract Token[]",
						"numberOfBytes": "32"
					},
					"t_contract(Token)811": {
						"encoding": "inplace",
						"label": "contract Token",
						"numberOfBytes": "20"
					}
				}
			},
			"userdoc": {
				"kind": "user",
				"methods": {},
				"version": 1
			}
		}
	}
}